{
  "_format": "hh-sol-artifact-1",
  "contractName": "nERC20",
  "sourceName": "contracts/nERC20.sol",
  "abi": [
    {
      "inputs": [
        {
          "internalType": "string",
          "name": "name_",
          "type": "string"
        },
        {
          "internalType": "string",
          "name": "symbol_",
          "type": "string"
        },
        {
          "internalType": "uint8",
          "name": "decimals_",
          "type": "uint8"
        },
        {
          "internalType": "contract IERC20",
          "name": "tokenAddress_",
          "type": "address"
        }
      ],
      "stateMutability": "nonpayable",
      "type": "constructor"
    },
    {
      "anonymous": false,
      "inputs": [
        {
          "indexed": true,
          "internalType": "address",
          "name": "owner",
          "type": "address"
        },
        {
          "indexed": true,
          "internalType": "address",
          "name": "spender",
          "type": "address"
        },
        {
          "indexed": false,
          "internalType": "uint256",
          "name": "value",
          "type": "uint256"
        }
      ],
      "name": "Approval",
      "type": "event"
    },
    {
      "anonymous": false,
      "inputs": [
        {
          "indexed": true,
          "internalType": "address",
          "name": "from",
          "type": "address"
        },
        {
          "indexed": true,
          "internalType": "address",
          "name": "to",
          "type": "address"
        },
        {
          "indexed": false,
          "internalType": "uint256",
          "name": "value",
          "type": "uint256"
        }
      ],
      "name": "Transfer",
      "type": "event"
    },
    {
      "inputs": [],
      "name": "accrueInterest",
      "outputs": [
        {
          "internalType": "uint256",
          "name": "accruedInterestAmount",
          "type": "uint256"
        }
      ],
      "stateMutability": "nonpayable",
      "type": "function"
    },
    {
      "inputs": [
        {
          "internalType": "address",
          "name": "owner",
          "type": "address"
        },
        {
          "internalType": "address",
          "name": "spender",
          "type": "address"
        }
      ],
      "name": "allowance",
      "outputs": [
        {
          "internalType": "uint256",
          "name": "",
          "type": "uint256"
        }
      ],
      "stateMutability": "view",
      "type": "function"
    },
    {
      "inputs": [
        {
          "internalType": "address",
          "name": "spender",
          "type": "address"
        },
        {
          "internalType": "uint256",
          "name": "amount",
          "type": "uint256"
        }
      ],
      "name": "approve",
      "outputs": [
        {
          "internalType": "bool",
          "name": "",
          "type": "bool"
        }
      ],
      "stateMutability": "nonpayable",
      "type": "function"
    },
    {
      "inputs": [
        {
          "internalType": "address",
          "name": "account",
          "type": "address"
        }
      ],
      "name": "balanceOf",
      "outputs": [
        {
          "internalType": "uint256",
          "name": "",
          "type": "uint256"
        }
      ],
      "stateMutability": "view",
      "type": "function"
    },
    {
      "inputs": [],
      "name": "decimals",
      "outputs": [
        {
          "internalType": "uint8",
          "name": "",
          "type": "uint8"
        }
      ],
      "stateMutability": "view",
      "type": "function"
    },
    {
      "inputs": [
        {
          "internalType": "address",
          "name": "spender",
          "type": "address"
        },
        {
          "internalType": "uint256",
          "name": "subtractedValue",
          "type": "uint256"
        }
      ],
      "name": "decreaseAllowance",
      "outputs": [
        {
          "internalType": "bool",
          "name": "",
          "type": "bool"
        }
      ],
      "stateMutability": "nonpayable",
      "type": "function"
    },
    {
      "inputs": [
        {
          "internalType": "uint256",
          "name": "amount",
          "type": "uint256"
        }
      ],
      "name": "depositCollateral",
      "outputs": [],
      "stateMutability": "nonpayable",
      "type": "function"
    },
    {
      "inputs": [
        {
          "internalType": "address",
          "name": "spender",
          "type": "address"
        },
        {
          "internalType": "uint256",
          "name": "addedValue",
          "type": "uint256"
        }
      ],
      "name": "increaseAllowance",
      "outputs": [
        {
          "internalType": "bool",
          "name": "",
          "type": "bool"
        }
      ],
      "stateMutability": "nonpayable",
      "type": "function"
    },
    {
      "inputs": [
        {
          "internalType": "uint256",
          "name": "amount",
          "type": "uint256"
        }
      ],
      "name": "mint",
      "outputs": [],
      "stateMutability": "nonpayable",
      "type": "function"
    },
    {
      "inputs": [],
      "name": "name",
      "outputs": [
        {
          "internalType": "string",
          "name": "",
          "type": "string"
        }
      ],
      "stateMutability": "view",
      "type": "function"
    },
    {
      "inputs": [],
      "name": "symbol",
      "outputs": [
        {
          "internalType": "string",
          "name": "",
          "type": "string"
        }
      ],
      "stateMutability": "view",
      "type": "function"
    },
    {
      "inputs": [],
      "name": "totalSupply",
      "outputs": [
        {
          "internalType": "uint256",
          "name": "",
          "type": "uint256"
        }
      ],
      "stateMutability": "view",
      "type": "function"
    },
    {
      "inputs": [
        {
          "internalType": "address",
          "name": "to",
          "type": "address"
        },
        {
          "internalType": "uint256",
          "name": "amount",
          "type": "uint256"
        }
      ],
      "name": "transfer",
      "outputs": [
        {
          "internalType": "bool",
          "name": "",
          "type": "bool"
        }
      ],
      "stateMutability": "nonpayable",
      "type": "function"
    },
    {
      "inputs": [
        {
          "internalType": "address",
          "name": "from",
          "type": "address"
        },
        {
          "internalType": "address",
          "name": "to",
          "type": "address"
        },
        {
          "internalType": "uint256",
          "name": "amount",
          "type": "uint256"
        }
      ],
      "name": "transferFrom",
      "outputs": [
        {
          "internalType": "bool",
          "name": "",
          "type": "bool"
        }
      ],
      "stateMutability": "nonpayable",
      "type": "function"
    }
  ],
  "bytecode": "0x60c06040526005805460ff1916811790553480156200001d57600080fd5b506040516200188338038062001883833981016040819052620000409162000205565b8351849084906200005990600390602085019062000092565b5080516200006f90600490602084019062000092565b50505060ff9091166080526001600160a01b031660a052505043600655620002e6565b828054620000a090620002a9565b90600052602060002090601f016020900481019282620000c457600085556200010f565b82601f10620000df57805160ff19168380011785556200010f565b828001600101855582156200010f579182015b828111156200010f578251825591602001919060010190620000f2565b506200011d92915062000121565b5090565b5b808211156200011d576000815560010162000122565b634e487b7160e01b600052604160045260246000fd5b600082601f8301126200016057600080fd5b81516001600160401b03808211156200017d576200017d62000138565b604051601f8301601f19908116603f01168101908282118183101715620001a857620001a862000138565b81604052838152602092508683858801011115620001c557600080fd5b600091505b83821015620001e95785820183015181830184015290820190620001ca565b83821115620001fb5760008385830101525b9695505050505050565b600080600080608085870312156200021c57600080fd5b84516001600160401b03808211156200023457600080fd5b62000242888389016200014e565b955060208701519150808211156200025957600080fd5b5062000268878288016200014e565b935050604085015160ff811681146200028057600080fd5b60608601519092506001600160a01b03811681146200029e57600080fd5b939692955090935050565b600181811c90821680620002be57607f821691505b60208210811415620002e057634e487b7160e01b600052602260045260246000fd5b50919050565b60805160a0516115546200032f600039600081816103c1015281816104d5015281816105bf015281816106590152818161078201526107cd0152600061015c01526115546000f3fe608060405234801561001057600080fd5b50600436106100ea5760003560e01c806395d89b411161008c578063a6afed9511610066578063a6afed95146101f2578063a9059cbb146101fa578063bad4a01f1461020d578063dd62ed3e1461022057600080fd5b806395d89b41146101c2578063a0712d68146101ca578063a457c2d7146101df57600080fd5b806323b872dd116100c857806323b872dd14610142578063313ce56714610155578063395093511461018657806370a082311461019957600080fd5b806306fdde03146100ef578063095ea7b31461010d57806318160ddd14610130575b600080fd5b6100f7610259565b60405161010491906112ea565b60405180910390f35b61012061011b366004611339565b6102eb565b6040519015158152602001610104565b6002545b604051908152602001610104565b610120610150366004611363565b610303565b60405160ff7f0000000000000000000000000000000000000000000000000000000000000000168152602001610104565b610120610194366004611339565b610329565b6101346101a736600461139f565b6001600160a01b031660009081526020819052604090205490565b6100f7610368565b6101dd6101d83660046113ba565b610377565b005b6101206101ed366004611339565b6103f5565b6101346104af565b610120610208366004611339565b610735565b6101dd61021b3660046113ba565b610743565b61013461022e3660046113d3565b6001600160a01b03918216600090815260016020908152604080832093909416825291909152205490565b60606003805461026890611406565b80601f016020809104026020016040519081016040528092919081815260200182805461029490611406565b80156102e15780601f106102b6576101008083540402835291602001916102e1565b820191906000526020600020905b8154815290600101906020018083116102c457829003601f168201915b5050505050905090565b6000336102f98185856107fd565b5060019392505050565b600033610311858285610955565b61031c8585856109e7565b60019150505b9392505050565b3360008181526001602090815260408083206001600160a01b03871684529091528120549091906102f99082908690610363908790611457565b6107fd565b60606004805461026890611406565b61037f6104af565b5061038b600854610bfe565b6040805180820182526007548152436020808301918252336000818152600990925293902091518255516001909101556103e8907f0000000000000000000000000000000000000000000000000000000000000000903084610c5c565b6103f23382610cf8565b50565b3360008181526001602090815260408083206001600160a01b0387168452909152812054909190838110156104975760405162461bcd60e51b815260206004820152602560248201527f45524332303a2064656372656173656420616c6c6f77616e63652062656c6f7760448201527f207a65726f00000000000000000000000000000000000000000000000000000060648201526084015b60405180910390fd5b6104a482868684036107fd565b506001949350505050565b60004360065414156104c057600080fd5b6040516370a0823160e01b81523060048201527f00000000000000000000000000000000000000000000000000000000000000006001600160a01b0316906370a0823190602401602060405180830381865afa158015610524573d6000803e3d6000fd5b505050506040513d601f19601f82011682018060405250810190610548919061146f565b610556575043600655600090565b6000600654436105669190611488565b90506105a66040518060400160405280600a81526020017f44414920616d6f756e7400000000000000000000000000000000000000000000815250610dd7565b6040516370a0823160e01b8152306004820152610637907f00000000000000000000000000000000000000000000000000000000000000006001600160a01b0316906370a0823190602401602060405180830381865afa15801561060e573d6000803e3d6000fd5b505050506040513d601f19601f82011682018060405250810190610632919061146f565b610bfe565b6005546040516370a0823160e01b8152306004820152630faa02809160ff16907f00000000000000000000000000000000000000000000000000000000000000006001600160a01b0316906370a0823190602401602060405180830381865afa1580156106a8573d6000803e3d6000fd5b505050506040513d601f19601f820116820180604052508101906106cc919061146f565b6106d6908461149f565b6106e0919061149f565b6106ea91906114be565b6005549092506106fd9060ff168261149f565b6007600082825461070e9190611457565b9091555061071d905082610bfe565b610728600754610bfe565b61073182610e33565b5090565b6000336102f98185856109e7565b61074b6104af565b50336000908152602081905260409020548114156107c857336000818152600960205260408120818155600101819055906107b1907f0000000000000000000000000000000000000000000000000000000000000000906107ac8486611457565b610e4d565b6107c4336107bf8385611457565b610e9b565b5050565b6107f37f00000000000000000000000000000000000000000000000000000000000000003383610e4d565b6103f23382610e9b565b6001600160a01b0383166108785760405162461bcd60e51b8152602060048201526024808201527f45524332303a20617070726f76652066726f6d20746865207a65726f2061646460448201527f7265737300000000000000000000000000000000000000000000000000000000606482015260840161048e565b6001600160a01b0382166108f45760405162461bcd60e51b815260206004820152602260248201527f45524332303a20617070726f766520746f20746865207a65726f20616464726560448201527f7373000000000000000000000000000000000000000000000000000000000000606482015260840161048e565b6001600160a01b0383811660008181526001602090815260408083209487168084529482529182902085905590518481527f8c5be1e5ebec7d5bd14f71427d1e84f3dd0314c0f7b2291e5b200ac8c7c3b925910160405180910390a3505050565b6001600160a01b0383811660009081526001602090815260408083209386168352929052205460001981146109e157818110156109d45760405162461bcd60e51b815260206004820152601d60248201527f45524332303a20696e73756666696369656e7420616c6c6f77616e6365000000604482015260640161048e565b6109e184848484036107fd565b50505050565b6001600160a01b038316610a635760405162461bcd60e51b815260206004820152602560248201527f45524332303a207472616e736665722066726f6d20746865207a65726f20616460448201527f6472657373000000000000000000000000000000000000000000000000000000606482015260840161048e565b6001600160a01b038216610adf5760405162461bcd60e51b815260206004820152602360248201527f45524332303a207472616e7366657220746f20746865207a65726f206164647260448201527f6573730000000000000000000000000000000000000000000000000000000000606482015260840161048e565b6001600160a01b03831660009081526020819052604090205481811015610b6e5760405162461bcd60e51b815260206004820152602660248201527f45524332303a207472616e7366657220616d6f756e742065786365656473206260448201527f616c616e63650000000000000000000000000000000000000000000000000000606482015260840161048e565b6001600160a01b03808516600090815260208190526040808220858503905591851681529081208054849290610ba5908490611457565b92505081905550826001600160a01b0316846001600160a01b03167fddf252ad1be2c89b69c2b068fc378daa952ba7f163c4a11628f55a4df523b3ef84604051610bf191815260200190565b60405180910390a36109e1565b6103f281604051602401610c1491815260200190565b60408051601f198184030181529190526020810180516001600160e01b03167ff5b1bba900000000000000000000000000000000000000000000000000000000179052611020565b6040516001600160a01b03808516602483015283166044820152606481018290526109e19085907f23b872dd00000000000000000000000000000000000000000000000000000000906084015b60408051601f198184030181529190526020810180516001600160e01b03167fffffffff0000000000000000000000000000000000000000000000000000000090931692909217909152611041565b6001600160a01b038216610d4e5760405162461bcd60e51b815260206004820152601f60248201527f45524332303a206d696e7420746f20746865207a65726f206164647265737300604482015260640161048e565b8060026000828254610d609190611457565b90915550506001600160a01b03821660009081526020819052604081208054839290610d8d908490611457565b90915550506040518181526001600160a01b038316906000907fddf252ad1be2c89b69c2b068fc378daa952ba7f163c4a11628f55a4df523b3ef9060200160405180910390a35050565b6103f281604051602401610deb91906112ea565b60408051601f198184030181529190526020810180516001600160e01b03167f41304fac00000000000000000000000000000000000000000000000000000000179052611020565b8060086000828254610e459190611457565b909155505050565b6040516001600160a01b038316602482015260448101829052610e969084907fa9059cbb0000000000000000000000000000000000000000000000000000000090606401610ca9565b505050565b6001600160a01b038216610f175760405162461bcd60e51b815260206004820152602160248201527f45524332303a206275726e2066726f6d20746865207a65726f2061646472657360448201527f7300000000000000000000000000000000000000000000000000000000000000606482015260840161048e565b6001600160a01b03821660009081526020819052604090205481811015610fa65760405162461bcd60e51b815260206004820152602260248201527f45524332303a206275726e20616d6f756e7420657863656564732062616c616e60448201527f6365000000000000000000000000000000000000000000000000000000000000606482015260840161048e565b6001600160a01b0383166000908152602081905260408120838303905560028054849290610fd5908490611488565b90915550506040518281526000906001600160a01b038516907fddf252ad1be2c89b69c2b068fc378daa952ba7f163c4a11628f55a4df523b3ef9060200160405180910390a3505050565b80516a636f6e736f6c652e6c6f67602083016000808483855afa5050505050565b6000611096826040518060400160405280602081526020017f5361666545524332303a206c6f772d6c6576656c2063616c6c206661696c6564815250856001600160a01b03166111269092919063ffffffff16565b805190915015610e9657808060200190518101906110b491906114e0565b610e965760405162461bcd60e51b815260206004820152602a60248201527f5361666545524332303a204552433230206f7065726174696f6e20646964206e60448201527f6f74207375636365656400000000000000000000000000000000000000000000606482015260840161048e565b6060611135848460008561113d565b949350505050565b6060824710156111b55760405162461bcd60e51b815260206004820152602660248201527f416464726573733a20696e73756666696369656e742062616c616e636520666f60448201527f722063616c6c0000000000000000000000000000000000000000000000000000606482015260840161048e565b6001600160a01b0385163b61120c5760405162461bcd60e51b815260206004820152601d60248201527f416464726573733a2063616c6c20746f206e6f6e2d636f6e7472616374000000604482015260640161048e565b600080866001600160a01b031685876040516112289190611502565b60006040518083038185875af1925050503d8060008114611265576040519150601f19603f3d011682016040523d82523d6000602084013e61126a565b606091505b509150915061127a828286611285565b979650505050505050565b60608315611294575081610322565b8251156112a45782518084602001fd5b8160405162461bcd60e51b815260040161048e91906112ea565b60005b838110156112d95781810151838201526020016112c1565b838111156109e15750506000910152565b60208152600082518060208401526113098160408501602087016112be565b601f01601f19169190910160400192915050565b80356001600160a01b038116811461133457600080fd5b919050565b6000806040838503121561134c57600080fd5b6113558361131d565b946020939093013593505050565b60008060006060848603121561137857600080fd5b6113818461131d565b925061138f6020850161131d565b9150604084013590509250925092565b6000602082840312156113b157600080fd5b6103228261131d565b6000602082840312156113cc57600080fd5b5035919050565b600080604083850312156113e657600080fd5b6113ef8361131d565b91506113fd6020840161131d565b90509250929050565b600181811c9082168061141a57607f821691505b6020821081141561143b57634e487b7160e01b600052602260045260246000fd5b50919050565b634e487b7160e01b600052601160045260246000fd5b6000821982111561146a5761146a611441565b500190565b60006020828403121561148157600080fd5b5051919050565b60008282101561149a5761149a611441565b500390565b60008160001904831182151516156114b9576114b9611441565b500290565b6000826114db57634e487b7160e01b600052601260045260246000fd5b500490565b6000602082840312156114f257600080fd5b8151801515811461032257600080fd5b600082516115148184602087016112be565b919091019291505056fea26469706673582212204f5cd33b9f5d0df2ef3140f3b60eed257cda399f5e115e634e7fd6a8cace5ad664736f6c634300080a0033",
  "linkReferences": {},
  "deployedLinkReferences": {}
}