{
  "_format": "hh-sol-artifact-1",
  "contractName": "nERC20",
  "sourceName": "contracts/nERC20.sol",
  "abi": [
    {
      "inputs": [
        {
          "internalType": "string",
          "name": "name_",
          "type": "string"
        },
        {
          "internalType": "string",
          "name": "symbol_",
          "type": "string"
        },
        {
          "internalType": "uint8",
          "name": "decimals_",
          "type": "uint8"
        },
        {
          "internalType": "contract IERC20",
          "name": "tokenAddress_",
          "type": "address"
        }
      ],
      "stateMutability": "nonpayable",
      "type": "constructor"
    },
    {
      "anonymous": false,
      "inputs": [
        {
          "indexed": true,
          "internalType": "address",
          "name": "owner",
          "type": "address"
        },
        {
          "indexed": true,
          "internalType": "address",
          "name": "spender",
          "type": "address"
        },
        {
          "indexed": false,
          "internalType": "uint256",
          "name": "value",
          "type": "uint256"
        }
      ],
      "name": "Approval",
      "type": "event"
    },
    {
      "anonymous": false,
      "inputs": [
        {
          "indexed": true,
          "internalType": "address",
          "name": "from",
          "type": "address"
        },
        {
          "indexed": true,
          "internalType": "address",
          "name": "to",
          "type": "address"
        },
        {
          "indexed": false,
          "internalType": "uint256",
          "name": "value",
          "type": "uint256"
        }
      ],
      "name": "Transfer",
      "type": "event"
    },
    {
      "inputs": [
        {
          "internalType": "address",
          "name": "account",
          "type": "address"
        }
      ],
      "name": "accrueInterest",
      "outputs": [
        {
          "internalType": "uint256",
          "name": "accruedInterestAmount",
          "type": "uint256"
        }
      ],
      "stateMutability": "nonpayable",
      "type": "function"
    },
    {
      "inputs": [
        {
          "internalType": "address",
          "name": "owner",
          "type": "address"
        },
        {
          "internalType": "address",
          "name": "spender",
          "type": "address"
        }
      ],
      "name": "allowance",
      "outputs": [
        {
          "internalType": "uint256",
          "name": "",
          "type": "uint256"
        }
      ],
      "stateMutability": "view",
      "type": "function"
    },
    {
      "inputs": [
        {
          "internalType": "address",
          "name": "spender",
          "type": "address"
        },
        {
          "internalType": "uint256",
          "name": "amount",
          "type": "uint256"
        }
      ],
      "name": "approve",
      "outputs": [
        {
          "internalType": "bool",
          "name": "",
          "type": "bool"
        }
      ],
      "stateMutability": "nonpayable",
      "type": "function"
    },
    {
      "inputs": [
        {
          "internalType": "address",
          "name": "account",
          "type": "address"
        }
      ],
      "name": "balanceOf",
      "outputs": [
        {
          "internalType": "uint256",
          "name": "",
          "type": "uint256"
        }
      ],
      "stateMutability": "view",
      "type": "function"
    },
    {
      "inputs": [],
      "name": "decimals",
      "outputs": [
        {
          "internalType": "uint8",
          "name": "",
          "type": "uint8"
        }
      ],
      "stateMutability": "view",
      "type": "function"
    },
    {
      "inputs": [
        {
          "internalType": "address",
          "name": "spender",
          "type": "address"
        },
        {
          "internalType": "uint256",
          "name": "subtractedValue",
          "type": "uint256"
        }
      ],
      "name": "decreaseAllowance",
      "outputs": [
        {
          "internalType": "bool",
          "name": "",
          "type": "bool"
        }
      ],
      "stateMutability": "nonpayable",
      "type": "function"
    },
    {
      "inputs": [
        {
          "internalType": "uint256",
          "name": "amount",
          "type": "uint256"
        }
      ],
      "name": "depositCollateral",
      "outputs": [],
      "stateMutability": "nonpayable",
      "type": "function"
    },
    {
      "inputs": [
        {
          "internalType": "address",
          "name": "spender",
          "type": "address"
        },
        {
          "internalType": "uint256",
          "name": "addedValue",
          "type": "uint256"
        }
      ],
      "name": "increaseAllowance",
      "outputs": [
        {
          "internalType": "bool",
          "name": "",
          "type": "bool"
        }
      ],
      "stateMutability": "nonpayable",
      "type": "function"
    },
    {
      "inputs": [
        {
          "internalType": "uint256",
          "name": "amount",
          "type": "uint256"
        }
      ],
      "name": "mint",
      "outputs": [],
      "stateMutability": "nonpayable",
      "type": "function"
    },
    {
      "inputs": [],
      "name": "name",
      "outputs": [
        {
          "internalType": "string",
          "name": "",
          "type": "string"
        }
      ],
      "stateMutability": "view",
      "type": "function"
    },
    {
      "inputs": [],
      "name": "symbol",
      "outputs": [
        {
          "internalType": "string",
          "name": "",
          "type": "string"
        }
      ],
      "stateMutability": "view",
      "type": "function"
    },
    {
      "inputs": [],
      "name": "totalSupply",
      "outputs": [
        {
          "internalType": "uint256",
          "name": "",
          "type": "uint256"
        }
      ],
      "stateMutability": "view",
      "type": "function"
    },
    {
      "inputs": [
        {
          "internalType": "address",
          "name": "to",
          "type": "address"
        },
        {
          "internalType": "uint256",
          "name": "amount",
          "type": "uint256"
        }
      ],
      "name": "transfer",
      "outputs": [
        {
          "internalType": "bool",
          "name": "",
          "type": "bool"
        }
      ],
      "stateMutability": "nonpayable",
      "type": "function"
    },
    {
      "inputs": [
        {
          "internalType": "address",
          "name": "from",
          "type": "address"
        },
        {
          "internalType": "address",
          "name": "to",
          "type": "address"
        },
        {
          "internalType": "uint256",
          "name": "amount",
          "type": "uint256"
        }
      ],
      "name": "transferFrom",
      "outputs": [
        {
          "internalType": "bool",
          "name": "",
          "type": "bool"
        }
      ],
      "stateMutability": "nonpayable",
      "type": "function"
    }
  ],
  "bytecode": "0x60806040526005805460ff60a81b1916600560a81b1790553480156200002457600080fd5b50604051620015a4380380620015a4833981016040819052620000479162000227565b83518490849062000060906003906020850190620000b4565b50805162000076906004906020840190620000b4565b5050600580546001600160a01b03909316610100026001600160a81b031990931660ff90941693909317919091179091555050436006555062000308565b828054620000c290620002cb565b90600052602060002090601f016020900481019282620000e6576000855562000131565b82601f106200010157805160ff191683800117855562000131565b8280016001018555821562000131579182015b828111156200013157825182559160200191906001019062000114565b506200013f92915062000143565b5090565b5b808211156200013f576000815560010162000144565b634e487b7160e01b600052604160045260246000fd5b600082601f8301126200018257600080fd5b81516001600160401b03808211156200019f576200019f6200015a565b604051601f8301601f19908116603f01168101908282118183101715620001ca57620001ca6200015a565b81604052838152602092508683858801011115620001e757600080fd5b600091505b838210156200020b5785820183015181830184015290820190620001ec565b838211156200021d5760008385830101525b9695505050505050565b600080600080608085870312156200023e57600080fd5b84516001600160401b03808211156200025657600080fd5b620002648883890162000170565b955060208701519150808211156200027b57600080fd5b506200028a8782880162000170565b935050604085015160ff81168114620002a257600080fd5b60608601519092506001600160a01b0381168114620002c057600080fd5b939692955090935050565b600181811c90821680620002e057607f821691505b602082108114156200030257634e487b7160e01b600052602260045260246000fd5b50919050565b61128c80620003186000396000f3fe608060405234801561001057600080fd5b50600436106100ea5760003560e01c80639198e5151161008c578063a457c2d711610066578063a457c2d7146101d6578063a9059cbb146101e9578063bad4a01f146101fc578063dd62ed3e1461020f57600080fd5b80639198e515146101a657806395d89b41146101b9578063a0712d68146101c157600080fd5b806323b872dd116100c857806323b872dd14610142578063313ce56714610155578063395093511461016a57806370a082311461017d57600080fd5b806306fdde03146100ef578063095ea7b31461010d57806318160ddd14610130575b600080fd5b6100f7610248565b604051610104919061103b565b60405180910390f35b61012061011b36600461108a565b6102da565b6040519015158152602001610104565b6002545b604051908152602001610104565b6101206101503660046110b4565b6102f2565b60055460405160ff9091168152602001610104565b61012061017836600461108a565b610318565b61013461018b3660046110f0565b6001600160a01b031660009081526020819052604090205490565b6101346101b43660046110f0565b610357565b6100f761045f565b6101d46101cf36600461110b565b61046e565b005b6101206101e436600461108a565b6104c8565b6101206101f736600461108a565b610582565b6101d461020a36600461110b565b610590565b61013461021d366004611124565b6001600160a01b03918216600090815260016020908152604080832093909416825291909152205490565b60606003805461025790611157565b80601f016020809104026020016040519081016040528092919081815260200182805461028390611157565b80156102d05780601f106102a5576101008083540402835291602001916102d0565b820191906000526020600020905b8154815290600101906020018083116102b357829003601f168201915b5050505050905090565b6000336102e881858561062e565b5060019392505050565b600033610300858285610786565b61030b858585610818565b60019150505b9392505050565b3360008181526001602090815260408083206001600160a01b03871684529091528120549091906102e890829086906103529087906111a8565b61062e565b3360009081526007602090815260408083208151808301909252805480835260019091015492820192909252904314156103945750600092915050565b80516000906103a390436111c0565b600554909150630faa02809060ff7501000000000000000000000000000000000000000000909104166103eb866001600160a01b031660009081526020819052604090205490565b6103f590846111d7565b6103ff91906111d7565b61040991906111f6565b92506104153084610a2f565b604051806040016040528043815260200184846020015161043691906111a8565b905233600090815260076020908152604090912082518155910151600190910155509092915050565b60606004805461025790611157565b60408051808201825243815260006020808301828152338084526007909252939091209151825591516001909101556005546104bb916101009091046001600160a01b0316903084610b0e565b6104c53382610a2f565b50565b3360008181526001602090815260408083206001600160a01b03871684529091528120549091908381101561056a5760405162461bcd60e51b815260206004820152602560248201527f45524332303a2064656372656173656420616c6c6f77616e63652062656c6f7760448201527f207a65726f00000000000000000000000000000000000000000000000000000060648201526084015b60405180910390fd5b610577828686840361062e565b506001949350505050565b6000336102e8818585610818565b600061059b33610357565b3360009081526020819052604090205490915082141561060857336000818152600760205260408120818155600101556005546105f1916101009091046001600160a01b0316906105ec84866111a8565b610bbf565b610604336105ff83856111a8565b610c0d565b5050565b6005546106249061010090046001600160a01b03163384610bbf565b6106043383610c0d565b6001600160a01b0383166106a95760405162461bcd60e51b8152602060048201526024808201527f45524332303a20617070726f76652066726f6d20746865207a65726f2061646460448201527f72657373000000000000000000000000000000000000000000000000000000006064820152608401610561565b6001600160a01b0382166107255760405162461bcd60e51b815260206004820152602260248201527f45524332303a20617070726f766520746f20746865207a65726f20616464726560448201527f73730000000000000000000000000000000000000000000000000000000000006064820152608401610561565b6001600160a01b0383811660008181526001602090815260408083209487168084529482529182902085905590518481527f8c5be1e5ebec7d5bd14f71427d1e84f3dd0314c0f7b2291e5b200ac8c7c3b925910160405180910390a3505050565b6001600160a01b03838116600090815260016020908152604080832093861683529290522054600019811461081257818110156108055760405162461bcd60e51b815260206004820152601d60248201527f45524332303a20696e73756666696369656e7420616c6c6f77616e63650000006044820152606401610561565b610812848484840361062e565b50505050565b6001600160a01b0383166108945760405162461bcd60e51b815260206004820152602560248201527f45524332303a207472616e736665722066726f6d20746865207a65726f20616460448201527f64726573730000000000000000000000000000000000000000000000000000006064820152608401610561565b6001600160a01b0382166109105760405162461bcd60e51b815260206004820152602360248201527f45524332303a207472616e7366657220746f20746865207a65726f206164647260448201527f65737300000000000000000000000000000000000000000000000000000000006064820152608401610561565b6001600160a01b0383166000908152602081905260409020548181101561099f5760405162461bcd60e51b815260206004820152602660248201527f45524332303a207472616e7366657220616d6f756e742065786365656473206260448201527f616c616e636500000000000000000000000000000000000000000000000000006064820152608401610561565b6001600160a01b038085166000908152602081905260408082208585039055918516815290812080548492906109d69084906111a8565b92505081905550826001600160a01b0316846001600160a01b03167fddf252ad1be2c89b69c2b068fc378daa952ba7f163c4a11628f55a4df523b3ef84604051610a2291815260200190565b60405180910390a3610812565b6001600160a01b038216610a855760405162461bcd60e51b815260206004820152601f60248201527f45524332303a206d696e7420746f20746865207a65726f2061646472657373006044820152606401610561565b8060026000828254610a9791906111a8565b90915550506001600160a01b03821660009081526020819052604081208054839290610ac49084906111a8565b90915550506040518181526001600160a01b038316906000907fddf252ad1be2c89b69c2b068fc378daa952ba7f163c4a11628f55a4df523b3ef9060200160405180910390a35050565b6040516001600160a01b03808516602483015283166044820152606481018290526108129085907f23b872dd00000000000000000000000000000000000000000000000000000000906084015b60408051601f198184030181529190526020810180517bffffffffffffffffffffffffffffffffffffffffffffffffffffffff167fffffffff0000000000000000000000000000000000000000000000000000000090931692909217909152610d92565b6040516001600160a01b038316602482015260448101829052610c089084907fa9059cbb0000000000000000000000000000000000000000000000000000000090606401610b5b565b505050565b6001600160a01b038216610c895760405162461bcd60e51b815260206004820152602160248201527f45524332303a206275726e2066726f6d20746865207a65726f2061646472657360448201527f73000000000000000000000000000000000000000000000000000000000000006064820152608401610561565b6001600160a01b03821660009081526020819052604090205481811015610d185760405162461bcd60e51b815260206004820152602260248201527f45524332303a206275726e20616d6f756e7420657863656564732062616c616e60448201527f63650000000000000000000000000000000000000000000000000000000000006064820152608401610561565b6001600160a01b0383166000908152602081905260408120838303905560028054849290610d479084906111c0565b90915550506040518281526000906001600160a01b038516907fddf252ad1be2c89b69c2b068fc378daa952ba7f163c4a11628f55a4df523b3ef9060200160405180910390a3505050565b6000610de7826040518060400160405280602081526020017f5361666545524332303a206c6f772d6c6576656c2063616c6c206661696c6564815250856001600160a01b0316610e779092919063ffffffff16565b805190915015610c085780806020019051810190610e059190611218565b610c085760405162461bcd60e51b815260206004820152602a60248201527f5361666545524332303a204552433230206f7065726174696f6e20646964206e60448201527f6f742073756363656564000000000000000000000000000000000000000000006064820152608401610561565b6060610e868484600085610e8e565b949350505050565b606082471015610f065760405162461bcd60e51b815260206004820152602660248201527f416464726573733a20696e73756666696369656e742062616c616e636520666f60448201527f722063616c6c00000000000000000000000000000000000000000000000000006064820152608401610561565b6001600160a01b0385163b610f5d5760405162461bcd60e51b815260206004820152601d60248201527f416464726573733a2063616c6c20746f206e6f6e2d636f6e74726163740000006044820152606401610561565b600080866001600160a01b03168587604051610f79919061123a565b60006040518083038185875af1925050503d8060008114610fb6576040519150601f19603f3d011682016040523d82523d6000602084013e610fbb565b606091505b5091509150610fcb828286610fd6565b979650505050505050565b60608315610fe5575081610311565b825115610ff55782518084602001fd5b8160405162461bcd60e51b8152600401610561919061103b565b60005b8381101561102a578181015183820152602001611012565b838111156108125750506000910152565b602081526000825180602084015261105a81604085016020870161100f565b601f01601f19169190910160400192915050565b80356001600160a01b038116811461108557600080fd5b919050565b6000806040838503121561109d57600080fd5b6110a68361106e565b946020939093013593505050565b6000806000606084860312156110c957600080fd5b6110d28461106e565b92506110e06020850161106e565b9150604084013590509250925092565b60006020828403121561110257600080fd5b6103118261106e565b60006020828403121561111d57600080fd5b5035919050565b6000806040838503121561113757600080fd5b6111408361106e565b915061114e6020840161106e565b90509250929050565b600181811c9082168061116b57607f821691505b6020821081141561118c57634e487b7160e01b600052602260045260246000fd5b50919050565b634e487b7160e01b600052601160045260246000fd5b600082198211156111bb576111bb611192565b500190565b6000828210156111d2576111d2611192565b500390565b60008160001904831182151516156111f1576111f1611192565b500290565b60008261121357634e487b7160e01b600052601260045260246000fd5b500490565b60006020828403121561122a57600080fd5b8151801515811461031157600080fd5b6000825161124c81846020870161100f565b919091019291505056fea2646970667358221220595785400724471d012473c2c15fd1fb1ad360a34ade663247ee168599d84c7664736f6c634300080a0033",
  "linkReferences": {},
  "deployedLinkReferences": {}
}