{
  "_format": "hh-sol-artifact-1",
  "contractName": "NERC20",
  "sourceName": "contracts/NERC20.sol",
  "abi": [
    {
      "inputs": [
        {
          "internalType": "string",
          "name": "name_",
          "type": "string"
        },
        {
          "internalType": "string",
          "name": "symbol_",
          "type": "string"
        },
        {
          "internalType": "uint8",
          "name": "decimals_",
          "type": "uint8"
        },
        {
          "internalType": "contract IERC20",
          "name": "tokenAddress_",
          "type": "address"
        }
      ],
      "stateMutability": "nonpayable",
      "type": "constructor"
    },
    {
      "anonymous": false,
      "inputs": [
        {
          "indexed": true,
          "internalType": "address",
          "name": "owner",
          "type": "address"
        },
        {
          "indexed": true,
          "internalType": "address",
          "name": "spender",
          "type": "address"
        },
        {
          "indexed": false,
          "internalType": "uint256",
          "name": "value",
          "type": "uint256"
        }
      ],
      "name": "Approval",
      "type": "event"
    },
    {
      "anonymous": false,
      "inputs": [
        {
          "indexed": true,
          "internalType": "address",
          "name": "from",
          "type": "address"
        },
        {
          "indexed": true,
          "internalType": "address",
          "name": "to",
          "type": "address"
        },
        {
          "indexed": false,
          "internalType": "uint256",
          "name": "value",
          "type": "uint256"
        }
      ],
      "name": "Transfer",
      "type": "event"
    },
    {
      "inputs": [],
      "name": "accrueInterest",
      "outputs": [
        {
          "internalType": "uint256",
          "name": "accruedInterestAmount",
          "type": "uint256"
        }
      ],
      "stateMutability": "nonpayable",
      "type": "function"
    },
    {
      "inputs": [
        {
          "internalType": "address",
          "name": "owner",
          "type": "address"
        },
        {
          "internalType": "address",
          "name": "spender",
          "type": "address"
        }
      ],
      "name": "allowance",
      "outputs": [
        {
          "internalType": "uint256",
          "name": "",
          "type": "uint256"
        }
      ],
      "stateMutability": "view",
      "type": "function"
    },
    {
      "inputs": [
        {
          "internalType": "address",
          "name": "spender",
          "type": "address"
        },
        {
          "internalType": "uint256",
          "name": "amount",
          "type": "uint256"
        }
      ],
      "name": "approve",
      "outputs": [
        {
          "internalType": "bool",
          "name": "",
          "type": "bool"
        }
      ],
      "stateMutability": "nonpayable",
      "type": "function"
    },
    {
      "inputs": [
        {
          "internalType": "address",
          "name": "account",
          "type": "address"
        }
      ],
      "name": "balanceOf",
      "outputs": [
        {
          "internalType": "uint256",
          "name": "",
          "type": "uint256"
        }
      ],
      "stateMutability": "view",
      "type": "function"
    },
    {
      "inputs": [
        {
          "internalType": "uint256",
          "name": "amount",
          "type": "uint256"
        },
        {
          "internalType": "uint256",
          "name": "nftCollateral",
          "type": "uint256"
        }
      ],
      "name": "borrowTokens",
      "outputs": [],
      "stateMutability": "nonpayable",
      "type": "function"
    },
    {
      "inputs": [],
      "name": "claimAccruedTokens",
      "outputs": [],
      "stateMutability": "nonpayable",
      "type": "function"
    },
    {
      "inputs": [],
      "name": "decimals",
      "outputs": [
        {
          "internalType": "uint8",
          "name": "",
          "type": "uint8"
        }
      ],
      "stateMutability": "view",
      "type": "function"
    },
    {
      "inputs": [
        {
          "internalType": "address",
          "name": "spender",
          "type": "address"
        },
        {
          "internalType": "uint256",
          "name": "subtractedValue",
          "type": "uint256"
        }
      ],
      "name": "decreaseAllowance",
      "outputs": [
        {
          "internalType": "bool",
          "name": "",
          "type": "bool"
        }
      ],
      "stateMutability": "nonpayable",
      "type": "function"
    },
    {
      "inputs": [
        {
          "internalType": "address",
          "name": "spender",
          "type": "address"
        },
        {
          "internalType": "uint256",
          "name": "addedValue",
          "type": "uint256"
        }
      ],
      "name": "increaseAllowance",
      "outputs": [
        {
          "internalType": "bool",
          "name": "",
          "type": "bool"
        }
      ],
      "stateMutability": "nonpayable",
      "type": "function"
    },
    {
      "inputs": [],
      "name": "name",
      "outputs": [
        {
          "internalType": "string",
          "name": "",
          "type": "string"
        }
      ],
      "stateMutability": "view",
      "type": "function"
    },
    {
      "inputs": [
        {
          "internalType": "uint256",
          "name": "amount",
          "type": "uint256"
        }
      ],
      "name": "repayBorrowAmount",
      "outputs": [],
      "stateMutability": "nonpayable",
      "type": "function"
    },
    {
      "inputs": [],
      "name": "repayFullBorrowAmount",
      "outputs": [],
      "stateMutability": "nonpayable",
      "type": "function"
    },
    {
      "inputs": [
        {
          "internalType": "uint256",
          "name": "amount",
          "type": "uint256"
        }
      ],
      "name": "supplyTokens",
      "outputs": [],
      "stateMutability": "nonpayable",
      "type": "function"
    },
    {
      "inputs": [],
      "name": "symbol",
      "outputs": [
        {
          "internalType": "string",
          "name": "",
          "type": "string"
        }
      ],
      "stateMutability": "view",
      "type": "function"
    },
    {
      "inputs": [],
      "name": "totalAmountBorrowed",
      "outputs": [
        {
          "internalType": "uint256",
          "name": "",
          "type": "uint256"
        }
      ],
      "stateMutability": "view",
      "type": "function"
    },
    {
      "inputs": [],
      "name": "totalSupply",
      "outputs": [
        {
          "internalType": "uint256",
          "name": "",
          "type": "uint256"
        }
      ],
      "stateMutability": "view",
      "type": "function"
    },
    {
      "inputs": [
        {
          "internalType": "address",
          "name": "to",
          "type": "address"
        },
        {
          "internalType": "uint256",
          "name": "amount",
          "type": "uint256"
        }
      ],
      "name": "transfer",
      "outputs": [
        {
          "internalType": "bool",
          "name": "",
          "type": "bool"
        }
      ],
      "stateMutability": "nonpayable",
      "type": "function"
    },
    {
      "inputs": [
        {
          "internalType": "address",
          "name": "from",
          "type": "address"
        },
        {
          "internalType": "address",
          "name": "to",
          "type": "address"
        },
        {
          "internalType": "uint256",
          "name": "amount",
          "type": "uint256"
        }
      ],
      "name": "transferFrom",
      "outputs": [
        {
          "internalType": "bool",
          "name": "",
          "type": "bool"
        }
      ],
      "stateMutability": "nonpayable",
      "type": "function"
    },
    {
      "inputs": [],
      "name": "viewAccruedTokensAmount",
      "outputs": [
        {
          "internalType": "uint256",
          "name": "accruedTokenAmount",
          "type": "uint256"
        }
      ],
      "stateMutability": "view",
      "type": "function"
    },
    {
      "inputs": [],
      "name": "viewBorrowAccruedTokensAmount",
      "outputs": [
        {
          "internalType": "uint256",
          "name": "accruedTokenAmount",
          "type": "uint256"
        }
      ],
      "stateMutability": "view",
      "type": "function"
    },
    {
      "inputs": [
        {
          "internalType": "uint256",
          "name": "amount",
          "type": "uint256"
        }
      ],
      "name": "withdrawTokens",
      "outputs": [],
      "stateMutability": "nonpayable",
      "type": "function"
    }
  ],
  "bytecode": "0x60c06040526005805461ffff1916610c05179055600c80546001600160a81b0319163060ff60a01b191617600160a01b1790553480156200003f57600080fd5b506040516200247038038062002470833981016040819052620000629162000227565b8351849084906200007b906003906020850190620000b4565b50805162000091906004906020840190620000b4565b50505060ff9091166080526001600160a01b031660a05250504360075562000308565b828054620000c290620002cb565b90600052602060002090601f016020900481019282620000e6576000855562000131565b82601f106200010157805160ff191683800117855562000131565b8280016001018555821562000131579182015b828111156200013157825182559160200191906001019062000114565b506200013f92915062000143565b5090565b5b808211156200013f576000815560010162000144565b634e487b7160e01b600052604160045260246000fd5b600082601f8301126200018257600080fd5b81516001600160401b03808211156200019f576200019f6200015a565b604051601f8301601f19908116603f01168101908282118183101715620001ca57620001ca6200015a565b81604052838152602092508683858801011115620001e757600080fd5b600091505b838210156200020b5785820183015181830184015290820190620001ec565b838211156200021d5760008385830101525b9695505050505050565b600080600080608085870312156200023e57600080fd5b84516001600160401b03808211156200025657600080fd5b620002648883890162000170565b955060208701519150808211156200027b57600080fd5b506200028a8782880162000170565b935050604085015160ff81168114620002a257600080fd5b60608601519092506001600160a01b0381168114620002c057600080fd5b939692955090935050565b600181811c90821680620002e057607f821691505b602082108114156200030257634e487b7160e01b600052602260045260246000fd5b50919050565b60805160a05161210a6200036660003960008181610558015281816105ea015281816106f7015281816108ec0152818161096701528181610c8001528181610dc901528181610e9d0152610f89015260006101f1015261210a6000f3fe608060405234801561001057600080fd5b50600436106101775760003560e01c806368aa5986116100d8578063a457c2d71161008c578063aaefc4f411610066578063aaefc4f4146102d5578063dd62ed3e146102e8578063fd5eddf31461032157600080fd5b8063a457c2d7146102a7578063a6afed95146102ba578063a9059cbb146102c257600080fd5b8063735b1915116100bd578063735b19151461028f57806375a6cce41461029757806395d89b411461029f57600080fd5b806368aa59861461025e57806370a082311461026657600080fd5b8063313ce5671161012f5780633950935111610114578063395093511461023057806341eb28b41461024357806366c83f6f1461025657600080fd5b8063313ce567146101ea578063315a095d1461021b57600080fd5b806318160ddd1161016057806318160ddd146101bd57806323b872dd146101cf578063270c8a31146101e257600080fd5b806306fdde031461017c578063095ea7b31461019a575b600080fd5b610184610334565b6040516101919190611e44565b60405180910390f35b6101ad6101a8366004611e93565b6103c6565b6040519015158152602001610191565b6002545b604051908152602001610191565b6101ad6101dd366004611ebd565b6103de565b6101c1610404565b60405160ff7f0000000000000000000000000000000000000000000000000000000000000000168152602001610191565b61022e610229366004611ef9565b610493565b005b6101ad61023e366004611e93565b61058b565b61022e610251366004611f12565b6105ca565b6101c1610721565b61022e6107d2565b6101c1610274366004611f34565b6001600160a01b031660009081526020819052604090205490565b6006546101c1565b61022e61086b565b6101846109cd565b6101ad6102b5366004611e93565b6109dc565b6101c1610a91565b6101ad6102d0366004611e93565b610c48565b61022e6102e3366004611ef9565b610c56565b6101c16102f6366004611f4f565b6001600160a01b03918216600090815260016020908152604080832093909416825291909152205490565b61022e61032f366004611ef9565b610e75565b60606003805461034390611f82565b80601f016020809104026020016040519081016040528092919081815260200182805461036f90611f82565b80156103bc5780601f10610391576101008083540402835291602001916103bc565b820191906000526020600020905b81548152906001019060200180831161039f57829003601f168201915b5050505050905090565b6000336103d4818585610fba565b5060019392505050565b6000336103ec858285611112565b6103f78585856111a4565b60019150505b9392505050565b336000908152600e6020908152604080832081516080810183528154815260018201549381019390935260028101549183019190915260030154606082015261044b6113bb565b9150630faa0280816060015161046f600560019054906101000a900460ff1661145c565b6104799190611fd3565b6104839190611ff2565b61048d9083612014565b91505090565b61049b610a91565b506104a461147c565b3360009081526020819052604090205481106105535760405162461bcd60e51b815260206004820152604160248201527f596f7520646f206e6f74206861766520656e6f75676820636f6c6c617465726160448201527f6c20746f6b656e7320746f207769746864726177207468697320616d6f756e7460648201527f2e00000000000000000000000000000000000000000000000000000000000000608482015260a4015b60405180910390fd5b61057e7f000000000000000000000000000000000000000000000000000000000000000033836114cc565b610588338261157a565b50565b3360008181526001602090815260408083206001600160a01b03871684529091528120549091906103d490829086906105c5908790612014565b610fba565b6105d2610a91565b506040516370a0823160e01b815230600482015282907f00000000000000000000000000000000000000000000000000000000000000006001600160a01b0316906370a0823190602401602060405180830381865afa158015610639573d6000803e3d6000fd5b505050506040513d601f19601f8201168201806040525081019061065d919061202c565b10156106d15760405162461bcd60e51b815260206004820152602e60248201527f576520646f206e6f74206861766520656e6f7567682066756e647320746f206660448201527f756e642074686973206c6f616e2e000000000000000000000000000000000000606482015260840161054a565b6106da826116ff565b81600660008282546106ec9190612014565b9091555061071d90507f000000000000000000000000000000000000000000000000000000000000000033846114cc565b5050565b600061072b6117e7565b600c546040516370a0823160e01b8152336004820152919250630faa0280916001600160a01b03909116906370a0823190602401602060405180830381865afa15801561077c573d6000803e3d6000fd5b505050506040513d601f19601f820116820180604052508101906107a0919061202c565b6005546107af9060ff1661145c565b6107b99190611fd3565b6107c39190611ff2565b6107cd9082612014565b905090565b6107da610a91565b50336000908152600d6020908152604091829020825160608101845281548152600182015492810192909252600201549181018290529061081a906118bd565b61082833826040015161194f565b5060408051606081018252600854815260075460208083019182526000838501818152338252600d90925293909320915182555160018201559051600290910155565b610873610a91565b5061087e60006116ff565b336000908152600e60209081526040808320815160808101835281548152600182015493810193909352600281015491830182905260030154606083018190529192916108ca91612014565b6040516370a0823160e01b815233600482015290915081906001600160a01b037f000000000000000000000000000000000000000000000000000000000000000016906370a0823190602401602060405180830381865afa158015610933573d6000803e3d6000fd5b505050506040513d601f19601f82011682018060405250810190610957919061202c565b101561096257600080fd5b61098e7f0000000000000000000000000000000000000000000000000000000000000000333084611a2e565b80600660008282546109a09190612045565b9091555050336000908152600e602052604081208181556001810182905560028101829055600301555050565b60606004805461034390611f82565b3360008181526001602090815260408083206001600160a01b038716845290915281205490919083811015610a795760405162461bcd60e51b815260206004820152602560248201527f45524332303a2064656372656173656420616c6c6f77616e63652062656c6f7760448201527f207a65726f000000000000000000000000000000000000000000000000000000606482015260840161054a565b610a868286868403610fba565b506001949350505050565b600080600c54600160a01b900460ff166001811115610ab257610ab261205c565b1415610abe5750600090565b600c805460ff60a01b19169055600754431415610aee5750600c805460ff60a01b1916600160a01b179055600090565b600554600090610b009060ff1661145c565b90508060086000828254610b149190612014565b9091555050600c54604080517f18160ddd0000000000000000000000000000000000000000000000000000000081529051630faa0280926001600160a01b0316916318160ddd9160048083019260209291908290030181865afa158015610b7f573d6000803e3d6000fd5b505050506040513d601f19601f82011682018060405250810190610ba3919061202c565b610bad9083611fd3565b610bb79190611ff2565b9150610bc282611a7f565b600554600090610bd990610100900460ff1661145c565b90508060096000828254610bed9190612014565b9091555050600654600090630faa028090610c089084611fd3565b610c129190611ff2565b905080600b6000828254610c269190612014565b9091555050436007555050600c805460ff60a01b1916600160a01b1790555090565b6000336103d48185856111a4565b610c5e610a91565b50610c6960006116ff565b6040516370a0823160e01b815233600482015281907f00000000000000000000000000000000000000000000000000000000000000006001600160a01b0316906370a0823190602401602060405180830381865afa158015610ccf573d6000803e3d6000fd5b505050506040513d601f19601f82011682018060405250810190610cf3919061202c565b1015610d675760405162461bcd60e51b815260206004820152603660248201527f596f7520646f206e6f74206861766520656e6f75676820455243323020746f6b60448201527f656e20746f20706179207468697320616d6f756e742e00000000000000000000606482015260840161054a565b336000908152600e60209081526040918290208251608081018452815481526001820154928101929092526002810154928201839052600301546060820181905290918391610db69190612014565b1015610dc45761071d61086b565b610df07f0000000000000000000000000000000000000000000000000000000000000000333085611a2e565b60405180608001604052806009548152602001600754815260200160008152602001838360600151610e229190612045565b9052336000908152600e6020908152604080832084518155918401516001830155830151600282015560609092015160039092019190915560068054849290610e6c908490612045565b90915550505050565b610e7d610a91565b50610e8661147c565b6040516370a0823160e01b815233600482015281907f00000000000000000000000000000000000000000000000000000000000000006001600160a01b0316906370a0823190602401602060405180830381865afa158015610eec573d6000803e3d6000fd5b505050506040513d601f19601f82011682018060405250810190610f10919061202c565b1015610f845760405162461bcd60e51b815260206004820152603c60248201527f596f7520646f206e6f74206861766520656e6f75676820455243323020746f6b60448201527f656e20746f206d616b652074686973207472616e73616374696f6e2e00000000606482015260840161054a565b610fb07f0000000000000000000000000000000000000000000000000000000000000000333084611a2e565b610588338261194f565b6001600160a01b0383166110355760405162461bcd60e51b8152602060048201526024808201527f45524332303a20617070726f76652066726f6d20746865207a65726f2061646460448201527f7265737300000000000000000000000000000000000000000000000000000000606482015260840161054a565b6001600160a01b0382166110b15760405162461bcd60e51b815260206004820152602260248201527f45524332303a20617070726f766520746f20746865207a65726f20616464726560448201527f7373000000000000000000000000000000000000000000000000000000000000606482015260840161054a565b6001600160a01b0383811660008181526001602090815260408083209487168084529482529182902085905590518481527f8c5be1e5ebec7d5bd14f71427d1e84f3dd0314c0f7b2291e5b200ac8c7c3b925910160405180910390a3505050565b6001600160a01b03838116600090815260016020908152604080832093861683529290522054600019811461119e57818110156111915760405162461bcd60e51b815260206004820152601d60248201527f45524332303a20696e73756666696369656e7420616c6c6f77616e6365000000604482015260640161054a565b61119e8484848403610fba565b50505050565b6001600160a01b0383166112205760405162461bcd60e51b815260206004820152602560248201527f45524332303a207472616e736665722066726f6d20746865207a65726f20616460448201527f6472657373000000000000000000000000000000000000000000000000000000606482015260840161054a565b6001600160a01b03821661129c5760405162461bcd60e51b815260206004820152602360248201527f45524332303a207472616e7366657220746f20746865207a65726f206164647260448201527f6573730000000000000000000000000000000000000000000000000000000000606482015260840161054a565b6001600160a01b0383166000908152602081905260409020548181101561132b5760405162461bcd60e51b815260206004820152602660248201527f45524332303a207472616e7366657220616d6f756e742065786365656473206260448201527f616c616e63650000000000000000000000000000000000000000000000000000606482015260840161054a565b6001600160a01b03808516600090815260208190526040808220858503905591851681529081208054849290611362908490612014565b92505081905550826001600160a01b0316846001600160a01b03167fddf252ad1be2c89b69c2b068fc378daa952ba7f163c4a11628f55a4df523b3ef846040516113ae91815260200190565b60405180910390a361119e565b336000908152600e602090815260408083208151608081018352815481526001820154938101939093526002810154918301919091526003015460608201528180611404611a91565b8060200190518101906114179190612072565b915091508260400151630faa0280846060015184846114369190611fd3565b6114409190611fd3565b61144a9190611ff2565b6114549190612014565b935050505090565b6000806007544361146d9190612045565b90506103fd60ff841682611fd3565b60405180606001604052806008548152602001600754815260200161149f6117e7565b9052336000908152600d602090815260409182902083518155908301516001820155910151600290910155565b6040516001600160a01b0383166024820152604481018290526115759084907fa9059cbb00000000000000000000000000000000000000000000000000000000906064015b60408051601f198184030181529190526020810180517bffffffffffffffffffffffffffffffffffffffffffffffffffffffff167fffffffff0000000000000000000000000000000000000000000000000000000090931692909217909152611b39565b505050565b6001600160a01b0382166115f65760405162461bcd60e51b815260206004820152602160248201527f45524332303a206275726e2066726f6d20746865207a65726f2061646472657360448201527f7300000000000000000000000000000000000000000000000000000000000000606482015260840161054a565b6001600160a01b038216600090815260208190526040902054818110156116855760405162461bcd60e51b815260206004820152602260248201527f45524332303a206275726e20616d6f756e7420657863656564732062616c616e60448201527f6365000000000000000000000000000000000000000000000000000000000000606482015260840161054a565b6001600160a01b03831660009081526020819052604081208383039055600280548492906116b4908490612045565b90915550506040518281526000906001600160a01b038516907fddf252ad1be2c89b69c2b068fc378daa952ba7f163c4a11628f55a4df523b3ef9060200160405180910390a3505050565b336000908152600e60209081526040808320815160808101835281548152600182015493810193909352600281015491830191909152600301546060820152906117476113bb565b905060405180608001604052806009548152602001600754815260200182815260200184846060015161177a9190612014565b9052336000908152600e60209081526040808320845181559184015160018301558301516002820155606090920151600390920191909155600680548392906117c4908490612014565b9250508190555080600b60008282546117dd9190612045565b9091555050505050565b336000908152600d6020908152604080832081516060810183528154815260018201549381019390935260020154908201528180611823611c1e565b8060200190518101906118369190612072565b604085810151600c5491516370a0823160e01b81523360048201529395509193509091630faa0280916001600160a01b0316906370a0823190602401602060405180830381865afa15801561188f573d6000803e3d6000fd5b505050506040513d601f19601f820116820180604052508101906118b3919061202c565b6114368585611fd3565b600a548111156119355760405162461bcd60e51b815260206004820152603060248201527f54686520616d6f756e74206f6620756e636c61696d656420746f6b656e73206160448201527f7265206e6f7420617661696c61626c6500000000000000000000000000000000606482015260840161054a565b80600a60008282546119479190612045565b909155505050565b6001600160a01b0382166119a55760405162461bcd60e51b815260206004820152601f60248201527f45524332303a206d696e7420746f20746865207a65726f206164647265737300604482015260640161054a565b80600260008282546119b79190612014565b90915550506001600160a01b038216600090815260208190526040812080548392906119e4908490612014565b90915550506040518181526001600160a01b038316906000907fddf252ad1be2c89b69c2b068fc378daa952ba7f163c4a11628f55a4df523b3ef9060200160405180910390a35050565b6040516001600160a01b038085166024830152831660448201526064810182905261119e9085907f23b872dd0000000000000000000000000000000000000000000000000000000090608401611511565b80600a60008282546119479190612014565b336000908152600e6020908152604080832081516080810183528154815260018201549381018490526002820154928101929092526003015460608281019190915260075490939192611ae391612045565b905060008115611b0e578251600954600091611afe91612045565b9050611b0a8382611ff2565b9150505b6040805160208101849052908101829052606001604051602081830303815290604052935050505090565b6000611b8e826040518060400160405280602081526020017f5361666545524332303a206c6f772d6c6576656c2063616c6c206661696c6564815250856001600160a01b0316611c809092919063ffffffff16565b8051909150156115755780806020019051810190611bac9190612096565b6115755760405162461bcd60e51b815260206004820152602a60248201527f5361666545524332303a204552433230206f7065726174696f6e20646964206e60448201527f6f74207375636365656400000000000000000000000000000000000000000000606482015260840161054a565b336000908152600d602090815260408083208151606081810184528254825260018301549482018590526002909201549281019290925260075490939192611c6591612045565b905060008115611b0e578251600854600091611afe91612045565b6060611c8f8484600085611c97565b949350505050565b606082471015611d0f5760405162461bcd60e51b815260206004820152602660248201527f416464726573733a20696e73756666696369656e742062616c616e636520666f60448201527f722063616c6c0000000000000000000000000000000000000000000000000000606482015260840161054a565b6001600160a01b0385163b611d665760405162461bcd60e51b815260206004820152601d60248201527f416464726573733a2063616c6c20746f206e6f6e2d636f6e7472616374000000604482015260640161054a565b600080866001600160a01b03168587604051611d8291906120b8565b60006040518083038185875af1925050503d8060008114611dbf576040519150601f19603f3d011682016040523d82523d6000602084013e611dc4565b606091505b5091509150611dd4828286611ddf565b979650505050505050565b60608315611dee5750816103fd565b825115611dfe5782518084602001fd5b8160405162461bcd60e51b815260040161054a9190611e44565b60005b83811015611e33578181015183820152602001611e1b565b8381111561119e5750506000910152565b6020815260008251806020840152611e63816040850160208701611e18565b601f01601f19169190910160400192915050565b80356001600160a01b0381168114611e8e57600080fd5b919050565b60008060408385031215611ea657600080fd5b611eaf83611e77565b946020939093013593505050565b600080600060608486031215611ed257600080fd5b611edb84611e77565b9250611ee960208501611e77565b9150604084013590509250925092565b600060208284031215611f0b57600080fd5b5035919050565b60008060408385031215611f2557600080fd5b50508035926020909101359150565b600060208284031215611f4657600080fd5b6103fd82611e77565b60008060408385031215611f6257600080fd5b611f6b83611e77565b9150611f7960208401611e77565b90509250929050565b600181811c90821680611f9657607f821691505b60208210811415611fb757634e487b7160e01b600052602260045260246000fd5b50919050565b634e487b7160e01b600052601160045260246000fd5b6000816000190483118215151615611fed57611fed611fbd565b500290565b60008261200f57634e487b7160e01b600052601260045260246000fd5b500490565b6000821982111561202757612027611fbd565b500190565b60006020828403121561203e57600080fd5b5051919050565b60008282101561205757612057611fbd565b500390565b634e487b7160e01b600052602160045260246000fd5b6000806040838503121561208557600080fd5b505080516020909101519092909150565b6000602082840312156120a857600080fd5b815180151581146103fd57600080fd5b600082516120ca818460208701611e18565b919091019291505056fea26469706673582212203f0cbe3602be171a9948bd432582596eed60cf78bbbaa41f3a7a0eaa25f6ca8d64736f6c634300080a0033",
  "linkReferences": {},
  "deployedLinkReferences": {}
}