{
  "_format": "hh-sol-artifact-1",
  "contractName": "NERC20",
  "sourceName": "contracts/NERC20.sol",
  "abi": [
    {
      "inputs": [
        {
          "internalType": "string",
          "name": "name_",
          "type": "string"
        },
        {
          "internalType": "string",
          "name": "symbol_",
          "type": "string"
        },
        {
          "internalType": "uint8",
          "name": "decimals_",
          "type": "uint8"
        },
        {
          "internalType": "contract IERC20",
          "name": "tokenAddress_",
          "type": "address"
        }
      ],
      "stateMutability": "nonpayable",
      "type": "constructor"
    },
    {
      "anonymous": false,
      "inputs": [
        {
          "indexed": true,
          "internalType": "address",
          "name": "owner",
          "type": "address"
        },
        {
          "indexed": true,
          "internalType": "address",
          "name": "spender",
          "type": "address"
        },
        {
          "indexed": false,
          "internalType": "uint256",
          "name": "value",
          "type": "uint256"
        }
      ],
      "name": "Approval",
      "type": "event"
    },
    {
      "anonymous": false,
      "inputs": [
        {
          "indexed": true,
          "internalType": "address",
          "name": "borrower",
          "type": "address"
        },
        {
          "indexed": false,
          "internalType": "uint256",
          "name": "amountBorrowed",
          "type": "uint256"
        }
      ],
      "name": "BorrowedToken",
      "type": "event"
    },
    {
      "anonymous": false,
      "inputs": [
        {
          "indexed": true,
          "internalType": "address",
          "name": "investor",
          "type": "address"
        },
        {
          "indexed": false,
          "internalType": "uint256",
          "name": "amountInvested",
          "type": "uint256"
        }
      ],
      "name": "InvestedToken",
      "type": "event"
    },
    {
      "anonymous": false,
      "inputs": [
        {
          "indexed": true,
          "internalType": "address",
          "name": "investor",
          "type": "address"
        },
        {
          "indexed": false,
          "internalType": "uint256",
          "name": "amountInvested",
          "type": "uint256"
        }
      ],
      "name": "InvestedTokenClaimed",
      "type": "event"
    },
    {
      "anonymous": false,
      "inputs": [
        {
          "indexed": true,
          "internalType": "address",
          "name": "NFTContract",
          "type": "address"
        },
        {
          "indexed": false,
          "internalType": "uint256",
          "name": "tokenId",
          "type": "uint256"
        }
      ],
      "name": "NFTLiquidated",
      "type": "event"
    },
    {
      "anonymous": false,
      "inputs": [
        {
          "indexed": false,
          "internalType": "address",
          "name": "purchaser",
          "type": "address"
        },
        {
          "indexed": false,
          "internalType": "uint256",
          "name": "purchaseAmount",
          "type": "uint256"
        },
        {
          "indexed": false,
          "internalType": "address",
          "name": "NFTContract",
          "type": "address"
        },
        {
          "indexed": false,
          "internalType": "uint256",
          "name": "tokenId",
          "type": "uint256"
        }
      ],
      "name": "NFTLiquiditySold",
      "type": "event"
    },
    {
      "anonymous": false,
      "inputs": [
        {
          "indexed": true,
          "internalType": "address",
          "name": "previousOwner",
          "type": "address"
        },
        {
          "indexed": true,
          "internalType": "address",
          "name": "newOwner",
          "type": "address"
        }
      ],
      "name": "OwnershipTransferred",
      "type": "event"
    },
    {
      "anonymous": false,
      "inputs": [
        {
          "indexed": true,
          "internalType": "address",
          "name": "borrower",
          "type": "address"
        },
        {
          "indexed": false,
          "internalType": "uint256",
          "name": "amountPaid",
          "type": "uint256"
        }
      ],
      "name": "PayedOnLoan",
      "type": "event"
    },
    {
      "anonymous": false,
      "inputs": [
        {
          "indexed": true,
          "internalType": "address",
          "name": "from",
          "type": "address"
        },
        {
          "indexed": true,
          "internalType": "address",
          "name": "to",
          "type": "address"
        },
        {
          "indexed": false,
          "internalType": "uint256",
          "name": "value",
          "type": "uint256"
        }
      ],
      "name": "Transfer",
      "type": "event"
    },
    {
      "anonymous": false,
      "inputs": [
        {
          "indexed": true,
          "internalType": "address",
          "name": "investor",
          "type": "address"
        },
        {
          "indexed": false,
          "internalType": "uint256",
          "name": "amountWithdrawn",
          "type": "uint256"
        }
      ],
      "name": "WithdrawInvestedTokens",
      "type": "event"
    },
    {
      "inputs": [
        {
          "internalType": "address",
          "name": "",
          "type": "address"
        }
      ],
      "name": "NFTOwnerMapping",
      "outputs": [
        {
          "internalType": "contract IERC721",
          "name": "NFTContract",
          "type": "address"
        },
        {
          "internalType": "uint256",
          "name": "tokenId",
          "type": "uint256"
        },
        {
          "internalType": "uint256",
          "name": "nftCollateralAmount",
          "type": "uint256"
        }
      ],
      "stateMutability": "view",
      "type": "function"
    },
    {
      "inputs": [
        {
          "internalType": "address",
          "name": "owner",
          "type": "address"
        },
        {
          "internalType": "address",
          "name": "spender",
          "type": "address"
        }
      ],
      "name": "allowance",
      "outputs": [
        {
          "internalType": "uint256",
          "name": "",
          "type": "uint256"
        }
      ],
      "stateMutability": "view",
      "type": "function"
    },
    {
      "inputs": [
        {
          "internalType": "address",
          "name": "spender",
          "type": "address"
        },
        {
          "internalType": "uint256",
          "name": "amount",
          "type": "uint256"
        }
      ],
      "name": "approve",
      "outputs": [
        {
          "internalType": "bool",
          "name": "",
          "type": "bool"
        }
      ],
      "stateMutability": "nonpayable",
      "type": "function"
    },
    {
      "inputs": [
        {
          "internalType": "address",
          "name": "account",
          "type": "address"
        }
      ],
      "name": "balanceOf",
      "outputs": [
        {
          "internalType": "uint256",
          "name": "",
          "type": "uint256"
        }
      ],
      "stateMutability": "view",
      "type": "function"
    },
    {
      "inputs": [
        {
          "internalType": "address",
          "name": "borrower",
          "type": "address"
        },
        {
          "internalType": "uint256",
          "name": "amount",
          "type": "uint256"
        },
        {
          "internalType": "uint256",
          "name": "nftCollateralAmount",
          "type": "uint256"
        },
        {
          "internalType": "contract IERC721",
          "name": "NFTContract",
          "type": "address"
        },
        {
          "internalType": "uint256",
          "name": "tokenId",
          "type": "uint256"
        }
      ],
      "name": "borrowTokens",
      "outputs": [],
      "stateMutability": "nonpayable",
      "type": "function"
    },
    {
      "inputs": [],
      "name": "claimAccruedTokens",
      "outputs": [],
      "stateMutability": "nonpayable",
      "type": "function"
    },
    {
      "inputs": [],
      "name": "decimals",
      "outputs": [
        {
          "internalType": "uint8",
          "name": "",
          "type": "uint8"
        }
      ],
      "stateMutability": "view",
      "type": "function"
    },
    {
      "inputs": [
        {
          "internalType": "address",
          "name": "spender",
          "type": "address"
        },
        {
          "internalType": "uint256",
          "name": "subtractedValue",
          "type": "uint256"
        }
      ],
      "name": "decreaseAllowance",
      "outputs": [
        {
          "internalType": "bool",
          "name": "",
          "type": "bool"
        }
      ],
      "stateMutability": "nonpayable",
      "type": "function"
    },
    {
      "inputs": [
        {
          "internalType": "address",
          "name": "nftOwner",
          "type": "address"
        }
      ],
      "name": "forceLiquidateIdleNFT",
      "outputs": [],
      "stateMutability": "nonpayable",
      "type": "function"
    },
    {
      "inputs": [
        {
          "internalType": "address",
          "name": "borrower",
          "type": "address"
        }
      ],
      "name": "getAmountBorrowed",
      "outputs": [
        {
          "internalType": "uint256",
          "name": "amountBorrowed",
          "type": "uint256"
        }
      ],
      "stateMutability": "view",
      "type": "function"
    },
    {
      "inputs": [],
      "name": "getAmountInvested",
      "outputs": [
        {
          "internalType": "uint256",
          "name": "amountInvested",
          "type": "uint256"
        }
      ],
      "stateMutability": "view",
      "type": "function"
    },
    {
      "inputs": [
        {
          "internalType": "address",
          "name": "borrower",
          "type": "address"
        }
      ],
      "name": "getBorrowedRepayAmount",
      "outputs": [
        {
          "internalType": "uint256",
          "name": "repayAmount",
          "type": "uint256"
        }
      ],
      "stateMutability": "view",
      "type": "function"
    },
    {
      "inputs": [
        {
          "internalType": "address",
          "name": "spender",
          "type": "address"
        },
        {
          "internalType": "uint256",
          "name": "addedValue",
          "type": "uint256"
        }
      ],
      "name": "increaseAllowance",
      "outputs": [
        {
          "internalType": "bool",
          "name": "",
          "type": "bool"
        }
      ],
      "stateMutability": "nonpayable",
      "type": "function"
    },
    {
      "inputs": [],
      "name": "name",
      "outputs": [
        {
          "internalType": "string",
          "name": "",
          "type": "string"
        }
      ],
      "stateMutability": "view",
      "type": "function"
    },
    {
      "inputs": [
        {
          "internalType": "address",
          "name": "nftContract",
          "type": "address"
        },
        {
          "internalType": "uint256",
          "name": "tokenId",
          "type": "uint256"
        }
      ],
      "name": "nftPurchasePrice",
      "outputs": [
        {
          "internalType": "uint256",
          "name": "",
          "type": "uint256"
        }
      ],
      "stateMutability": "view",
      "type": "function"
    },
    {
      "inputs": [
        {
          "internalType": "address",
          "name": "operator",
          "type": "address"
        },
        {
          "internalType": "address",
          "name": "from",
          "type": "address"
        },
        {
          "internalType": "uint256",
          "name": "tokenId",
          "type": "uint256"
        },
        {
          "internalType": "bytes",
          "name": "data",
          "type": "bytes"
        }
      ],
      "name": "onERC721Received",
      "outputs": [
        {
          "internalType": "bytes4",
          "name": "",
          "type": "bytes4"
        }
      ],
      "stateMutability": "pure",
      "type": "function"
    },
    {
      "inputs": [],
      "name": "owner",
      "outputs": [
        {
          "internalType": "address",
          "name": "",
          "type": "address"
        }
      ],
      "stateMutability": "view",
      "type": "function"
    },
    {
      "inputs": [],
      "name": "renounceOwnership",
      "outputs": [],
      "stateMutability": "nonpayable",
      "type": "function"
    },
    {
      "inputs": [
        {
          "internalType": "address",
          "name": "borrower",
          "type": "address"
        },
        {
          "internalType": "uint256",
          "name": "amount",
          "type": "uint256"
        }
      ],
      "name": "repayBorrowAmount",
      "outputs": [],
      "stateMutability": "nonpayable",
      "type": "function"
    },
    {
      "inputs": [
        {
          "internalType": "address",
          "name": "borrower",
          "type": "address"
        }
      ],
      "name": "repayFullBorrowAmount",
      "outputs": [],
      "stateMutability": "nonpayable",
      "type": "function"
    },
    {
      "inputs": [
        {
          "internalType": "address",
          "name": "purchaser",
          "type": "address"
        },
        {
          "internalType": "uint256",
          "name": "purchaseAmount",
          "type": "uint256"
        },
        {
          "internalType": "contract IERC721",
          "name": "nftContract",
          "type": "address"
        },
        {
          "internalType": "uint256",
          "name": "tokenId",
          "type": "uint256"
        }
      ],
      "name": "sellLiquidNFT",
      "outputs": [],
      "stateMutability": "nonpayable",
      "type": "function"
    },
    {
      "inputs": [
        {
          "internalType": "uint8",
          "name": "amount",
          "type": "uint8"
        }
      ],
      "name": "setCurrentBorrowInterestRatePerBlock",
      "outputs": [],
      "stateMutability": "nonpayable",
      "type": "function"
    },
    {
      "inputs": [
        {
          "internalType": "uint8",
          "name": "amount",
          "type": "uint8"
        }
      ],
      "name": "setCurrentInterestRatePerBlock",
      "outputs": [],
      "stateMutability": "nonpayable",
      "type": "function"
    },
    {
      "inputs": [
        {
          "internalType": "uint256",
          "name": "amount",
          "type": "uint256"
        }
      ],
      "name": "setMinimumDividor",
      "outputs": [],
      "stateMutability": "nonpayable",
      "type": "function"
    },
    {
      "inputs": [],
      "name": "shutdownContract",
      "outputs": [],
      "stateMutability": "nonpayable",
      "type": "function"
    },
    {
      "inputs": [],
      "name": "startContract",
      "outputs": [],
      "stateMutability": "nonpayable",
      "type": "function"
    },
    {
      "inputs": [
        {
          "internalType": "uint256",
          "name": "amount",
          "type": "uint256"
        }
      ],
      "name": "supplyTokens",
      "outputs": [],
      "stateMutability": "nonpayable",
      "type": "function"
    },
    {
      "inputs": [],
      "name": "symbol",
      "outputs": [
        {
          "internalType": "string",
          "name": "",
          "type": "string"
        }
      ],
      "stateMutability": "view",
      "type": "function"
    },
    {
      "inputs": [],
      "name": "totalAmountBorrowed",
      "outputs": [
        {
          "internalType": "uint256",
          "name": "",
          "type": "uint256"
        }
      ],
      "stateMutability": "view",
      "type": "function"
    },
    {
      "inputs": [],
      "name": "totalAmountInvested",
      "outputs": [
        {
          "internalType": "uint256",
          "name": "",
          "type": "uint256"
        }
      ],
      "stateMutability": "view",
      "type": "function"
    },
    {
      "inputs": [],
      "name": "totalAmountInvestedInterest",
      "outputs": [
        {
          "internalType": "uint256",
          "name": "",
          "type": "uint256"
        }
      ],
      "stateMutability": "view",
      "type": "function"
    },
    {
      "inputs": [],
      "name": "totalBorrowedInterest",
      "outputs": [
        {
          "internalType": "uint256",
          "name": "",
          "type": "uint256"
        }
      ],
      "stateMutability": "view",
      "type": "function"
    },
    {
      "inputs": [],
      "name": "totalSupply",
      "outputs": [
        {
          "internalType": "uint256",
          "name": "",
          "type": "uint256"
        }
      ],
      "stateMutability": "view",
      "type": "function"
    },
    {
      "inputs": [
        {
          "internalType": "address",
          "name": "to",
          "type": "address"
        },
        {
          "internalType": "uint256",
          "name": "amount",
          "type": "uint256"
        }
      ],
      "name": "transfer",
      "outputs": [
        {
          "internalType": "bool",
          "name": "",
          "type": "bool"
        }
      ],
      "stateMutability": "nonpayable",
      "type": "function"
    },
    {
      "inputs": [
        {
          "internalType": "address",
          "name": "from",
          "type": "address"
        },
        {
          "internalType": "address",
          "name": "to",
          "type": "address"
        },
        {
          "internalType": "uint256",
          "name": "amount",
          "type": "uint256"
        }
      ],
      "name": "transferFrom",
      "outputs": [
        {
          "internalType": "bool",
          "name": "",
          "type": "bool"
        }
      ],
      "stateMutability": "nonpayable",
      "type": "function"
    },
    {
      "inputs": [
        {
          "internalType": "address",
          "name": "newOwner",
          "type": "address"
        }
      ],
      "name": "transferOwnership",
      "outputs": [],
      "stateMutability": "nonpayable",
      "type": "function"
    },
    {
      "inputs": [],
      "name": "viewAccruedTokensAmount",
      "outputs": [
        {
          "internalType": "uint256",
          "name": "accruedTokenAmount",
          "type": "uint256"
        }
      ],
      "stateMutability": "view",
      "type": "function"
    },
    {
      "inputs": [
        {
          "internalType": "address",
          "name": "borrower",
          "type": "address"
        }
      ],
      "name": "viewBorrowAccruedTokensAmount",
      "outputs": [
        {
          "internalType": "uint256",
          "name": "accruedTokenAmount",
          "type": "uint256"
        }
      ],
      "stateMutability": "view",
      "type": "function"
    },
    {
      "inputs": [
        {
          "internalType": "uint256",
          "name": "amount",
          "type": "uint256"
        }
      ],
      "name": "withdrawTokens",
      "outputs": [],
      "stateMutability": "nonpayable",
      "type": "function"
    }
  ],
  "bytecode": "0x60c06040526005805461ffff60a01b1916610c0560a01b179055600c80546001600160a81b0319163060ff60a01b191617600160a01b1790553480156200004557600080fd5b506040516200423d3803806200423d8339810160408190526200006891620002af565b835184908490620000819060039060208501906200013c565b508051620000979060049060208401906200013c565b505050620000b4620000ae620000e660201b60201c565b620000ea565b60ff9091166080526001600160a01b031660a052505043600755600f805460ff19166001179055600260105562000390565b3390565b600580546001600160a01b038381166001600160a01b0319831681179093556040519116919082907f8be0079c531659141344cd1fd0a4f28419497f9722a3daafe3b4186f6b6457e090600090a35050565b8280546200014a9062000353565b90600052602060002090601f0160209004810192826200016e5760008555620001b9565b82601f106200018957805160ff1916838001178555620001b9565b82800160010185558215620001b9579182015b82811115620001b95782518255916020019190600101906200019c565b50620001c7929150620001cb565b5090565b5b80821115620001c75760008155600101620001cc565b634e487b7160e01b600052604160045260246000fd5b600082601f8301126200020a57600080fd5b81516001600160401b0380821115620002275762000227620001e2565b604051601f8301601f19908116603f01168101908282118183101715620002525762000252620001e2565b816040528381526020925086838588010111156200026f57600080fd5b600091505b8382101562000293578582018301518183018401529082019062000274565b83821115620002a55760008385830101525b9695505050505050565b60008060008060808587031215620002c657600080fd5b84516001600160401b0380821115620002de57600080fd5b620002ec88838901620001f8565b955060208701519150808211156200030357600080fd5b506200031287828801620001f8565b935050604085015160ff811681146200032a57600080fd5b60608601519092506001600160a01b03811681146200034857600080fd5b939692955090935050565b600181811c908216806200036857607f821691505b602082108114156200038a57634e487b7160e01b600052602260045260246000fd5b50919050565b60805160a051613e41620003fc6000396000818161094001528181610f020152818161100f015281816113300152818161141a015281816116fa0152818161182301528181611b9b01528181611d59015281816122ef01526123db015260006103d10152613e416000f3fe608060405234801561001057600080fd5b50600436106102ad5760003560e01c80637312f0051161017b578063a9059cbb116100d8578063e5dec8ff1161008c578063f2fde38b11610071578063f2fde38b14610628578063f6724a551461063b578063fd5eddf31461064357600080fd5b8063e5dec8ff1461060d578063e7a3ac821461062057600080fd5b8063b1822183116100bd578063b1822183146105ae578063c909413c146105c1578063dd62ed3e146105d457600080fd5b8063a9059cbb14610593578063a952ae21146105a657600080fd5b80637a8ed98f1161012f5780638da5cb5b116101145780638da5cb5b1461055d57806395d89b4114610578578063a457c2d71461058057600080fd5b80637a8ed98f146104ec57806385cbeb731461054a57600080fd5b8063765f019311610160578063765f0193146104b357806377d37bdf146104c657806378a96c79146104d957600080fd5b80637312f00514610498578063735b1915146104ab57600080fd5b8063315a095d116102295780635fb02f4d116101dd57806368aa5986116101c257806368aa59861461045f57806370a0823114610467578063715018a61461049057600080fd5b80635fb02f4d1461044f57806366c83f6f1461045757600080fd5b80633f265d2e1161020e5780633f265d2e146104215780635191994814610429578063524872e21461043c57600080fd5b8063315a095d146103fb578063395093511461040e57600080fd5b8063150b7a0211610280578063234c289311610265578063234c2893146103a457806323b872dd146103b7578063313ce567146103ca57600080fd5b8063150b7a021461033357806318160ddd1461039c57600080fd5b806301c65e15146102b257806306fdde03146102f1578063095ea7b31461030657806312132c0014610329575b600080fd5b6102de6102c0366004613977565b6001600160a01b03166000908152600e602052604090206003015490565b6040519081526020015b60405180910390f35b6102f9610656565b6040516102e891906139c0565b6103196103143660046139f3565b6106e8565b60405190151581526020016102e8565b610331610702565b005b61036b610341366004613a1f565b7f150b7a023d4804d13e8c85fb27262cb750cf6ba9f9dd3bb30d90f482ceeb4b1f95945050505050565b6040517fffffffff0000000000000000000000000000000000000000000000000000000090911681526020016102e8565b6002546102de565b6103316103b2366004613abe565b61076d565b6103196103c5366004613ae1565b6107e7565b60405160ff7f00000000000000000000000000000000000000000000000000000000000000001681526020016102e8565b610331610409366004613b22565b61080d565b61031961041c3660046139f3565b6109a9565b600b546102de565b610331610437366004613abe565b6109e8565b6102de61044a3660046139f3565b610a7d565b610331610b14565b6102de610b7d565b610331610c35565b6102de610475366004613977565b6001600160a01b031660009081526020819052604090205490565b610331610d88565b6103316104a63660046139f3565b610dee565b6006546102de565b6103316104c1366004613b3b565b6110bc565b6103316104d4366004613b22565b611527565b6103316104e7366004613977565b6115f9565b6105256104fa366004613977565b6012602052600090815260409020805460018201546002909201546001600160a01b03909116919083565b604080516001600160a01b0390941684526020840192909252908201526060016102e8565b610331610558366004613b83565b6119a0565b6005546040516001600160a01b0390911681526020016102e8565b6102f9611dba565b61031961058e3660046139f3565b611dc9565b6103196105a13660046139f3565b611e7e565b6102de611e8c565b6102de6105bc366004613977565b611ef9565b6102de6105cf366004613977565b611f8c565b6102de6105e2366004613bd5565b6001600160a01b03918216600090815260016020908152604080832093909416825291909152205490565b61033161061b366004613977565b611fbd565b600a546102de565b610331610636366004613977565b612128565b6102de61220a565b610331610651366004613b22565b612254565b60606003805461066590613c0e565b80601f016020809104026020016040519081016040528092919081815260200182805461069190613c0e565b80156106de5780601f106106b3576101008083540402835291602001916106de565b820191906000526020600020905b8154815290600101906020018083116106c157829003601f168201915b5050505050905090565b6000336106f681858561243e565b60019150505b92915050565b6005546001600160a01b031633146107615760405162461bcd60e51b815260206004820181905260248201527f4f776e61626c653a2063616c6c6572206973206e6f7420746865206f776e657260448201526064015b60405180910390fd5b600f805460ff19169055565b6005546001600160a01b031633146107c75760405162461bcd60e51b815260206004820181905260248201527f4f776e61626c653a2063616c6c6572206973206e6f7420746865206f776e65726044820152606401610758565b6005805460ff909216600160a01b0260ff60a01b19909216919091179055565b6000336107f5858285612596565b610800858585612622565b60019150505b9392505050565b600f5460ff166108805760405162461bcd60e51b815260206004820152603860248201527f54686520736d61727420636f6e747261637420686173206265656e20736875746044820152773237bbb7103337b9103a3432903a34b6b2903132b4b7339760411b6064820152608401610758565b610888612839565b506108916129e0565b33600090815260208190526040902054811061093b5760405162461bcd60e51b815260206004820152604160248201527f596f7520646f206e6f74206861766520656e6f75676820636f6c6c617465726160448201527f6c20746f6b656e7320746f207769746864726177207468697320616d6f756e7460648201527f2e00000000000000000000000000000000000000000000000000000000000000608482015260a401610758565b6109667f00000000000000000000000000000000000000000000000000000000000000003383612a30565b6109703382612ad9565b60405181815233907f61c7f66cc8df135f272ea480025f9fe6d0c5958d3e51ed54b216038e4ba85ac5906020015b60405180910390a250565b3360008181526001602090815260408083206001600160a01b03871684529091528120549091906106f690829086906109e3908790613c5f565b61243e565b6005546001600160a01b03163314610a425760405162461bcd60e51b815260206004820181905260248201527f4f776e61626c653a2063616c6c6572206973206e6f7420746865206f776e65726044820152606401610758565b6005805460ff909216600160a81b027fffffffffffffffffffff00ffffffffffffffffffffffffffffffffffffffffff909216919091179055565b6001600160a01b0382166000908152601160209081526040808320848452909152812054806108065760405162461bcd60e51b815260206004820152602560248201527f4e4654206973206e6f74206c697374656420696e204e465453616c65734d617060448201527f70696e672e0000000000000000000000000000000000000000000000000000006064820152608401610758565b6005546001600160a01b03163314610b6e5760405162461bcd60e51b815260206004820181905260248201527f4f776e61626c653a2063616c6c6572206973206e6f7420746865206f776e65726044820152606401610758565b600f805460ff19166001179055565b6000610b87612c5e565b600c546040516370a0823160e01b8152336004820152919250630faa0280916001600160a01b03909116906370a0823190602401602060405180830381865afa158015610bd8573d6000803e3d6000fd5b505050506040513d601f19601f82011682018060405250810190610bfc9190613c77565b600554610c1290600160a01b900460ff16612d5a565b610c1c9190613c90565b610c269190613cc5565b610c309082613c5f565b905090565b600f5460ff16610ca85760405162461bcd60e51b815260206004820152603860248201527f54686520736d61727420636f6e747261637420686173206265656e20736875746044820152773237bbb7103337b9103a3432903a34b6b2903132b4b7339760411b6064820152608401610758565b610cb0612839565b50336000908152600d60209081526040918290208251606081018452815481526001820154928101929092526002015491810182905290610cf090612d7a565b610cfe338260400151612e0c565b336001600160a01b03167f8b4ac56074bf7483d9768efdf39bb460977b4c4202a21f5f2ff5e1e012eaee7b8260400151604051610d3d91815260200190565b60405180910390a25060408051606081018252600854815260075460208083019182526000838501818152338252600d90925293909320915182555160018201559051600290910155565b6005546001600160a01b03163314610de25760405162461bcd60e51b815260206004820181905260248201527f4f776e61626c653a2063616c6c6572206973206e6f7420746865206f776e65726044820152606401610758565b610dec6000612eeb565b565b600f5460ff16610e615760405162461bcd60e51b815260206004820152603860248201527f54686520736d61727420636f6e747261637420686173206265656e20736875746044820152773237bbb7103337b9103a3432903a34b6b2903132b4b7339760411b6064820152608401610758565b610e69612839565b50610e75826000612f4a565b6001600160a01b0382811660008181526012602090815260408083208151606080820184528254881682526001808401548387015260029384015483860152878752600e8652958490208451608081018652815481529681015495870195909552918401548584015260039093015490840152516370a0823160e01b8152600481019390935292909184917f000000000000000000000000000000000000000000000000000000000000000016906370a0823190602401602060405180830381865afa158015610f49573d6000803e3d6000fd5b505050506040513d601f19601f82011682018060405250810190610f6d9190613c77565b1015610fe15760405162461bcd60e51b815260206004820152603660248201527f596f7520646f206e6f74206861766520656e6f75676820455243323020746f6b60448201527f656e20746f20706179207468697320616d6f756e742e000000000000000000006064820152608401610758565b8281604001518260600151610ff69190613c5f565b101561100a57611005846115f9565b611084565b6110367f0000000000000000000000000000000000000000000000000000000000000000853086613116565b6110408484613167565b836001600160a01b03167ff4ded0487741360b8264d490778f5d500c68758577c18a2d600603074ceb16fb8460405161107b91815260200190565b60405180910390a25b8281606001516110949190613cd9565b60105483604001516110a69190613d31565b12156110b6576110b68484613227565b50505050565b6005546001600160a01b031633146111165760405162461bcd60e51b815260206004820181905260248201527f4f776e61626c653a2063616c6c6572206973206e6f7420746865206f776e65726044820152606401610758565b600f5460ff166111895760405162461bcd60e51b815260206004820152603860248201527f54686520736d61727420636f6e747261637420686173206265656e20736875746044820152773237bbb7103337b9103a3432903a34b6b2903132b4b7339760411b6064820152608401610758565b60006111958383610a7d565b6040517f6352211e0000000000000000000000000000000000000000000000000000000081526004810184905290915030906001600160a01b03851690636352211e90602401602060405180830381865afa1580156111f8573d6000803e3d6000fd5b505050506040513d601f19601f8201168201806040525081019061121c9190613d5f565b6001600160a01b0316146112985760405162461bcd60e51b815260206004820152602560248201527f436f6e7472616374206973206e6f7420746865206f776e6572206f662074686960448201527f73204e46540000000000000000000000000000000000000000000000000000006064820152608401610758565b8084101561130e5760405162461bcd60e51b815260206004820152602f60248201527f596f7520646964206e6f742070726f7669646520656e6f75676820746f20707560448201527f7263686173652074686973204e465400000000000000000000000000000000006064820152608401610758565b6040516370a0823160e01b81526001600160a01b0386811660048301526000917f0000000000000000000000000000000000000000000000000000000000000000909116906370a0823190602401602060405180830381865afa158015611379573d6000803e3d6000fd5b505050506040513d601f19601f8201168201806040525081019061139d9190613c77565b9050848110156114155760405162461bcd60e51b815260206004820152603d60248201527f596f7520646f206e6f74206861766520656e6f75676820455243323020746f6b60448201527f656e20746f20636f6d706c65746520746869732070757263686173652e0000006064820152608401610758565b6114417f0000000000000000000000000000000000000000000000000000000000000000873088613116565b604051632142170760e11b81523060048201526001600160a01b038781166024830152604482018590528516906342842e0e90606401600060405180830381600087803b15801561149157600080fd5b505af11580156114a5573d6000803e3d6000fd5b5050604080516001600160a01b038a81168252602082018a90528816818301526060810187905290517f314d8a1d76519c8222d2e7a908cae264ae0d87135b3e2ee09f9686899ab12f169350908190036080019150a150506001600160a01b039091166000908152601160209081526040808320938352929052908120555050565b6005546001600160a01b031633146115815760405162461bcd60e51b815260206004820181905260248201527f4f776e61626c653a2063616c6c6572206973206e6f7420746865206f776e65726044820152606401610758565b600f5460ff166115f45760405162461bcd60e51b815260206004820152603860248201527f54686520736d61727420636f6e747261637420686173206265656e20736875746044820152773237bbb7103337b9103a3432903a34b6b2903132b4b7339760411b6064820152608401610758565b601055565b600f5460ff1661166c5760405162461bcd60e51b815260206004820152603860248201527f54686520736d61727420636f6e747261637420686173206265656e20736875746044820152773237bbb7103337b9103a3432903a34b6b2903132b4b7339760411b6064820152608401610758565b611674612839565b50611680816000612f4a565b6001600160a01b0381166000908152600e60209081526040808320815160808101835281548152600182015493810193909352600281015491830182905260030154606083018190529192916116d591613c5f565b6040516370a0823160e01b81526001600160a01b0385811660048301529192506000917f000000000000000000000000000000000000000000000000000000000000000016906370a0823190602401602060405180830381865afa158015611741573d6000803e3d6000fd5b505050506040513d601f19601f820116820180604052508101906117659190613c77565b6001600160a01b0380861660009081526012602090815260409182902082516060810184528154909416845260018101549184019190915260020154908201529091508282101561181e5760405162461bcd60e51b815260206004820152603060248201527f596f7520646f206e6f74206861766520656e6f75676820746f2072657061792060448201527f616c6c206f6620796f75722064656274000000000000000000000000000000006064820152608401610758565b61184a7f0000000000000000000000000000000000000000000000000000000000000000863086613116565b80516020820151604051632142170760e11b81523060048201526001600160a01b03888116602483015260448201929092529116906342842e0e90606401600060405180830381600087803b1580156118a257600080fd5b505af11580156118b6573d6000803e3d6000fd5b505050506118c383613497565b6001600160a01b0385166000908152600e602090815260408083208381556001808201859055600280830186905560039092018590556012909352908320805473ffffffffffffffffffffffffffffffffffffffff1916815591820183905501556060840151611934908390613cd9565b60105482604001516119469190613d31565b1215611956576119568583613227565b846001600160a01b03167ff4ded0487741360b8264d490778f5d500c68758577c18a2d600603074ceb16fb8460405161199191815260200190565b60405180910390a25050505050565b6005546001600160a01b031633146119fa5760405162461bcd60e51b815260206004820181905260248201527f4f776e61626c653a2063616c6c6572206973206e6f7420746865206f776e65726044820152606401610758565b600f5460ff16611a6d5760405162461bcd60e51b815260206004820152603860248201527f54686520736d61727420636f6e747261637420686173206265656e20736875746044820152773237bbb7103337b9103a3432903a34b6b2903132b4b7339760411b6064820152608401610758565b611a75612839565b506001600160a01b038581166000908152601260205260409020541615611b045760405162461bcd60e51b815260206004820152602560248201527f596f7520616c726561647920686176652061204e465420617320636f6c6c617460448201527f6572616c2e0000000000000000000000000000000000000000000000000000006064820152608401610758565b611b0f600484613cc5565b841015611b845760405162461bcd60e51b815260206004820152603960248201527f4e465420436f6c6c61746572616c20416d6f756e74206973206e6f742068696760448201527f6820656e6f75676820666f722072657175657374206c6f616e000000000000006064820152608401610758565b6040516370a0823160e01b815230600482015284907f00000000000000000000000000000000000000000000000000000000000000006001600160a01b0316906370a0823190602401602060405180830381865afa158015611bea573d6000803e3d6000fd5b505050506040513d601f19601f82011682018060405250810190611c0e9190613c77565b1015611c825760405162461bcd60e51b815260206004820152602e60248201527f576520646f206e6f74206861766520656e6f7567682066756e647320746f206660448201527f756e642074686973206c6f616e2e0000000000000000000000000000000000006064820152608401610758565b611c8c8585612f4a565b604080516060810182526001600160a01b0384811680835260208084018681528486018981528b851660008181526012909452928790209551865473ffffffffffffffffffffffffffffffffffffffff1916951694909417855551600185015591516002909301929092559151632142170760e11b8152600481019290925230602483015260448201839052906342842e0e90606401600060405180830381600087803b158015611d3c57600080fd5b505af1158015611d50573d6000803e3d6000fd5b50505050611d7f7f00000000000000000000000000000000000000000000000000000000000000008686612a30565b846001600160a01b03167f94a38080f852f78f49d690a2ed2327cdf48af975749bc55adfe9b0a000fc36328560405161199191815260200190565b60606004805461066590613c0e565b3360008181526001602090815260408083206001600160a01b038716845290915281205490919083811015611e665760405162461bcd60e51b815260206004820152602560248201527f45524332303a2064656372656173656420616c6c6f77616e63652062656c6f7760448201527f207a65726f0000000000000000000000000000000000000000000000000000006064820152608401610758565b611e73828686840361243e565b506001949350505050565b6000336106f6818585612622565b600c546040516370a0823160e01b81523360048201526000916001600160a01b0316906370a0823190602401602060405180830381865afa158015611ed5573d6000803e3d6000fd5b505050506040513d601f19601f82011682018060405250810190610c309190613c77565b6001600160a01b0381166000908152600e60209081526040808320815160808101835281548152600182015493810193909352600281015491830191909152600301546060820152611f4a836134a9565b9150630faa02808160600151611f6e600560159054906101000a900460ff16612d5a565b611f789190613c90565b611f829190613cc5565b6108069083613c5f565b6000611f9782611ef9565b6001600160a01b0383166000908152600e60205260409020600301546106fc9190613c5f565b600f5460ff166120305760405162461bcd60e51b815260206004820152603860248201527f54686520736d61727420636f6e747261637420686173206265656e20736875746044820152773237bbb7103337b9103a3432903a34b6b2903132b4b7339760411b6064820152608401610758565b612038612839565b50612044816000612f4a565b600061204f82611f8c565b6001600160a01b0380841660009081526012602090815260409182902082516060810184528154909416845260018101549184019190915260020154908201819052601054929350909183916120a59190613d31565b126121185760405162461bcd60e51b815260206004820152602b60248201527f416d6f756e74206f776564206973206e6f7420656e6f75676820746f206c697160448201527f756964617465204e46542e0000000000000000000000000000000000000000006064820152608401610758565b612123836000613227565b505050565b6005546001600160a01b031633146121825760405162461bcd60e51b815260206004820181905260248201527f4f776e61626c653a2063616c6c6572206973206e6f7420746865206f776e65726044820152606401610758565b6001600160a01b0381166121fe5760405162461bcd60e51b815260206004820152602660248201527f4f776e61626c653a206e6577206f776e657220697320746865207a65726f206160448201527f64647265737300000000000000000000000000000000000000000000000000006064820152608401610758565b61220781612eeb565b50565b600c54604080516318160ddd60e01b815290516000926001600160a01b0316916318160ddd9160048083019260209291908290030181865afa158015611ed5573d6000803e3d6000fd5b600f5460ff166122c75760405162461bcd60e51b815260206004820152603860248201527f54686520736d61727420636f6e747261637420686173206265656e20736875746044820152773237bbb7103337b9103a3432903a34b6b2903132b4b7339760411b6064820152608401610758565b6122cf612839565b506122d86129e0565b6040516370a0823160e01b815233600482015281907f00000000000000000000000000000000000000000000000000000000000000006001600160a01b0316906370a0823190602401602060405180830381865afa15801561233e573d6000803e3d6000fd5b505050506040513d601f19601f820116820180604052508101906123629190613c77565b10156123d65760405162461bcd60e51b815260206004820152603c60248201527f596f7520646f206e6f74206861766520656e6f75676820455243323020746f6b60448201527f656e20746f206d616b652074686973207472616e73616374696f6e2e000000006064820152608401610758565b6124027f0000000000000000000000000000000000000000000000000000000000000000333084613116565b61240c3382612e0c565b60405181815233907fbf03741d802bfc2bd535c4e2e8d31c60b076cf0e37fc447d09342a8f338fbd139060200161099e565b6001600160a01b0383166124b95760405162461bcd60e51b8152602060048201526024808201527f45524332303a20617070726f76652066726f6d20746865207a65726f2061646460448201527f72657373000000000000000000000000000000000000000000000000000000006064820152608401610758565b6001600160a01b0382166125355760405162461bcd60e51b815260206004820152602260248201527f45524332303a20617070726f766520746f20746865207a65726f20616464726560448201527f73730000000000000000000000000000000000000000000000000000000000006064820152608401610758565b6001600160a01b0383811660008181526001602090815260408083209487168084529482529182902085905590518481527f8c5be1e5ebec7d5bd14f71427d1e84f3dd0314c0f7b2291e5b200ac8c7c3b925910160405180910390a3505050565b6001600160a01b0383811660009081526001602090815260408083209386168352929052205460001981146110b657818110156126155760405162461bcd60e51b815260206004820152601d60248201527f45524332303a20696e73756666696369656e7420616c6c6f77616e63650000006044820152606401610758565b6110b6848484840361243e565b6001600160a01b03831661269e5760405162461bcd60e51b815260206004820152602560248201527f45524332303a207472616e736665722066726f6d20746865207a65726f20616460448201527f64726573730000000000000000000000000000000000000000000000000000006064820152608401610758565b6001600160a01b03821661271a5760405162461bcd60e51b815260206004820152602360248201527f45524332303a207472616e7366657220746f20746865207a65726f206164647260448201527f65737300000000000000000000000000000000000000000000000000000000006064820152608401610758565b6001600160a01b038316600090815260208190526040902054818110156127a95760405162461bcd60e51b815260206004820152602660248201527f45524332303a207472616e7366657220616d6f756e742065786365656473206260448201527f616c616e636500000000000000000000000000000000000000000000000000006064820152608401610758565b6001600160a01b038085166000908152602081905260408082208585039055918516815290812080548492906127e0908490613c5f565b92505081905550826001600160a01b0316846001600160a01b03167fddf252ad1be2c89b69c2b068fc378daa952ba7f163c4a11628f55a4df523b3ef8460405161282c91815260200190565b60405180910390a36110b6565b600080600c54600160a01b900460ff16600181111561285a5761285a613d7c565b14156128665750600090565b600c805460ff60a01b191690556007544314156128965750600c805460ff60a01b1916600160a01b179055600090565b6005546000906128af90600160a01b900460ff16612d5a565b905080600860008282546128c39190613c5f565b9091555050600c54604080516318160ddd60e01b81529051630faa0280926001600160a01b0316916318160ddd9160048083019260209291908290030181865afa158015612915573d6000803e3d6000fd5b505050506040513d601f19601f820116820180604052508101906129399190613c77565b6129439083613c90565b61294d9190613cc5565b915061295882613555565b60055460009061297190600160a81b900460ff16612d5a565b905080600960008282546129859190613c5f565b9091555050600654600090630faa0280906129a09084613c90565b6129aa9190613cc5565b905080600b60008282546129be9190613c5f565b9091555050436007555050600c805460ff60a01b1916600160a01b1790555090565b604051806060016040528060085481526020016007548152602001612a03612c5e565b9052336000908152600d602090815260409182902083518155908301516001820155910151600290910155565b6040516001600160a01b0383166024820152604481018290526121239084907fa9059cbb00000000000000000000000000000000000000000000000000000000906064015b60408051601f198184030181529190526020810180517bffffffffffffffffffffffffffffffffffffffffffffffffffffffff167fffffffff0000000000000000000000000000000000000000000000000000000090931692909217909152613567565b6001600160a01b038216612b555760405162461bcd60e51b815260206004820152602160248201527f45524332303a206275726e2066726f6d20746865207a65726f2061646472657360448201527f73000000000000000000000000000000000000000000000000000000000000006064820152608401610758565b6001600160a01b03821660009081526020819052604090205481811015612be45760405162461bcd60e51b815260206004820152602260248201527f45524332303a206275726e20616d6f756e7420657863656564732062616c616e60448201527f63650000000000000000000000000000000000000000000000000000000000006064820152608401610758565b6001600160a01b0383166000908152602081905260408120838303905560028054849290612c13908490613d92565b90915550506040518281526000906001600160a01b038516907fddf252ad1be2c89b69c2b068fc378daa952ba7f163c4a11628f55a4df523b3ef9060200160405180910390a3505050565b336000908152600d6020908152604080832081516060810183528154815260018201549381019390935260020154908201528180612c9a61364c565b806020019051810190612cad9190613da9565b604085810151600c5491516370a0823160e01b81523360048201529395509193509091630faa0280916001600160a01b0316906370a0823190602401602060405180830381865afa158015612d06573d6000803e3d6000fd5b505050506040513d601f19601f82011682018060405250810190612d2a9190613c77565b612d348585613c90565b612d3e9190613c90565b612d489190613cc5565b612d529190613c5f565b935050505090565b60008060075443612d6b9190613d92565b905061080660ff841682613c90565b600a54811115612df25760405162461bcd60e51b815260206004820152603060248201527f54686520616d6f756e74206f6620756e636c61696d656420746f6b656e73206160448201527f7265206e6f7420617661696c61626c65000000000000000000000000000000006064820152608401610758565b80600a6000828254612e049190613d92565b909155505050565b6001600160a01b038216612e625760405162461bcd60e51b815260206004820152601f60248201527f45524332303a206d696e7420746f20746865207a65726f2061646472657373006044820152606401610758565b8060026000828254612e749190613c5f565b90915550506001600160a01b03821660009081526020819052604081208054839290612ea1908490613c5f565b90915550506040518181526001600160a01b038316906000907fddf252ad1be2c89b69c2b068fc378daa952ba7f163c4a11628f55a4df523b3ef9060200160405180910390a35050565b600580546001600160a01b0383811673ffffffffffffffffffffffffffffffffffffffff19831681179093556040519116919082907f8be0079c531659141344cd1fd0a4f28419497f9722a3daafe3b4186f6b6457e090600090a35050565b6001600160a01b0382166000908152600e6020908152604080832081516080810183528154815260018201549381019390935260028101549183019190915260030154606082015290612f9c846134a9565b90506040518060800160405280600954815260200160075481526020016000815260200182858560600151612fd19190613c5f565b612fdb9190613c5f565b90526001600160a01b0385166000908152600e60209081526040918290208351815590830151600182015590820151600282015560609091015160039091015561302d6130288483613c5f565b6136e9565b80600b54106130535780600b60008282546130489190613d92565b909155506110b69050565b6000600b54826130639190613d92565b90506509184e72a00081106130df5760405162461bcd60e51b8152602060048201526024808201527f4572726f72207769746820636f6d706f756e64696e6720626f72726f77416d6f60448201527f756e742e000000000000000000000000000000000000000000000000000000006064820152608401610758565b80600b60008282546130f19190613c5f565b9250508190555081600b600082825461310a9190613d92565b90915550505050505050565b6040516001600160a01b03808516602483015283166044820152606481018290526110b69085907f23b872dd0000000000000000000000000000000000000000000000000000000090608401612a75565b6001600160a01b0382166000908152600e602090815260408083208151608080820184528254825260018301548286015260028301548285015260039092015460608083019182528451938401855260095484526007549584019590955292820194909452905190918201906131de908590613d92565b90526001600160a01b0384166000908152600e60209081526040918290208351815590830151600182015590820151600282015560609091015160039091015561212382613497565b600f5460ff1661329a5760405162461bcd60e51b815260206004820152603860248201527f54686520736d61727420636f6e747261637420686173206265656e20736875746044820152773237bbb7103337b9103a3432903a34b6b2903132b4b7339760411b6064820152608401610758565b6001600160a01b0382166000908152600e6020908152604091829020825160808101845281548152600182015492810192909252600281015492820192909252600390910154606082018190526132fb906132f6908490613d92565b613497565b6001600160a01b03808416600090815260126020908152604080832081516060810183528154909516855260018101549285019290925260029091015490830181905260105461334b91906136fb565b82516001600160a01b03166000908152601160209081526040808320828701518452909152902054909150156133c35760405162461bcd60e51b815260206004820152601c60248201527f4572726f72204e465420697320616c7265616479206f6e2073616c65000000006044820152606401610758565b81516001600160a01b039081166000908152601160209081526040808320828701805185529252918290208490558451905191519216917f1de6f257258c4e8f8e5d4511fb425ba216600e9cf6a2b4628322c0b5b469956f916134299190815260200190565b60405180910390a2505050506001600160a01b03166000908152600e602090815260408083208381556001808201859055600280830186905560039092018590556012909352908320805473ffffffffffffffffffffffffffffffffffffffff191681559182018390550155565b8060066000828254612e049190613d92565b6001600160a01b0381166000908152600e6020908152604080832081516080810183528154815260018201549381019390935260028101549183019190915260030154606082015281806134fc85613717565b80602001905181019061350f9190613da9565b915091508260400151630faa02808460600151848461352e9190613c90565b6135389190613c90565b6135429190613cc5565b61354c9190613c5f565b95945050505050565b80600a6000828254612e049190613c5f565b60006135bc826040518060400160405280602081526020017f5361666545524332303a206c6f772d6c6576656c2063616c6c206661696c6564815250856001600160a01b03166137ca9092919063ffffffff16565b80519091501561212357808060200190518101906135da9190613dcd565b6121235760405162461bcd60e51b815260206004820152602a60248201527f5361666545524332303a204552433230206f7065726174696f6e20646964206e60448201527f6f742073756363656564000000000000000000000000000000000000000000006064820152608401610758565b336000908152600d60209081526040808320815160608181018452825482526001830154948201859052600290920154928101929092526007549093919261369391613d92565b9050600081156136be5782516008546000916136ae91613d92565b90506136ba8382613cc5565b9150505b6040805160208101849052908101829052606001604051602081830303815290604052935050505090565b8060066000828254612e049190613c5f565b60006137078284613cc5565b9050806106fc5750600192915050565b6001600160a01b0381166000908152600e602090815260408083208151608081018352815481526001820154938101849052600282015492810192909252600301546060828101919091526007549093919261377291613d92565b90506000811561379d57825160095460009161378d91613d92565b90506137998382613cc5565b9150505b60408051602081018490529081018290526060016040516020818303038152906040529350505050919050565b60606137d984846000856137e1565b949350505050565b6060824710156138595760405162461bcd60e51b815260206004820152602660248201527f416464726573733a20696e73756666696369656e742062616c616e636520666f60448201527f722063616c6c00000000000000000000000000000000000000000000000000006064820152608401610758565b6001600160a01b0385163b6138b05760405162461bcd60e51b815260206004820152601d60248201527f416464726573733a2063616c6c20746f206e6f6e2d636f6e74726163740000006044820152606401610758565b600080866001600160a01b031685876040516138cc9190613def565b60006040518083038185875af1925050503d8060008114613909576040519150601f19603f3d011682016040523d82523d6000602084013e61390e565b606091505b509150915061391e828286613929565b979650505050505050565b60608315613938575081610806565b8251156139485782518084602001fd5b8160405162461bcd60e51b815260040161075891906139c0565b6001600160a01b038116811461220757600080fd5b60006020828403121561398957600080fd5b813561080681613962565b60005b838110156139af578181015183820152602001613997565b838111156110b65750506000910152565b60208152600082518060208401526139df816040850160208701613994565b601f01601f19169190910160400192915050565b60008060408385031215613a0657600080fd5b8235613a1181613962565b946020939093013593505050565b600080600080600060808688031215613a3757600080fd5b8535613a4281613962565b94506020860135613a5281613962565b935060408601359250606086013567ffffffffffffffff80821115613a7657600080fd5b818801915088601f830112613a8a57600080fd5b813581811115613a9957600080fd5b896020828501011115613aab57600080fd5b9699959850939650602001949392505050565b600060208284031215613ad057600080fd5b813560ff8116811461080657600080fd5b600080600060608486031215613af657600080fd5b8335613b0181613962565b92506020840135613b1181613962565b929592945050506040919091013590565b600060208284031215613b3457600080fd5b5035919050565b60008060008060808587031215613b5157600080fd5b8435613b5c81613962565b9350602085013592506040850135613b7381613962565b9396929550929360600135925050565b600080600080600060a08688031215613b9b57600080fd5b8535613ba681613962565b945060208601359350604086013592506060860135613bc481613962565b949793965091946080013592915050565b60008060408385031215613be857600080fd5b8235613bf381613962565b91506020830135613c0381613962565b809150509250929050565b600181811c90821680613c2257607f821691505b60208210811415613c4357634e487b7160e01b600052602260045260246000fd5b50919050565b634e487b7160e01b600052601160045260246000fd5b60008219821115613c7257613c72613c49565b500190565b600060208284031215613c8957600080fd5b5051919050565b6000816000190483118215151615613caa57613caa613c49565b500290565b634e487b7160e01b600052601260045260246000fd5b600082613cd457613cd4613caf565b500490565b600080831283600160ff1b01831281151615613cf757613cf7613c49565b837f7fffffffffffffffffffffffffffffffffffffffffffffffffffffffffffffff018313811615613d2b57613d2b613c49565b50500390565b600082613d4057613d40613caf565b600160ff1b821460001984141615613d5a57613d5a613c49565b500590565b600060208284031215613d7157600080fd5b815161080681613962565b634e487b7160e01b600052602160045260246000fd5b600082821015613da457613da4613c49565b500390565b60008060408385031215613dbc57600080fd5b505080516020909101519092909150565b600060208284031215613ddf57600080fd5b8151801515811461080657600080fd5b60008251613e01818460208701613994565b919091019291505056fea264697066735822122054004cde73316c4a4f45181639ce0bf5d1e8123caa11b8ce5b3f29d72845475664736f6c634300080a0033",
  "linkReferences": {},
  "deployedLinkReferences": {}
}