{
  "_format": "hh-sol-artifact-1",
  "contractName": "NERC20",
  "sourceName": "contracts/NERC20.sol",
  "abi": [
    {
      "inputs": [
        {
          "internalType": "string",
          "name": "name_",
          "type": "string"
        },
        {
          "internalType": "string",
          "name": "symbol_",
          "type": "string"
        },
        {
          "internalType": "uint8",
          "name": "decimals_",
          "type": "uint8"
        },
        {
          "internalType": "contract IERC20",
          "name": "tokenAddress_",
          "type": "address"
        }
      ],
      "stateMutability": "nonpayable",
      "type": "constructor"
    },
    {
      "anonymous": false,
      "inputs": [
        {
          "indexed": true,
          "internalType": "address",
          "name": "owner",
          "type": "address"
        },
        {
          "indexed": true,
          "internalType": "address",
          "name": "spender",
          "type": "address"
        },
        {
          "indexed": false,
          "internalType": "uint256",
          "name": "value",
          "type": "uint256"
        }
      ],
      "name": "Approval",
      "type": "event"
    },
    {
      "anonymous": false,
      "inputs": [
        {
          "indexed": true,
          "internalType": "address",
          "name": "from",
          "type": "address"
        },
        {
          "indexed": true,
          "internalType": "address",
          "name": "to",
          "type": "address"
        },
        {
          "indexed": false,
          "internalType": "uint256",
          "name": "value",
          "type": "uint256"
        }
      ],
      "name": "Transfer",
      "type": "event"
    },
    {
      "inputs": [],
      "name": "accrueInterest",
      "outputs": [
        {
          "internalType": "uint256",
          "name": "accruedInterestAmount",
          "type": "uint256"
        }
      ],
      "stateMutability": "nonpayable",
      "type": "function"
    },
    {
      "inputs": [
        {
          "internalType": "address",
          "name": "owner",
          "type": "address"
        },
        {
          "internalType": "address",
          "name": "spender",
          "type": "address"
        }
      ],
      "name": "allowance",
      "outputs": [
        {
          "internalType": "uint256",
          "name": "",
          "type": "uint256"
        }
      ],
      "stateMutability": "view",
      "type": "function"
    },
    {
      "inputs": [
        {
          "internalType": "address",
          "name": "spender",
          "type": "address"
        },
        {
          "internalType": "uint256",
          "name": "amount",
          "type": "uint256"
        }
      ],
      "name": "approve",
      "outputs": [
        {
          "internalType": "bool",
          "name": "",
          "type": "bool"
        }
      ],
      "stateMutability": "nonpayable",
      "type": "function"
    },
    {
      "inputs": [
        {
          "internalType": "address",
          "name": "account",
          "type": "address"
        }
      ],
      "name": "balanceOf",
      "outputs": [
        {
          "internalType": "uint256",
          "name": "",
          "type": "uint256"
        }
      ],
      "stateMutability": "view",
      "type": "function"
    },
    {
      "inputs": [
        {
          "internalType": "uint256",
          "name": "amount",
          "type": "uint256"
        },
        {
          "internalType": "uint256",
          "name": "nftCollateral",
          "type": "uint256"
        },
        {
          "internalType": "contract IERC721",
          "name": "NFTContract",
          "type": "address"
        },
        {
          "internalType": "uint256",
          "name": "tokenId",
          "type": "uint256"
        }
      ],
      "name": "borrowTokens",
      "outputs": [],
      "stateMutability": "nonpayable",
      "type": "function"
    },
    {
      "inputs": [],
      "name": "claimAccruedTokens",
      "outputs": [],
      "stateMutability": "nonpayable",
      "type": "function"
    },
    {
      "inputs": [],
      "name": "decimals",
      "outputs": [
        {
          "internalType": "uint8",
          "name": "",
          "type": "uint8"
        }
      ],
      "stateMutability": "view",
      "type": "function"
    },
    {
      "inputs": [
        {
          "internalType": "address",
          "name": "spender",
          "type": "address"
        },
        {
          "internalType": "uint256",
          "name": "subtractedValue",
          "type": "uint256"
        }
      ],
      "name": "decreaseAllowance",
      "outputs": [
        {
          "internalType": "bool",
          "name": "",
          "type": "bool"
        }
      ],
      "stateMutability": "nonpayable",
      "type": "function"
    },
    {
      "inputs": [],
      "name": "getAmountBorrowed",
      "outputs": [
        {
          "internalType": "uint256",
          "name": "amountBorrowed",
          "type": "uint256"
        }
      ],
      "stateMutability": "view",
      "type": "function"
    },
    {
      "inputs": [],
      "name": "getAmountInvested",
      "outputs": [
        {
          "internalType": "uint256",
          "name": "amountInvested",
          "type": "uint256"
        }
      ],
      "stateMutability": "view",
      "type": "function"
    },
    {
      "inputs": [],
      "name": "getRepayAmount",
      "outputs": [
        {
          "internalType": "uint256",
          "name": "repayAmount",
          "type": "uint256"
        }
      ],
      "stateMutability": "view",
      "type": "function"
    },
    {
      "inputs": [
        {
          "internalType": "address",
          "name": "spender",
          "type": "address"
        },
        {
          "internalType": "uint256",
          "name": "addedValue",
          "type": "uint256"
        }
      ],
      "name": "increaseAllowance",
      "outputs": [
        {
          "internalType": "bool",
          "name": "",
          "type": "bool"
        }
      ],
      "stateMutability": "nonpayable",
      "type": "function"
    },
    {
      "inputs": [],
      "name": "name",
      "outputs": [
        {
          "internalType": "string",
          "name": "",
          "type": "string"
        }
      ],
      "stateMutability": "view",
      "type": "function"
    },
    {
      "inputs": [
        {
          "internalType": "address",
          "name": "",
          "type": "address"
        }
      ],
      "name": "nftOwnerMapping",
      "outputs": [
        {
          "internalType": "contract IERC721",
          "name": "NFTContract",
          "type": "address"
        },
        {
          "internalType": "uint256",
          "name": "tokenId",
          "type": "uint256"
        },
        {
          "internalType": "uint256",
          "name": "nftCollateral",
          "type": "uint256"
        }
      ],
      "stateMutability": "view",
      "type": "function"
    },
    {
      "inputs": [
        {
          "internalType": "address",
          "name": "operator",
          "type": "address"
        },
        {
          "internalType": "address",
          "name": "from",
          "type": "address"
        },
        {
          "internalType": "uint256",
          "name": "tokenId",
          "type": "uint256"
        },
        {
          "internalType": "bytes",
          "name": "data",
          "type": "bytes"
        }
      ],
      "name": "onERC721Received",
      "outputs": [
        {
          "internalType": "bytes4",
          "name": "",
          "type": "bytes4"
        }
      ],
      "stateMutability": "nonpayable",
      "type": "function"
    },
    {
      "inputs": [
        {
          "internalType": "uint256",
          "name": "amount",
          "type": "uint256"
        }
      ],
      "name": "repayBorrowAmount",
      "outputs": [],
      "stateMutability": "nonpayable",
      "type": "function"
    },
    {
      "inputs": [],
      "name": "repayFullBorrowAmount",
      "outputs": [],
      "stateMutability": "nonpayable",
      "type": "function"
    },
    {
      "inputs": [
        {
          "internalType": "uint256",
          "name": "amount",
          "type": "uint256"
        }
      ],
      "name": "supplyTokens",
      "outputs": [],
      "stateMutability": "nonpayable",
      "type": "function"
    },
    {
      "inputs": [],
      "name": "symbol",
      "outputs": [
        {
          "internalType": "string",
          "name": "",
          "type": "string"
        }
      ],
      "stateMutability": "view",
      "type": "function"
    },
    {
      "inputs": [],
      "name": "totalAmountBorrowed",
      "outputs": [
        {
          "internalType": "uint256",
          "name": "",
          "type": "uint256"
        }
      ],
      "stateMutability": "view",
      "type": "function"
    },
    {
      "inputs": [],
      "name": "totalSupply",
      "outputs": [
        {
          "internalType": "uint256",
          "name": "",
          "type": "uint256"
        }
      ],
      "stateMutability": "view",
      "type": "function"
    },
    {
      "inputs": [
        {
          "internalType": "address",
          "name": "to",
          "type": "address"
        },
        {
          "internalType": "uint256",
          "name": "amount",
          "type": "uint256"
        }
      ],
      "name": "transfer",
      "outputs": [
        {
          "internalType": "bool",
          "name": "",
          "type": "bool"
        }
      ],
      "stateMutability": "nonpayable",
      "type": "function"
    },
    {
      "inputs": [
        {
          "internalType": "address",
          "name": "from",
          "type": "address"
        },
        {
          "internalType": "address",
          "name": "to",
          "type": "address"
        },
        {
          "internalType": "uint256",
          "name": "amount",
          "type": "uint256"
        }
      ],
      "name": "transferFrom",
      "outputs": [
        {
          "internalType": "bool",
          "name": "",
          "type": "bool"
        }
      ],
      "stateMutability": "nonpayable",
      "type": "function"
    },
    {
      "inputs": [],
      "name": "viewAccruedTokensAmount",
      "outputs": [
        {
          "internalType": "uint256",
          "name": "accruedTokenAmount",
          "type": "uint256"
        }
      ],
      "stateMutability": "view",
      "type": "function"
    },
    {
      "inputs": [],
      "name": "viewBorrowAccruedTokensAmount",
      "outputs": [
        {
          "internalType": "uint256",
          "name": "accruedTokenAmount",
          "type": "uint256"
        }
      ],
      "stateMutability": "view",
      "type": "function"
    },
    {
      "inputs": [
        {
          "internalType": "uint256",
          "name": "amount",
          "type": "uint256"
        }
      ],
      "name": "withdrawTokens",
      "outputs": [],
      "stateMutability": "nonpayable",
      "type": "function"
    }
  ],
  "bytecode": "0x60c06040526005805461ffff1916610c05179055600c80546001600160a81b0319163060ff60a01b191617600160a01b1790553480156200003f57600080fd5b5060405162002cac38038062002cac833981016040819052620000629162000227565b8351849084906200007b906003906020850190620000b4565b50805162000091906004906020840190620000b4565b50505060ff9091166080526001600160a01b031660a05250504360075562000308565b828054620000c290620002cb565b90600052602060002090601f016020900481019282620000e6576000855562000131565b82601f106200010157805160ff191683800117855562000131565b8280016001018555821562000131579182015b828111156200013157825182559160200191906001019062000114565b506200013f92915062000143565b5090565b5b808211156200013f576000815560010162000144565b634e487b7160e01b600052604160045260246000fd5b600082601f8301126200018257600080fd5b81516001600160401b03808211156200019f576200019f6200015a565b604051601f8301601f19908116603f01168101908282118183101715620001ca57620001ca6200015a565b81604052838152602092508683858801011115620001e757600080fd5b600091505b838210156200020b5785820183015181830184015290820190620001ec565b838211156200021d5760008385830101525b9695505050505050565b600080600080608085870312156200023e57600080fd5b84516001600160401b03808211156200025657600080fd5b620002648883890162000170565b955060208701519150808211156200027b57600080fd5b506200028a8782880162000170565b935050604085015160ff81168114620002a257600080fd5b60608601519092506001600160a01b0381168114620002c057600080fd5b939692955090935050565b600181811c90821680620002e057607f821691505b602082108114156200030257634e487b7160e01b600052602260045260246000fd5b50919050565b60805160a051612946620003666000396000818161067e015281816108bc015281816109e401528181610edf01528181610feb015281816111d0015281816113a3015281816113f101526114dd015260006102a901526129466000f3fe608060405234801561001057600080fd5b50600436106101ae5760003560e01c8063735b1915116100ee578063a9059cbb11610097578063b5596b9211610071578063b5596b921461039d578063d1d66f7d146103b0578063dd62ed3e1461040e578063fd5eddf31461044757600080fd5b8063a9059cbb1461036f578063a952ae2114610382578063aaefc4f41461038a57600080fd5b806395d89b41116100c857806395d89b411461034c578063a457c2d714610354578063a6afed951461036757600080fd5b8063735b19151461033457806375a6cce41461033c578063857865ec1461034457600080fd5b8063270c8a311161015b578063395093511161013557806339509351146102e857806366c83f6f146102fb57806368aa59861461030357806370a082311461030b57600080fd5b8063270c8a311461029a578063313ce567146102a2578063315a095d146102d357600080fd5b806318160ddd1161018c57806318160ddd1461025d5780631cfc86e41461026f57806323b872dd1461028757600080fd5b806306fdde03146101b3578063095ea7b3146101d1578063150b7a02146101f4575b600080fd5b6101bb61045a565b6040516101c8919061252e565b60405180910390f35b6101e46101df366004612576565b6104ec565b60405190151581526020016101c8565b61022c6102023660046125a2565b7f150b7a023d4804d13e8c85fb27262cb750cf6ba9f9dd3bb30d90f482ceeb4b1f95945050505050565b6040517fffffffff0000000000000000000000000000000000000000000000000000000090911681526020016101c8565b6002545b6040519081526020016101c8565b336000908152600e6020526040902060030154610261565b6101e4610295366004612641565b610504565b61026161052a565b60405160ff7f00000000000000000000000000000000000000000000000000000000000000001681526020016101c8565b6102e66102e1366004612682565b6105b9565b005b6101e46102f6366004612576565b6106b1565b6102616106f0565b6102e66107a1565b61026161031936600461269b565b6001600160a01b031660009081526020819052604090205490565b600654610261565b6102e661083a565b610261610b20565b6101bb610b47565b6101e4610362366004612576565b610b56565b610261610c0b565b6101e461037d366004612576565b610dc2565b610261610dd0565b6102e6610398366004612682565b610e3d565b6102e66103ab3660046126b8565b6110ca565b6103e96103be36600461269b565b600f602052600090815260409020805460018201546002909201546001600160a01b03909116919083565b604080516001600160a01b0390941684526020840192909252908201526060016101c8565b61026161041c3660046126f7565b6001600160a01b03918216600090815260016020908152604080832093909416825291909152205490565b6102e6610455366004612682565b6113c9565b60606003805461046990612730565b80601f016020809104026020016040519081016040528092919081815260200182805461049590612730565b80156104e25780601f106104b7576101008083540402835291602001916104e2565b820191906000526020600020905b8154815290600101906020018083116104c557829003601f168201915b5050505050905090565b6000336104fa81858561150e565b5060019392505050565b600033610512858285611666565b61051d8585856116f2565b60019150505b9392505050565b336000908152600e60209081526040808320815160808101835281548152600182015493810193909352600281015491830191909152600301546060820152610571611909565b9150630faa02808160600151610595600560019054906101000a900460ff166119aa565b61059f9190612781565b6105a991906127b6565b6105b390836127ca565b91505090565b6105c1610c0b565b506105ca6119ca565b3360009081526020819052604090205481106106795760405162461bcd60e51b815260206004820152604160248201527f596f7520646f206e6f74206861766520656e6f75676820636f6c6c617465726160448201527f6c20746f6b656e7320746f207769746864726177207468697320616d6f756e7460648201527f2e00000000000000000000000000000000000000000000000000000000000000608482015260a4015b60405180910390fd5b6106a47f00000000000000000000000000000000000000000000000000000000000000003383611a1a565b6106ae3382611ac3565b50565b3360008181526001602090815260408083206001600160a01b03871684529091528120549091906104fa90829086906106eb9087906127ca565b61150e565b60006106fa611c48565b600c546040516370a0823160e01b8152336004820152919250630faa0280916001600160a01b03909116906370a0823190602401602060405180830381865afa15801561074b573d6000803e3d6000fd5b505050506040513d601f19601f8201168201806040525081019061076f91906127e2565b60055461077e9060ff166119aa565b6107889190612781565b61079291906127b6565b61079c90826127ca565b905090565b6107a9610c0b565b50336000908152600d602090815260409182902082516060810184528154815260018201549281019290925260020154918101829052906107e990611d1e565b6107f7338260400151611db0565b5060408051606081018252600854815260075460208083019182526000838501818152338252600d90925293909320915182555160018201559051600290910155565b610842610c0b565b5061084d6000611e8f565b336000908152600e6020908152604080832081516080810183528154815260018201549381019390935260028101549183018290526003015460608301819052919291610899916127ca565b6040516370a0823160e01b81523360048201529091506000906001600160a01b037f000000000000000000000000000000000000000000000000000000000000000016906370a0823190602401602060405180830381865afa158015610903573d6000803e3d6000fd5b505050506040513d601f19601f8201168201806040525081019061092791906127e2565b336000908152600f6020908152604091829020825160608101845281546001600160a01b031681526001820154928101929092526002015491810191909152909150828210156109df5760405162461bcd60e51b815260206004820152603060248201527f596f7520646f206e6f74206861766520656e6f75676820746f2072657061792060448201527f616c6c206f6620796f75722064656274000000000000000000000000000000006064820152608401610670565b610a0b7f000000000000000000000000000000000000000000000000000000000000000033308661204d565b80516020820151604051632142170760e11b815230600482015233602482015260448101919091526001600160a01b03909116906342842e0e90606401600060405180830381600087803b158015610a6257600080fd5b505af1158015610a76573d6000803e3d6000fd5b505050508260066000828254610a8c91906127fb565b9091555050336000908152600e60209081526040808320838155600180820185905560028083018690556003909201859055600f909352908320805473ffffffffffffffffffffffffffffffffffffffff1916815591820183905501556060840151610af9908390612812565b60028260400151610b0a919061286a565b1215610b1a57610b1a338361209e565b50505050565b6000610b2a61052a565b336000908152600e602052604090206003015461079c91906127ca565b60606004805461046990612730565b3360008181526001602090815260408083206001600160a01b038716845290915281205490919083811015610bf35760405162461bcd60e51b815260206004820152602560248201527f45524332303a2064656372656173656420616c6c6f77616e63652062656c6f7760448201527f207a65726f0000000000000000000000000000000000000000000000000000006064820152608401610670565b610c00828686840361150e565b506001949350505050565b600080600c54600160a01b900460ff166001811115610c2c57610c2c612898565b1415610c385750600090565b600c805460ff60a01b19169055600754431415610c685750600c805460ff60a01b1916600160a01b179055600090565b600554600090610c7a9060ff166119aa565b90508060086000828254610c8e91906127ca565b9091555050600c54604080517f18160ddd0000000000000000000000000000000000000000000000000000000081529051630faa0280926001600160a01b0316916318160ddd9160048083019260209291908290030181865afa158015610cf9573d6000803e3d6000fd5b505050506040513d601f19601f82011682018060405250810190610d1d91906127e2565b610d279083612781565b610d3191906127b6565b9150610d3c82612169565b600554600090610d5390610100900460ff166119aa565b90508060096000828254610d6791906127ca565b9091555050600654600090630faa028090610d829084612781565b610d8c91906127b6565b905080600b6000828254610da091906127ca565b9091555050436007555050600c805460ff60a01b1916600160a01b1790555090565b6000336104fa8185856116f2565b600c546040516370a0823160e01b81523360048201526000916001600160a01b0316906370a0823190602401602060405180830381865afa158015610e19573d6000803e3d6000fd5b505050506040513d601f19601f8201168201806040525081019061079c91906127e2565b610e45610c0b565b50610e506000611e8f565b336000818152600f6020908152604080832081516060808201845282546001600160a01b0390811683526001808501548488015260029485015484870152888852600e875296859020855160808101875281548152978101549688019690965292850154868501526003909401549385019390935290516370a0823160e01b81526004810194909452909284917f000000000000000000000000000000000000000000000000000000000000000016906370a0823190602401602060405180830381865afa158015610f26573d6000803e3d6000fd5b505050506040513d601f19601f82011682018060405250810190610f4a91906127e2565b1015610fbe5760405162461bcd60e51b815260206004820152603660248201527f596f7520646f206e6f74206861766520656e6f75676820455243323020746f6b60448201527f656e20746f20706179207468697320616d6f756e742e000000000000000000006064820152608401610670565b8281604001518260600151610fd391906127ca565b1015610fe657610fe161083a565b611094565b6110127f000000000000000000000000000000000000000000000000000000000000000033308661204d565b6040518060800160405280600954815260200160075481526020016000815260200184836060015161104491906127fb565b9052336000908152600e602090815260408083208451815591840151600183015583015160028201556060909201516003909201919091556006805485929061108e9084906127fb565b90915550505b8281606001516110a49190612812565b600283604001516110b5919061286a565b12156110c5576110c5338461209e565b505050565b6110d2610c0b565b50336000908152600f60205260409020546001600160a01b03161561115f5760405162461bcd60e51b815260206004820152602560248201527f596f7520616c726561647920686176652061204e465420617320636f6c6c617460448201527f6572616c2e0000000000000000000000000000000000000000000000000000006064820152608401610670565b61116a6004846127b6565b8410156111b95760405162461bcd60e51b815260206004820152601d60248201527f4e465420416d6f756e74206973206e6f74206869676820656e6f7567680000006044820152606401610670565b6040516370a0823160e01b815230600482015284907f00000000000000000000000000000000000000000000000000000000000000006001600160a01b0316906370a0823190602401602060405180830381865afa15801561121f573d6000803e3d6000fd5b505050506040513d601f19601f8201168201806040525081019061124391906127e2565b10156112b75760405162461bcd60e51b815260206004820152602e60248201527f576520646f206e6f74206861766520656e6f7567682066756e647320746f206660448201527f756e642074686973206c6f616e2e0000000000000000000000000000000000006064820152608401610670565b6112c084611e8f565b604080516060810182526001600160a01b038481168083526020808401868152848601898152336000818152600f909452928790209551865473ffffffffffffffffffffffffffffffffffffffff1916951694909417855551600185015591516002909301929092559151632142170760e11b8152600481019290925230602483015260448201839052906342842e0e90606401600060405180830381600087803b15801561136e57600080fd5b505af1158015611382573d6000803e3d6000fd5b50505050836006600082825461139891906127ca565b90915550610b1a90507f00000000000000000000000000000000000000000000000000000000000000003386611a1a565b6113d1610c0b565b506113da6119ca565b6040516370a0823160e01b815233600482015281907f00000000000000000000000000000000000000000000000000000000000000006001600160a01b0316906370a0823190602401602060405180830381865afa158015611440573d6000803e3d6000fd5b505050506040513d601f19601f8201168201806040525081019061146491906127e2565b10156114d85760405162461bcd60e51b815260206004820152603c60248201527f596f7520646f206e6f74206861766520656e6f75676820455243323020746f6b60448201527f656e20746f206d616b652074686973207472616e73616374696f6e2e000000006064820152608401610670565b6115047f000000000000000000000000000000000000000000000000000000000000000033308461204d565b6106ae3382611db0565b6001600160a01b0383166115895760405162461bcd60e51b8152602060048201526024808201527f45524332303a20617070726f76652066726f6d20746865207a65726f2061646460448201527f72657373000000000000000000000000000000000000000000000000000000006064820152608401610670565b6001600160a01b0382166116055760405162461bcd60e51b815260206004820152602260248201527f45524332303a20617070726f766520746f20746865207a65726f20616464726560448201527f73730000000000000000000000000000000000000000000000000000000000006064820152608401610670565b6001600160a01b0383811660008181526001602090815260408083209487168084529482529182902085905590518481527f8c5be1e5ebec7d5bd14f71427d1e84f3dd0314c0f7b2291e5b200ac8c7c3b925910160405180910390a3505050565b6001600160a01b038381166000908152600160209081526040808320938616835292905220546000198114610b1a57818110156116e55760405162461bcd60e51b815260206004820152601d60248201527f45524332303a20696e73756666696369656e7420616c6c6f77616e63650000006044820152606401610670565b610b1a848484840361150e565b6001600160a01b03831661176e5760405162461bcd60e51b815260206004820152602560248201527f45524332303a207472616e736665722066726f6d20746865207a65726f20616460448201527f64726573730000000000000000000000000000000000000000000000000000006064820152608401610670565b6001600160a01b0382166117ea5760405162461bcd60e51b815260206004820152602360248201527f45524332303a207472616e7366657220746f20746865207a65726f206164647260448201527f65737300000000000000000000000000000000000000000000000000000000006064820152608401610670565b6001600160a01b038316600090815260208190526040902054818110156118795760405162461bcd60e51b815260206004820152602660248201527f45524332303a207472616e7366657220616d6f756e742065786365656473206260448201527f616c616e636500000000000000000000000000000000000000000000000000006064820152608401610670565b6001600160a01b038085166000908152602081905260408082208585039055918516815290812080548492906118b09084906127ca565b92505081905550826001600160a01b0316846001600160a01b03167fddf252ad1be2c89b69c2b068fc378daa952ba7f163c4a11628f55a4df523b3ef846040516118fc91815260200190565b60405180910390a3610b1a565b336000908152600e60209081526040808320815160808101835281548152600182015493810193909352600281015491830191909152600301546060820152818061195261217b565b80602001905181019061196591906128ae565b915091508260400151630faa0280846060015184846119849190612781565b61198e9190612781565b61199891906127b6565b6119a291906127ca565b935050505090565b600080600754436119bb91906127fb565b905061052360ff841682612781565b6040518060600160405280600854815260200160075481526020016119ed611c48565b9052336000908152600d602090815260409182902083518155908301516001820155910151600290910155565b6040516001600160a01b0383166024820152604481018290526110c59084907fa9059cbb00000000000000000000000000000000000000000000000000000000906064015b60408051601f198184030181529190526020810180517bffffffffffffffffffffffffffffffffffffffffffffffffffffffff167fffffffff0000000000000000000000000000000000000000000000000000000090931692909217909152612223565b6001600160a01b038216611b3f5760405162461bcd60e51b815260206004820152602160248201527f45524332303a206275726e2066726f6d20746865207a65726f2061646472657360448201527f73000000000000000000000000000000000000000000000000000000000000006064820152608401610670565b6001600160a01b03821660009081526020819052604090205481811015611bce5760405162461bcd60e51b815260206004820152602260248201527f45524332303a206275726e20616d6f756e7420657863656564732062616c616e60448201527f63650000000000000000000000000000000000000000000000000000000000006064820152608401610670565b6001600160a01b0383166000908152602081905260408120838303905560028054849290611bfd9084906127fb565b90915550506040518281526000906001600160a01b038516907fddf252ad1be2c89b69c2b068fc378daa952ba7f163c4a11628f55a4df523b3ef9060200160405180910390a3505050565b336000908152600d6020908152604080832081516060810183528154815260018201549381019390935260020154908201528180611c84612308565b806020019051810190611c9791906128ae565b604085810151600c5491516370a0823160e01b81523360048201529395509193509091630faa0280916001600160a01b0316906370a0823190602401602060405180830381865afa158015611cf0573d6000803e3d6000fd5b505050506040513d601f19601f82011682018060405250810190611d1491906127e2565b6119848585612781565b600a54811115611d965760405162461bcd60e51b815260206004820152603060248201527f54686520616d6f756e74206f6620756e636c61696d656420746f6b656e73206160448201527f7265206e6f7420617661696c61626c65000000000000000000000000000000006064820152608401610670565b80600a6000828254611da891906127fb565b909155505050565b6001600160a01b038216611e065760405162461bcd60e51b815260206004820152601f60248201527f45524332303a206d696e7420746f20746865207a65726f2061646472657373006044820152606401610670565b8060026000828254611e1891906127ca565b90915550506001600160a01b03821660009081526020819052604081208054839290611e459084906127ca565b90915550506040518181526001600160a01b038316906000907fddf252ad1be2c89b69c2b068fc378daa952ba7f163c4a11628f55a4df523b3ef9060200160405180910390a35050565b336000908152600e6020908152604080832081516080810183528154815260018201549381019390935260028101549183019190915260030154606082015290611ed7611909565b90506040518060800160405280600954815260200160075481526020016000815260200182858560600151611f0c91906127ca565b611f1691906127ca565b9052336000908152600e6020908152604080832084518155918401516001830155830151600282015560609092015160039092019190915560068054839290611f609084906127ca565b9091555050600b548111611f8b5780600b6000828254611f8091906127fb565b909155506110c59050565b6000600b5482611f9b91906127fb565b90506509184e72a00081106120175760405162461bcd60e51b8152602060048201526024808201527f4572726f72207769746820636f6d706f756e64696e6720626f72726f77416d6f60448201527f756e742e000000000000000000000000000000000000000000000000000000006064820152608401610670565b80600b600082825461202991906127ca565b9250508190555081600b600082825461204291906127fb565b909155505050505050565b6040516001600160a01b0380851660248301528316604482015260648101829052610b1a9085907f23b872dd0000000000000000000000000000000000000000000000000000000090608401611a5f565b6001600160a01b0382166000908152600e6020908152604091829020825160808101845281548152600182015492810192909252600281015492820192909252600390910154606082018190526120f69083906127fb565b6006600082825461210791906127fb565b9091555050336000908152600e60209081526040808320838155600180820185905560028083018690556003909201859055600f909352908320805473ffffffffffffffffffffffffffffffffffffffff191681559182018390550155505050565b80600a6000828254611da891906127ca565b336000908152600e60209081526040808320815160808101835281548152600182015493810184905260028201549281019290925260030154606082810191909152600754909391926121cd916127fb565b9050600081156121f85782516009546000916121e8916127fb565b90506121f483826127b6565b9150505b6040805160208101849052908101829052606001604051602081830303815290604052935050505090565b6000612278826040518060400160405280602081526020017f5361666545524332303a206c6f772d6c6576656c2063616c6c206661696c6564815250856001600160a01b031661236a9092919063ffffffff16565b8051909150156110c5578080602001905181019061229691906128d2565b6110c55760405162461bcd60e51b815260206004820152602a60248201527f5361666545524332303a204552433230206f7065726174696f6e20646964206e60448201527f6f742073756363656564000000000000000000000000000000000000000000006064820152608401610670565b336000908152600d60209081526040808320815160608181018452825482526001830154948201859052600290920154928101929092526007549093919261234f916127fb565b9050600081156121f85782516008546000916121e8916127fb565b60606123798484600085612381565b949350505050565b6060824710156123f95760405162461bcd60e51b815260206004820152602660248201527f416464726573733a20696e73756666696369656e742062616c616e636520666f60448201527f722063616c6c00000000000000000000000000000000000000000000000000006064820152608401610670565b6001600160a01b0385163b6124505760405162461bcd60e51b815260206004820152601d60248201527f416464726573733a2063616c6c20746f206e6f6e2d636f6e74726163740000006044820152606401610670565b600080866001600160a01b0316858760405161246c91906128f4565b60006040518083038185875af1925050503d80600081146124a9576040519150601f19603f3d011682016040523d82523d6000602084013e6124ae565b606091505b50915091506124be8282866124c9565b979650505050505050565b606083156124d8575081610523565b8251156124e85782518084602001fd5b8160405162461bcd60e51b8152600401610670919061252e565b60005b8381101561251d578181015183820152602001612505565b83811115610b1a5750506000910152565b602081526000825180602084015261254d816040850160208701612502565b601f01601f19169190910160400192915050565b6001600160a01b03811681146106ae57600080fd5b6000806040838503121561258957600080fd5b823561259481612561565b946020939093013593505050565b6000806000806000608086880312156125ba57600080fd5b85356125c581612561565b945060208601356125d581612561565b935060408601359250606086013567ffffffffffffffff808211156125f957600080fd5b818801915088601f83011261260d57600080fd5b81358181111561261c57600080fd5b89602082850101111561262e57600080fd5b9699959850939650602001949392505050565b60008060006060848603121561265657600080fd5b833561266181612561565b9250602084013561267181612561565b929592945050506040919091013590565b60006020828403121561269457600080fd5b5035919050565b6000602082840312156126ad57600080fd5b813561052381612561565b600080600080608085870312156126ce57600080fd5b843593506020850135925060408501356126e781612561565b9396929550929360600135925050565b6000806040838503121561270a57600080fd5b823561271581612561565b9150602083013561272581612561565b809150509250929050565b600181811c9082168061274457607f821691505b6020821081141561276557634e487b7160e01b600052602260045260246000fd5b50919050565b634e487b7160e01b600052601160045260246000fd5b600081600019048311821515161561279b5761279b61276b565b500290565b634e487b7160e01b600052601260045260246000fd5b6000826127c5576127c56127a0565b500490565b600082198211156127dd576127dd61276b565b500190565b6000602082840312156127f457600080fd5b5051919050565b60008282101561280d5761280d61276b565b500390565b600080831283600160ff1b018312811516156128305761283061276b565b837f7fffffffffffffffffffffffffffffffffffffffffffffffffffffffffffffff0183138116156128645761286461276b565b50500390565b600082612879576128796127a0565b600160ff1b8214600019841416156128935761289361276b565b500590565b634e487b7160e01b600052602160045260246000fd5b600080604083850312156128c157600080fd5b505080516020909101519092909150565b6000602082840312156128e457600080fd5b8151801515811461052357600080fd5b60008251612906818460208701612502565b919091019291505056fea26469706673582212207da896abe19f67e08426ede61790ddb979f8264ff82668703f69727b65077cb464736f6c634300080a0033",
  "linkReferences": {},
  "deployedLinkReferences": {}
}