{
  "_format": "hh-sol-artifact-1",
  "contractName": "NERC20",
  "sourceName": "contracts/NERC20.sol",
  "abi": [
    {
      "inputs": [
        {
          "internalType": "string",
          "name": "name_",
          "type": "string"
        },
        {
          "internalType": "string",
          "name": "symbol_",
          "type": "string"
        },
        {
          "internalType": "uint8",
          "name": "decimals_",
          "type": "uint8"
        },
        {
          "internalType": "contract IERC20",
          "name": "tokenAddress_",
          "type": "address"
        }
      ],
      "stateMutability": "nonpayable",
      "type": "constructor"
    },
    {
      "anonymous": false,
      "inputs": [
        {
          "indexed": true,
          "internalType": "address",
          "name": "owner",
          "type": "address"
        },
        {
          "indexed": true,
          "internalType": "address",
          "name": "spender",
          "type": "address"
        },
        {
          "indexed": false,
          "internalType": "uint256",
          "name": "value",
          "type": "uint256"
        }
      ],
      "name": "Approval",
      "type": "event"
    },
    {
      "anonymous": false,
      "inputs": [
        {
          "indexed": true,
          "internalType": "address",
          "name": "borrower",
          "type": "address"
        },
        {
          "indexed": false,
          "internalType": "uint256",
          "name": "amountBorrowed",
          "type": "uint256"
        }
      ],
      "name": "BorrowedToken",
      "type": "event"
    },
    {
      "anonymous": false,
      "inputs": [
        {
          "indexed": true,
          "internalType": "address",
          "name": "investor",
          "type": "address"
        },
        {
          "indexed": false,
          "internalType": "uint256",
          "name": "amountInvested",
          "type": "uint256"
        }
      ],
      "name": "InvestedToken",
      "type": "event"
    },
    {
      "anonymous": false,
      "inputs": [
        {
          "indexed": true,
          "internalType": "address",
          "name": "investor",
          "type": "address"
        },
        {
          "indexed": false,
          "internalType": "uint256",
          "name": "amountInvested",
          "type": "uint256"
        }
      ],
      "name": "InvestedTokenClaimed",
      "type": "event"
    },
    {
      "anonymous": false,
      "inputs": [
        {
          "indexed": true,
          "internalType": "address",
          "name": "NFTContract",
          "type": "address"
        },
        {
          "indexed": false,
          "internalType": "uint256",
          "name": "tokenId",
          "type": "uint256"
        }
      ],
      "name": "NFTLiquidated",
      "type": "event"
    },
    {
      "anonymous": false,
      "inputs": [
        {
          "indexed": true,
          "internalType": "address",
          "name": "previousOwner",
          "type": "address"
        },
        {
          "indexed": true,
          "internalType": "address",
          "name": "newOwner",
          "type": "address"
        }
      ],
      "name": "OwnershipTransferred",
      "type": "event"
    },
    {
      "anonymous": false,
      "inputs": [
        {
          "indexed": true,
          "internalType": "address",
          "name": "borrower",
          "type": "address"
        },
        {
          "indexed": false,
          "internalType": "uint256",
          "name": "amountPaid",
          "type": "uint256"
        }
      ],
      "name": "PayedOnLoan",
      "type": "event"
    },
    {
      "anonymous": false,
      "inputs": [
        {
          "indexed": true,
          "internalType": "address",
          "name": "from",
          "type": "address"
        },
        {
          "indexed": true,
          "internalType": "address",
          "name": "to",
          "type": "address"
        },
        {
          "indexed": false,
          "internalType": "uint256",
          "name": "value",
          "type": "uint256"
        }
      ],
      "name": "Transfer",
      "type": "event"
    },
    {
      "anonymous": false,
      "inputs": [
        {
          "indexed": true,
          "internalType": "address",
          "name": "investor",
          "type": "address"
        },
        {
          "indexed": false,
          "internalType": "uint256",
          "name": "amountWithdrawn",
          "type": "uint256"
        }
      ],
      "name": "WithdrawInvestedTokens",
      "type": "event"
    },
    {
      "inputs": [
        {
          "internalType": "address",
          "name": "",
          "type": "address"
        }
      ],
      "name": "NFTOwnerMapping",
      "outputs": [
        {
          "internalType": "contract IERC721",
          "name": "NFTContract",
          "type": "address"
        },
        {
          "internalType": "uint256",
          "name": "tokenId",
          "type": "uint256"
        },
        {
          "internalType": "uint256",
          "name": "nftCollateralAmount",
          "type": "uint256"
        }
      ],
      "stateMutability": "view",
      "type": "function"
    },
    {
      "inputs": [
        {
          "internalType": "address",
          "name": "owner",
          "type": "address"
        },
        {
          "internalType": "address",
          "name": "spender",
          "type": "address"
        }
      ],
      "name": "allowance",
      "outputs": [
        {
          "internalType": "uint256",
          "name": "",
          "type": "uint256"
        }
      ],
      "stateMutability": "view",
      "type": "function"
    },
    {
      "inputs": [
        {
          "internalType": "address",
          "name": "spender",
          "type": "address"
        },
        {
          "internalType": "uint256",
          "name": "amount",
          "type": "uint256"
        }
      ],
      "name": "approve",
      "outputs": [
        {
          "internalType": "bool",
          "name": "",
          "type": "bool"
        }
      ],
      "stateMutability": "nonpayable",
      "type": "function"
    },
    {
      "inputs": [
        {
          "internalType": "address",
          "name": "account",
          "type": "address"
        }
      ],
      "name": "balanceOf",
      "outputs": [
        {
          "internalType": "uint256",
          "name": "",
          "type": "uint256"
        }
      ],
      "stateMutability": "view",
      "type": "function"
    },
    {
      "inputs": [
        {
          "internalType": "address",
          "name": "borrower",
          "type": "address"
        },
        {
          "internalType": "uint256",
          "name": "amount",
          "type": "uint256"
        },
        {
          "internalType": "uint256",
          "name": "nftCollateralAmount",
          "type": "uint256"
        },
        {
          "internalType": "contract IERC721",
          "name": "NFTContract",
          "type": "address"
        },
        {
          "internalType": "uint256",
          "name": "tokenId",
          "type": "uint256"
        }
      ],
      "name": "borrowTokens",
      "outputs": [],
      "stateMutability": "nonpayable",
      "type": "function"
    },
    {
      "inputs": [],
      "name": "claimAccruedTokens",
      "outputs": [],
      "stateMutability": "nonpayable",
      "type": "function"
    },
    {
      "inputs": [],
      "name": "decimals",
      "outputs": [
        {
          "internalType": "uint8",
          "name": "",
          "type": "uint8"
        }
      ],
      "stateMutability": "view",
      "type": "function"
    },
    {
      "inputs": [
        {
          "internalType": "address",
          "name": "spender",
          "type": "address"
        },
        {
          "internalType": "uint256",
          "name": "subtractedValue",
          "type": "uint256"
        }
      ],
      "name": "decreaseAllowance",
      "outputs": [
        {
          "internalType": "bool",
          "name": "",
          "type": "bool"
        }
      ],
      "stateMutability": "nonpayable",
      "type": "function"
    },
    {
      "inputs": [
        {
          "internalType": "address",
          "name": "nftOwner",
          "type": "address"
        }
      ],
      "name": "forceLiquidateIdleNFT",
      "outputs": [],
      "stateMutability": "nonpayable",
      "type": "function"
    },
    {
      "inputs": [
        {
          "internalType": "address",
          "name": "borrower",
          "type": "address"
        }
      ],
      "name": "getAmountBorrowed",
      "outputs": [
        {
          "internalType": "uint256",
          "name": "amountBorrowed",
          "type": "uint256"
        }
      ],
      "stateMutability": "view",
      "type": "function"
    },
    {
      "inputs": [],
      "name": "getAmountInvested",
      "outputs": [
        {
          "internalType": "uint256",
          "name": "amountInvested",
          "type": "uint256"
        }
      ],
      "stateMutability": "view",
      "type": "function"
    },
    {
      "inputs": [
        {
          "internalType": "address",
          "name": "borrower",
          "type": "address"
        }
      ],
      "name": "getBorrowedRepayAmount",
      "outputs": [
        {
          "internalType": "uint256",
          "name": "repayAmount",
          "type": "uint256"
        }
      ],
      "stateMutability": "view",
      "type": "function"
    },
    {
      "inputs": [
        {
          "internalType": "address",
          "name": "spender",
          "type": "address"
        },
        {
          "internalType": "uint256",
          "name": "addedValue",
          "type": "uint256"
        }
      ],
      "name": "increaseAllowance",
      "outputs": [
        {
          "internalType": "bool",
          "name": "",
          "type": "bool"
        }
      ],
      "stateMutability": "nonpayable",
      "type": "function"
    },
    {
      "inputs": [],
      "name": "name",
      "outputs": [
        {
          "internalType": "string",
          "name": "",
          "type": "string"
        }
      ],
      "stateMutability": "view",
      "type": "function"
    },
    {
      "inputs": [
        {
          "internalType": "address",
          "name": "nftContract",
          "type": "address"
        },
        {
          "internalType": "uint256",
          "name": "tokenId",
          "type": "uint256"
        }
      ],
      "name": "nftPurchasePrice",
      "outputs": [
        {
          "internalType": "uint256",
          "name": "",
          "type": "uint256"
        }
      ],
      "stateMutability": "view",
      "type": "function"
    },
    {
      "inputs": [
        {
          "internalType": "address",
          "name": "operator",
          "type": "address"
        },
        {
          "internalType": "address",
          "name": "from",
          "type": "address"
        },
        {
          "internalType": "uint256",
          "name": "tokenId",
          "type": "uint256"
        },
        {
          "internalType": "bytes",
          "name": "data",
          "type": "bytes"
        }
      ],
      "name": "onERC721Received",
      "outputs": [
        {
          "internalType": "bytes4",
          "name": "",
          "type": "bytes4"
        }
      ],
      "stateMutability": "nonpayable",
      "type": "function"
    },
    {
      "inputs": [],
      "name": "owner",
      "outputs": [
        {
          "internalType": "address",
          "name": "",
          "type": "address"
        }
      ],
      "stateMutability": "view",
      "type": "function"
    },
    {
      "inputs": [],
      "name": "renounceOwnership",
      "outputs": [],
      "stateMutability": "nonpayable",
      "type": "function"
    },
    {
      "inputs": [
        {
          "internalType": "address",
          "name": "borrower",
          "type": "address"
        },
        {
          "internalType": "uint256",
          "name": "amount",
          "type": "uint256"
        }
      ],
      "name": "repayBorrowAmount",
      "outputs": [],
      "stateMutability": "nonpayable",
      "type": "function"
    },
    {
      "inputs": [
        {
          "internalType": "address",
          "name": "borrower",
          "type": "address"
        }
      ],
      "name": "repayFullBorrowAmount",
      "outputs": [],
      "stateMutability": "nonpayable",
      "type": "function"
    },
    {
      "inputs": [
        {
          "internalType": "address",
          "name": "purchaser",
          "type": "address"
        },
        {
          "internalType": "uint256",
          "name": "purchaseAmount",
          "type": "uint256"
        },
        {
          "internalType": "contract IERC721",
          "name": "nftContract",
          "type": "address"
        },
        {
          "internalType": "uint256",
          "name": "tokenId",
          "type": "uint256"
        }
      ],
      "name": "sellLiquidNFT",
      "outputs": [],
      "stateMutability": "nonpayable",
      "type": "function"
    },
    {
      "inputs": [
        {
          "internalType": "uint8",
          "name": "amount",
          "type": "uint8"
        }
      ],
      "name": "setCurrentBorrowInterestRatePerBlock",
      "outputs": [],
      "stateMutability": "nonpayable",
      "type": "function"
    },
    {
      "inputs": [
        {
          "internalType": "uint8",
          "name": "amount",
          "type": "uint8"
        }
      ],
      "name": "setCurrentInterestRatePerBlock",
      "outputs": [],
      "stateMutability": "nonpayable",
      "type": "function"
    },
    {
      "inputs": [],
      "name": "shutdownContract",
      "outputs": [],
      "stateMutability": "nonpayable",
      "type": "function"
    },
    {
      "inputs": [],
      "name": "startContract",
      "outputs": [],
      "stateMutability": "nonpayable",
      "type": "function"
    },
    {
      "inputs": [
        {
          "internalType": "uint256",
          "name": "amount",
          "type": "uint256"
        }
      ],
      "name": "supplyTokens",
      "outputs": [],
      "stateMutability": "nonpayable",
      "type": "function"
    },
    {
      "inputs": [],
      "name": "symbol",
      "outputs": [
        {
          "internalType": "string",
          "name": "",
          "type": "string"
        }
      ],
      "stateMutability": "view",
      "type": "function"
    },
    {
      "inputs": [],
      "name": "totalAmountBorrowed",
      "outputs": [
        {
          "internalType": "uint256",
          "name": "",
          "type": "uint256"
        }
      ],
      "stateMutability": "view",
      "type": "function"
    },
    {
      "inputs": [],
      "name": "totalAmountInvested",
      "outputs": [
        {
          "internalType": "uint256",
          "name": "",
          "type": "uint256"
        }
      ],
      "stateMutability": "view",
      "type": "function"
    },
    {
      "inputs": [],
      "name": "totalAmountInvestedInterest",
      "outputs": [
        {
          "internalType": "uint256",
          "name": "",
          "type": "uint256"
        }
      ],
      "stateMutability": "view",
      "type": "function"
    },
    {
      "inputs": [],
      "name": "totalBorrowedInterest",
      "outputs": [
        {
          "internalType": "uint256",
          "name": "",
          "type": "uint256"
        }
      ],
      "stateMutability": "view",
      "type": "function"
    },
    {
      "inputs": [],
      "name": "totalSupply",
      "outputs": [
        {
          "internalType": "uint256",
          "name": "",
          "type": "uint256"
        }
      ],
      "stateMutability": "view",
      "type": "function"
    },
    {
      "inputs": [
        {
          "internalType": "address",
          "name": "to",
          "type": "address"
        },
        {
          "internalType": "uint256",
          "name": "amount",
          "type": "uint256"
        }
      ],
      "name": "transfer",
      "outputs": [
        {
          "internalType": "bool",
          "name": "",
          "type": "bool"
        }
      ],
      "stateMutability": "nonpayable",
      "type": "function"
    },
    {
      "inputs": [
        {
          "internalType": "address",
          "name": "from",
          "type": "address"
        },
        {
          "internalType": "address",
          "name": "to",
          "type": "address"
        },
        {
          "internalType": "uint256",
          "name": "amount",
          "type": "uint256"
        }
      ],
      "name": "transferFrom",
      "outputs": [
        {
          "internalType": "bool",
          "name": "",
          "type": "bool"
        }
      ],
      "stateMutability": "nonpayable",
      "type": "function"
    },
    {
      "inputs": [
        {
          "internalType": "address",
          "name": "newOwner",
          "type": "address"
        }
      ],
      "name": "transferOwnership",
      "outputs": [],
      "stateMutability": "nonpayable",
      "type": "function"
    },
    {
      "inputs": [],
      "name": "viewAccruedTokensAmount",
      "outputs": [
        {
          "internalType": "uint256",
          "name": "accruedTokenAmount",
          "type": "uint256"
        }
      ],
      "stateMutability": "view",
      "type": "function"
    },
    {
      "inputs": [
        {
          "internalType": "address",
          "name": "borrower",
          "type": "address"
        }
      ],
      "name": "viewBorrowAccruedTokensAmount",
      "outputs": [
        {
          "internalType": "uint256",
          "name": "accruedTokenAmount",
          "type": "uint256"
        }
      ],
      "stateMutability": "view",
      "type": "function"
    },
    {
      "inputs": [
        {
          "internalType": "uint256",
          "name": "amount",
          "type": "uint256"
        }
      ],
      "name": "withdrawTokens",
      "outputs": [],
      "stateMutability": "nonpayable",
      "type": "function"
    }
  ],
  "bytecode": "0x60c06040526005805461ffff60a01b1916610c0560a01b179055600c80546001600160a81b0319163060ff60a01b191617600160a01b1790553480156200004557600080fd5b5060405162003f0738038062003f078339810160408190526200006891620002aa565b8351849084906200008190600390602085019062000137565b5080516200009790600490602084019062000137565b505050620000b4620000ae620000e160201b60201c565b620000e5565b60ff9091166080526001600160a01b031660a052505043600755600f805460ff191660011790556200038b565b3390565b600580546001600160a01b038381166001600160a01b0319831681179093556040519116919082907f8be0079c531659141344cd1fd0a4f28419497f9722a3daafe3b4186f6b6457e090600090a35050565b82805462000145906200034e565b90600052602060002090601f016020900481019282620001695760008555620001b4565b82601f106200018457805160ff1916838001178555620001b4565b82800160010185558215620001b4579182015b82811115620001b457825182559160200191906001019062000197565b50620001c2929150620001c6565b5090565b5b80821115620001c25760008155600101620001c7565b634e487b7160e01b600052604160045260246000fd5b600082601f8301126200020557600080fd5b81516001600160401b0380821115620002225762000222620001dd565b604051601f8301601f19908116603f011681019082821181831017156200024d576200024d620001dd565b816040528381526020925086838588010111156200026a57600080fd5b600091505b838210156200028e57858201830151818301840152908201906200026f565b83821115620002a05760008385830101525b9695505050505050565b60008060008060808587031215620002c157600080fd5b84516001600160401b0380821115620002d957600080fd5b620002e788838901620001f3565b95506020870151915080821115620002fe57600080fd5b506200030d87828801620001f3565b935050604085015160ff811681146200032557600080fd5b60608601519092506001600160a01b03811681146200034357600080fd5b939692955090935050565b600181811c908216806200036357607f821691505b602082108114156200038557634e487b7160e01b600052602260045260246000fd5b50919050565b60805160a051613b10620003f76000396000818161091001528181610ee801528181610ff5015281816112b1015281816113a10152818161153901528181611662015281816119b301528181611b710152818161210c01526121f8015260006103b60152613b106000f3fe608060405234801561001057600080fd5b50600436106102925760003560e01c80637312f00511610160578063a9059cbb116100d8578063e5dec8ff1161008c578063f2fde38b11610071578063f2fde38b146105fa578063f6724a551461060d578063fd5eddf31461061557600080fd5b8063e5dec8ff146105df578063e7a3ac82146105f257600080fd5b8063b1822183116100bd578063b182218314610580578063c909413c14610593578063dd62ed3e146105a657600080fd5b8063a9059cbb14610565578063a952ae211461057857600080fd5b80637a8ed98f1161012f5780638da5cb5b116101145780638da5cb5b1461052f57806395d89b411461054a578063a457c2d71461055257600080fd5b80637a8ed98f146104be57806385cbeb731461051c57600080fd5b80637312f0051461047d578063735b191514610490578063765f01931461049857806378a96c79146104ab57600080fd5b8063315a095d1161020e5780635fb02f4d116101c257806368aa5986116101a757806368aa59861461044457806370a082311461044c578063715018a61461047557600080fd5b80635fb02f4d1461043457806366c83f6f1461043c57600080fd5b80633f265d2e116101f35780633f265d2e14610406578063519199481461040e578063524872e21461042157600080fd5b8063315a095d146103e057806339509351146103f357600080fd5b8063150b7a0211610265578063234c28931161024a578063234c28931461038957806323b872dd1461039c578063313ce567146103af57600080fd5b8063150b7a021461031857806318160ddd1461038157600080fd5b806301c65e151461029757806306fdde03146102d6578063095ea7b3146102eb57806312132c001461030e575b600080fd5b6102c36102a5366004613646565b6001600160a01b03166000908152600e602052604090206003015490565b6040519081526020015b60405180910390f35b6102de610628565b6040516102cd919061368f565b6102fe6102f93660046136c2565b6106ba565b60405190151581526020016102cd565b6103166106d2565b005b6103506103263660046136ee565b7f150b7a023d4804d13e8c85fb27262cb750cf6ba9f9dd3bb30d90f482ceeb4b1f95945050505050565b6040517fffffffff0000000000000000000000000000000000000000000000000000000090911681526020016102cd565b6002546102c3565b61031661039736600461378d565b61073d565b6102fe6103aa3660046137b0565b6107b7565b60405160ff7f00000000000000000000000000000000000000000000000000000000000000001681526020016102cd565b6103166103ee3660046137f1565b6107dd565b6102fe6104013660046136c2565b610979565b600b546102c3565b61031661041c36600461378d565b6109b8565b6102c361042f3660046136c2565b610a4d565b610316610afa565b6102c3610b63565b610316610c1b565b6102c361045a366004613646565b6001600160a01b031660009081526020819052604090205490565b610316610d6e565b61031661048b3660046136c2565b610dd4565b6006546102c3565b6103166104a636600461380a565b6110a1565b6103166104b9366004613646565b611438565b6104f76104cc366004613646565b6011602052600090815260409020805460018201546002909201546001600160a01b03909116919083565b604080516001600160a01b0390941684526020840192909252908201526060016102cd565b61031661052a366004613852565b6117de565b6005546040516001600160a01b0390911681526020016102cd565b6102de611bd2565b6102fe6105603660046136c2565b611be1565b6102fe6105733660046136c2565b611c96565b6102c3611ca4565b6102c361058e366004613646565b611d11565b6102c36105a1366004613646565b611da4565b6102c36105b43660046138a4565b6001600160a01b03918216600090815260016020908152604080832093909416825291909152205490565b6103166105ed366004613646565b611ddb565b600a546102c3565b610316610608366004613646565b611f45565b6102c3612027565b6103166106233660046137f1565b612071565b606060038054610637906138dd565b80601f0160208091040260200160405190810160405280929190818152602001828054610663906138dd565b80156106b05780601f10610685576101008083540402835291602001916106b0565b820191906000526020600020905b81548152906001019060200180831161069357829003601f168201915b5050505050905090565b6000336106c881858561225b565b5060019392505050565b6005546001600160a01b031633146107315760405162461bcd60e51b815260206004820181905260248201527f4f776e61626c653a2063616c6c6572206973206e6f7420746865206f776e657260448201526064015b60405180910390fd5b600f805460ff19169055565b6005546001600160a01b031633146107975760405162461bcd60e51b815260206004820181905260248201527f4f776e61626c653a2063616c6c6572206973206e6f7420746865206f776e65726044820152606401610728565b6005805460ff909216600160a01b0260ff60a01b19909216919091179055565b6000336107c58582856123b3565b6107d085858561243f565b60019150505b9392505050565b600f5460ff166108505760405162461bcd60e51b815260206004820152603860248201527f54686520736d61727420636f6e747261637420686173206265656e20736875746044820152773237bbb7103337b9103a3432903a34b6b2903132b4b7339760411b6064820152608401610728565b610858612656565b506108616127fd565b33600090815260208190526040902054811061090b5760405162461bcd60e51b815260206004820152604160248201527f596f7520646f206e6f74206861766520656e6f75676820636f6c6c617465726160448201527f6c20746f6b656e7320746f207769746864726177207468697320616d6f756e7460648201527f2e00000000000000000000000000000000000000000000000000000000000000608482015260a401610728565b6109367f0000000000000000000000000000000000000000000000000000000000000000338361284d565b61094033826128f6565b60405181815233907f61c7f66cc8df135f272ea480025f9fe6d0c5958d3e51ed54b216038e4ba85ac5906020015b60405180910390a250565b3360008181526001602090815260408083206001600160a01b03871684529091528120549091906106c890829086906109b390879061392e565b61225b565b6005546001600160a01b03163314610a125760405162461bcd60e51b815260206004820181905260248201527f4f776e61626c653a2063616c6c6572206973206e6f7420746865206f776e65726044820152606401610728565b6005805460ff909216600160a81b027fffffffffffffffffffff00ffffffffffffffffffffffffffffffffffffffffff909216919091179055565b600f5460009060ff16610ac35760405162461bcd60e51b815260206004820152603860248201527f54686520736d61727420636f6e747261637420686173206265656e20736875746044820152773237bbb7103337b9103a3432903a34b6b2903132b4b7339760411b6064820152608401610728565b6001600160a01b0383166000908152601060209081526040808320858452909152902054610af260028261395c565b949350505050565b6005546001600160a01b03163314610b545760405162461bcd60e51b815260206004820181905260248201527f4f776e61626c653a2063616c6c6572206973206e6f7420746865206f776e65726044820152606401610728565b600f805460ff19166001179055565b6000610b6d612a7b565b600c546040516370a0823160e01b8152336004820152919250630faa0280916001600160a01b03909116906370a0823190602401602060405180830381865afa158015610bbe573d6000803e3d6000fd5b505050506040513d601f19601f82011682018060405250810190610be29190613970565b600554610bf890600160a01b900460ff16612b77565b610c029190613989565b610c0c919061395c565b610c16908261392e565b905090565b600f5460ff16610c8e5760405162461bcd60e51b815260206004820152603860248201527f54686520736d61727420636f6e747261637420686173206265656e20736875746044820152773237bbb7103337b9103a3432903a34b6b2903132b4b7339760411b6064820152608401610728565b610c96612656565b50336000908152600d60209081526040918290208251606081018452815481526001820154928101929092526002015491810182905290610cd690612b97565b610ce4338260400151612c29565b336001600160a01b03167f8b4ac56074bf7483d9768efdf39bb460977b4c4202a21f5f2ff5e1e012eaee7b8260400151604051610d2391815260200190565b60405180910390a25060408051606081018252600854815260075460208083019182526000838501818152338252600d90925293909320915182555160018201559051600290910155565b6005546001600160a01b03163314610dc85760405162461bcd60e51b815260206004820181905260248201527f4f776e61626c653a2063616c6c6572206973206e6f7420746865206f776e65726044820152606401610728565b610dd26000612d08565b565b600f5460ff16610e475760405162461bcd60e51b815260206004820152603860248201527f54686520736d61727420636f6e747261637420686173206265656e20736875746044820152773237bbb7103337b9103a3432903a34b6b2903132b4b7339760411b6064820152608401610728565b610e4f612656565b50610e5b826000612d67565b6001600160a01b0382811660008181526011602090815260408083208151606080820184528254881682526001808401548387015260029384015483860152878752600e8652958490208451608081018652815481529681015495870195909552918401548584015260039093015490840152516370a0823160e01b8152600481019390935292909184917f000000000000000000000000000000000000000000000000000000000000000016906370a0823190602401602060405180830381865afa158015610f2f573d6000803e3d6000fd5b505050506040513d601f19601f82011682018060405250810190610f539190613970565b1015610fc75760405162461bcd60e51b815260206004820152603660248201527f596f7520646f206e6f74206861766520656e6f75676820455243323020746f6b60448201527f656e20746f20706179207468697320616d6f756e742e000000000000000000006064820152608401610728565b8281604001518260600151610fdc919061392e565b1015610ff057610feb84611438565b61106a565b61101c7f0000000000000000000000000000000000000000000000000000000000000000853086612f33565b6110268484612f84565b836001600160a01b03167ff4ded0487741360b8264d490778f5d500c68758577c18a2d600603074ceb16fb8460405161106191815260200190565b60405180910390a25b82816060015161107a91906139a8565b6002836040015161108b9190613a00565b121561109b5761109b8484613044565b50505050565b600f5460ff166111145760405162461bcd60e51b815260206004820152603860248201527f54686520736d61727420636f6e747261637420686173206265656e20736875746044820152773237bbb7103337b9103a3432903a34b6b2903132b4b7339760411b6064820152608401610728565b60006111208383610a4d565b6040517f6352211e0000000000000000000000000000000000000000000000000000000081526004810184905290915030906001600160a01b03851690636352211e90602401602060405180830381865afa158015611183573d6000803e3d6000fd5b505050506040513d601f19601f820116820180604052508101906111a79190613a2e565b6001600160a01b0316146112235760405162461bcd60e51b815260206004820152602560248201527f436f6e7472616374206973206e6f7420746865206f776e6572206f662074686960448201527f73204e46540000000000000000000000000000000000000000000000000000006064820152608401610728565b808410156112995760405162461bcd60e51b815260206004820152602f60248201527f596f7520646964206e6f742070726f7669646520656e6f75676820746f20707560448201527f7263686173652074686973204e465400000000000000000000000000000000006064820152608401610728565b6040516370a0823160e01b81523360048201526000907f00000000000000000000000000000000000000000000000000000000000000006001600160a01b0316906370a0823190602401602060405180830381865afa158015611300573d6000803e3d6000fd5b505050506040513d601f19601f820116820180604052508101906113249190613970565b90508481101561139c5760405162461bcd60e51b815260206004820152603d60248201527f596f7520646f206e6f74206861766520656e6f75676820455243323020746f6b60448201527f656e20746f20636f6d706c65746520746869732070757263686173652e0000006064820152608401610728565b6113c87f0000000000000000000000000000000000000000000000000000000000000000333088612f33565b604051632142170760e11b81523060048201526001600160a01b038781166024830152604482018590528516906342842e0e90606401600060405180830381600087803b15801561141857600080fd5b505af115801561142c573d6000803e3d6000fd5b50505050505050505050565b600f5460ff166114ab5760405162461bcd60e51b815260206004820152603860248201527f54686520736d61727420636f6e747261637420686173206265656e20736875746044820152773237bbb7103337b9103a3432903a34b6b2903132b4b7339760411b6064820152608401610728565b6114b3612656565b506114bf816000612d67565b6001600160a01b0381166000908152600e60209081526040808320815160808101835281548152600182015493810193909352600281015491830182905260030154606083018190529192916115149161392e565b6040516370a0823160e01b81526001600160a01b0385811660048301529192506000917f000000000000000000000000000000000000000000000000000000000000000016906370a0823190602401602060405180830381865afa158015611580573d6000803e3d6000fd5b505050506040513d601f19601f820116820180604052508101906115a49190613970565b6001600160a01b0380861660009081526011602090815260409182902082516060810184528154909416845260018101549184019190915260020154908201529091508282101561165d5760405162461bcd60e51b815260206004820152603060248201527f596f7520646f206e6f74206861766520656e6f75676820746f2072657061792060448201527f616c6c206f6620796f75722064656274000000000000000000000000000000006064820152608401610728565b6116897f0000000000000000000000000000000000000000000000000000000000000000863086612f33565b80516020820151604051632142170760e11b81523060048201526001600160a01b03888116602483015260448201929092529116906342842e0e90606401600060405180830381600087803b1580156116e157600080fd5b505af11580156116f5573d6000803e3d6000fd5b5050505061170283613206565b6001600160a01b0385166000908152600e602090815260408083208381556001808201859055600280830186905560039092018590556011909352908320805473ffffffffffffffffffffffffffffffffffffffff19168155918201839055015560608401516117739083906139a8565b600282604001516117849190613a00565b1215611794576117943383613044565b846001600160a01b03167ff4ded0487741360b8264d490778f5d500c68758577c18a2d600603074ceb16fb846040516117cf91815260200190565b60405180910390a25050505050565b6005546001600160a01b031633146118385760405162461bcd60e51b815260206004820181905260248201527f4f776e61626c653a2063616c6c6572206973206e6f7420746865206f776e65726044820152606401610728565b600f5460ff166118ab5760405162461bcd60e51b815260206004820152603860248201527f54686520736d61727420636f6e747261637420686173206265656e20736875746044820152773237bbb7103337b9103a3432903a34b6b2903132b4b7339760411b6064820152608401610728565b6118b3612656565b506001600160a01b0385811660009081526011602052604090205416156119425760405162461bcd60e51b815260206004820152602560248201527f596f7520616c726561647920686176652061204e465420617320636f6c6c617460448201527f6572616c2e0000000000000000000000000000000000000000000000000000006064820152608401610728565b61194d60048461395c565b84101561199c5760405162461bcd60e51b815260206004820152601d60248201527f4e465420416d6f756e74206973206e6f74206869676820656e6f7567680000006044820152606401610728565b6040516370a0823160e01b815230600482015284907f00000000000000000000000000000000000000000000000000000000000000006001600160a01b0316906370a0823190602401602060405180830381865afa158015611a02573d6000803e3d6000fd5b505050506040513d601f19601f82011682018060405250810190611a269190613970565b1015611a9a5760405162461bcd60e51b815260206004820152602e60248201527f576520646f206e6f74206861766520656e6f7567682066756e647320746f206660448201527f756e642074686973206c6f616e2e0000000000000000000000000000000000006064820152608401610728565b611aa48585612d67565b604080516060810182526001600160a01b0384811680835260208084018681528486018981528b851660008181526011909452928790209551865473ffffffffffffffffffffffffffffffffffffffff1916951694909417855551600185015591516002909301929092559151632142170760e11b8152600481019290925230602483015260448201839052906342842e0e90606401600060405180830381600087803b158015611b5457600080fd5b505af1158015611b68573d6000803e3d6000fd5b50505050611b977f0000000000000000000000000000000000000000000000000000000000000000868661284d565b846001600160a01b03167f94a38080f852f78f49d690a2ed2327cdf48af975749bc55adfe9b0a000fc3632856040516117cf91815260200190565b606060048054610637906138dd565b3360008181526001602090815260408083206001600160a01b038716845290915281205490919083811015611c7e5760405162461bcd60e51b815260206004820152602560248201527f45524332303a2064656372656173656420616c6c6f77616e63652062656c6f7760448201527f207a65726f0000000000000000000000000000000000000000000000000000006064820152608401610728565b611c8b828686840361225b565b506001949350505050565b6000336106c881858561243f565b600c546040516370a0823160e01b81523360048201526000916001600160a01b0316906370a0823190602401602060405180830381865afa158015611ced573d6000803e3d6000fd5b505050506040513d601f19601f82011682018060405250810190610c169190613970565b6001600160a01b0381166000908152600e60209081526040808320815160808101835281548152600182015493810193909352600281015491830191909152600301546060820152611d6283613218565b9150630faa02808160600151611d86600560159054906101000a900460ff16612b77565b611d909190613989565b611d9a919061395c565b6107d6908361392e565b6000611daf82611d11565b6001600160a01b0383166000908152600e6020526040902060030154611dd5919061392e565b92915050565b600f5460ff16611e4e5760405162461bcd60e51b815260206004820152603860248201527f54686520736d61727420636f6e747261637420686173206265656e20736875746044820152773237bbb7103337b9103a3432903a34b6b2903132b4b7339760411b6064820152608401610728565b611e56612656565b50611e62816000612d67565b6000611e6d82611da4565b6001600160a01b0380841660009081526011602090815260409182902082516060810184528154909416845260018101549184019190915260029081015491830182905292935090918391611ec29190613a00565b12611f355760405162461bcd60e51b815260206004820152602b60248201527f416d6f756e74206f776564206973206e6f7420656e6f75676820746f206c697160448201527f756964617465204e46542e0000000000000000000000000000000000000000006064820152608401610728565b611f40836000613044565b505050565b6005546001600160a01b03163314611f9f5760405162461bcd60e51b815260206004820181905260248201527f4f776e61626c653a2063616c6c6572206973206e6f7420746865206f776e65726044820152606401610728565b6001600160a01b03811661201b5760405162461bcd60e51b815260206004820152602660248201527f4f776e61626c653a206e6577206f776e657220697320746865207a65726f206160448201527f64647265737300000000000000000000000000000000000000000000000000006064820152608401610728565b61202481612d08565b50565b600c54604080516318160ddd60e01b815290516000926001600160a01b0316916318160ddd9160048083019260209291908290030181865afa158015611ced573d6000803e3d6000fd5b600f5460ff166120e45760405162461bcd60e51b815260206004820152603860248201527f54686520736d61727420636f6e747261637420686173206265656e20736875746044820152773237bbb7103337b9103a3432903a34b6b2903132b4b7339760411b6064820152608401610728565b6120ec612656565b506120f56127fd565b6040516370a0823160e01b815233600482015281907f00000000000000000000000000000000000000000000000000000000000000006001600160a01b0316906370a0823190602401602060405180830381865afa15801561215b573d6000803e3d6000fd5b505050506040513d601f19601f8201168201806040525081019061217f9190613970565b10156121f35760405162461bcd60e51b815260206004820152603c60248201527f596f7520646f206e6f74206861766520656e6f75676820455243323020746f6b60448201527f656e20746f206d616b652074686973207472616e73616374696f6e2e000000006064820152608401610728565b61221f7f0000000000000000000000000000000000000000000000000000000000000000333084612f33565b6122293382612c29565b60405181815233907fbf03741d802bfc2bd535c4e2e8d31c60b076cf0e37fc447d09342a8f338fbd139060200161096e565b6001600160a01b0383166122d65760405162461bcd60e51b8152602060048201526024808201527f45524332303a20617070726f76652066726f6d20746865207a65726f2061646460448201527f72657373000000000000000000000000000000000000000000000000000000006064820152608401610728565b6001600160a01b0382166123525760405162461bcd60e51b815260206004820152602260248201527f45524332303a20617070726f766520746f20746865207a65726f20616464726560448201527f73730000000000000000000000000000000000000000000000000000000000006064820152608401610728565b6001600160a01b0383811660008181526001602090815260408083209487168084529482529182902085905590518481527f8c5be1e5ebec7d5bd14f71427d1e84f3dd0314c0f7b2291e5b200ac8c7c3b925910160405180910390a3505050565b6001600160a01b03838116600090815260016020908152604080832093861683529290522054600019811461109b57818110156124325760405162461bcd60e51b815260206004820152601d60248201527f45524332303a20696e73756666696369656e7420616c6c6f77616e63650000006044820152606401610728565b61109b848484840361225b565b6001600160a01b0383166124bb5760405162461bcd60e51b815260206004820152602560248201527f45524332303a207472616e736665722066726f6d20746865207a65726f20616460448201527f64726573730000000000000000000000000000000000000000000000000000006064820152608401610728565b6001600160a01b0382166125375760405162461bcd60e51b815260206004820152602360248201527f45524332303a207472616e7366657220746f20746865207a65726f206164647260448201527f65737300000000000000000000000000000000000000000000000000000000006064820152608401610728565b6001600160a01b038316600090815260208190526040902054818110156125c65760405162461bcd60e51b815260206004820152602660248201527f45524332303a207472616e7366657220616d6f756e742065786365656473206260448201527f616c616e636500000000000000000000000000000000000000000000000000006064820152608401610728565b6001600160a01b038085166000908152602081905260408082208585039055918516815290812080548492906125fd90849061392e565b92505081905550826001600160a01b0316846001600160a01b03167fddf252ad1be2c89b69c2b068fc378daa952ba7f163c4a11628f55a4df523b3ef8460405161264991815260200190565b60405180910390a361109b565b600080600c54600160a01b900460ff16600181111561267757612677613a4b565b14156126835750600090565b600c805460ff60a01b191690556007544314156126b35750600c805460ff60a01b1916600160a01b179055600090565b6005546000906126cc90600160a01b900460ff16612b77565b905080600860008282546126e0919061392e565b9091555050600c54604080516318160ddd60e01b81529051630faa0280926001600160a01b0316916318160ddd9160048083019260209291908290030181865afa158015612732573d6000803e3d6000fd5b505050506040513d601f19601f820116820180604052508101906127569190613970565b6127609083613989565b61276a919061395c565b9150612775826132c4565b60055460009061278e90600160a81b900460ff16612b77565b905080600960008282546127a2919061392e565b9091555050600654600090630faa0280906127bd9084613989565b6127c7919061395c565b905080600b60008282546127db919061392e565b9091555050436007555050600c805460ff60a01b1916600160a01b1790555090565b604051806060016040528060085481526020016007548152602001612820612a7b565b9052336000908152600d602090815260409182902083518155908301516001820155910151600290910155565b6040516001600160a01b038316602482015260448101829052611f409084907fa9059cbb00000000000000000000000000000000000000000000000000000000906064015b60408051601f198184030181529190526020810180517bffffffffffffffffffffffffffffffffffffffffffffffffffffffff167fffffffff00000000000000000000000000000000000000000000000000000000909316929092179091526132d6565b6001600160a01b0382166129725760405162461bcd60e51b815260206004820152602160248201527f45524332303a206275726e2066726f6d20746865207a65726f2061646472657360448201527f73000000000000000000000000000000000000000000000000000000000000006064820152608401610728565b6001600160a01b03821660009081526020819052604090205481811015612a015760405162461bcd60e51b815260206004820152602260248201527f45524332303a206275726e20616d6f756e7420657863656564732062616c616e60448201527f63650000000000000000000000000000000000000000000000000000000000006064820152608401610728565b6001600160a01b0383166000908152602081905260408120838303905560028054849290612a30908490613a61565b90915550506040518281526000906001600160a01b038516907fddf252ad1be2c89b69c2b068fc378daa952ba7f163c4a11628f55a4df523b3ef9060200160405180910390a3505050565b336000908152600d6020908152604080832081516060810183528154815260018201549381019390935260020154908201528180612ab76133bb565b806020019051810190612aca9190613a78565b604085810151600c5491516370a0823160e01b81523360048201529395509193509091630faa0280916001600160a01b0316906370a0823190602401602060405180830381865afa158015612b23573d6000803e3d6000fd5b505050506040513d601f19601f82011682018060405250810190612b479190613970565b612b518585613989565b612b5b9190613989565b612b65919061395c565b612b6f919061392e565b935050505090565b60008060075443612b889190613a61565b90506107d660ff841682613989565b600a54811115612c0f5760405162461bcd60e51b815260206004820152603060248201527f54686520616d6f756e74206f6620756e636c61696d656420746f6b656e73206160448201527f7265206e6f7420617661696c61626c65000000000000000000000000000000006064820152608401610728565b80600a6000828254612c219190613a61565b909155505050565b6001600160a01b038216612c7f5760405162461bcd60e51b815260206004820152601f60248201527f45524332303a206d696e7420746f20746865207a65726f2061646472657373006044820152606401610728565b8060026000828254612c91919061392e565b90915550506001600160a01b03821660009081526020819052604081208054839290612cbe90849061392e565b90915550506040518181526001600160a01b038316906000907fddf252ad1be2c89b69c2b068fc378daa952ba7f163c4a11628f55a4df523b3ef9060200160405180910390a35050565b600580546001600160a01b0383811673ffffffffffffffffffffffffffffffffffffffff19831681179093556040519116919082907f8be0079c531659141344cd1fd0a4f28419497f9722a3daafe3b4186f6b6457e090600090a35050565b6001600160a01b0382166000908152600e6020908152604080832081516080810183528154815260018201549381019390935260028101549183019190915260030154606082015290612db984613218565b90506040518060800160405280600954815260200160075481526020016000815260200182858560600151612dee919061392e565b612df8919061392e565b90526001600160a01b0385166000908152600e602090815260409182902083518155908301516001820155908201516002820155606090910151600390910155612e4a612e45848361392e565b613458565b80600b5410612e705780600b6000828254612e659190613a61565b9091555061109b9050565b6000600b5482612e809190613a61565b90506509184e72a0008110612efc5760405162461bcd60e51b8152602060048201526024808201527f4572726f72207769746820636f6d706f756e64696e6720626f72726f77416d6f60448201527f756e742e000000000000000000000000000000000000000000000000000000006064820152608401610728565b80600b6000828254612f0e919061392e565b9250508190555081600b6000828254612f279190613a61565b90915550505050505050565b6040516001600160a01b038085166024830152831660448201526064810182905261109b9085907f23b872dd0000000000000000000000000000000000000000000000000000000090608401612892565b6001600160a01b0382166000908152600e60209081526040808320815160808082018452825482526001830154828601526002830154828501526003909201546060808301918252845193840185526009548452600754958401959095529282019490945290519091820190612ffb908590613a61565b90526001600160a01b0384166000908152600e602090815260409182902083518155908301516001820155908201516002820155606090910151600390910155611f4082613206565b600f5460ff166130b75760405162461bcd60e51b815260206004820152603860248201527f54686520736d61727420636f6e747261637420686173206265656e20736875746044820152773237bbb7103337b9103a3432903a34b6b2903132b4b7339760411b6064820152608401610728565b6001600160a01b0382166000908152600e60209081526040918290208251608081018452815481526001820154928101929092526002810154928201929092526003909101546060820181905261311890613113908490613a61565b613206565b336000908152601160209081526040808320815160608101835281546001600160a01b0390811680835260018401548387019081526002909401548386018190529087526010865284872084518852865295849020959095558051915192519283529316917f1de6f257258c4e8f8e5d4511fb425ba216600e9cf6a2b4628322c0b5b469956f910160405180910390a25050336000908152600e602090815260408083208381556001808201859055600280830186905560039092018590556011909352908320805473ffffffffffffffffffffffffffffffffffffffff1916815591820183905501555050565b8060066000828254612c219190613a61565b6001600160a01b0381166000908152600e60209081526040808320815160808101835281548152600182015493810193909352600281015491830191909152600301546060820152818061326b8561346a565b80602001905181019061327e9190613a78565b915091508260400151630faa02808460600151848461329d9190613989565b6132a79190613989565b6132b1919061395c565b6132bb919061392e565b95945050505050565b80600a6000828254612c21919061392e565b600061332b826040518060400160405280602081526020017f5361666545524332303a206c6f772d6c6576656c2063616c6c206661696c6564815250856001600160a01b031661351d9092919063ffffffff16565b805190915015611f4057808060200190518101906133499190613a9c565b611f405760405162461bcd60e51b815260206004820152602a60248201527f5361666545524332303a204552433230206f7065726174696f6e20646964206e60448201527f6f742073756363656564000000000000000000000000000000000000000000006064820152608401610728565b336000908152600d60209081526040808320815160608181018452825482526001830154948201859052600290920154928101929092526007549093919261340291613a61565b90506000811561342d57825160085460009161341d91613a61565b9050613429838261395c565b9150505b6040805160208101849052908101829052606001604051602081830303815290604052935050505090565b8060066000828254612c21919061392e565b6001600160a01b0381166000908152600e60209081526040808320815160808101835281548152600182015493810184905260028201549281019290925260030154606082810191909152600754909391926134c591613a61565b9050600081156134f05782516009546000916134e091613a61565b90506134ec838261395c565b9150505b60408051602081018490529081018290526060016040516020818303038152906040529350505050919050565b6060610af28484600085856001600160a01b0385163b61357f5760405162461bcd60e51b815260206004820152601d60248201527f416464726573733a2063616c6c20746f206e6f6e2d636f6e74726163740000006044820152606401610728565b600080866001600160a01b0316858760405161359b9190613abe565b60006040518083038185875af1925050503d80600081146135d8576040519150601f19603f3d011682016040523d82523d6000602084013e6135dd565b606091505b50915091506135ed8282866135f8565b979650505050505050565b606083156136075750816107d6565b8251156136175782518084602001fd5b8160405162461bcd60e51b8152600401610728919061368f565b6001600160a01b038116811461202457600080fd5b60006020828403121561365857600080fd5b81356107d681613631565b60005b8381101561367e578181015183820152602001613666565b8381111561109b5750506000910152565b60208152600082518060208401526136ae816040850160208701613663565b601f01601f19169190910160400192915050565b600080604083850312156136d557600080fd5b82356136e081613631565b946020939093013593505050565b60008060008060006080868803121561370657600080fd5b853561371181613631565b9450602086013561372181613631565b935060408601359250606086013567ffffffffffffffff8082111561374557600080fd5b818801915088601f83011261375957600080fd5b81358181111561376857600080fd5b89602082850101111561377a57600080fd5b9699959850939650602001949392505050565b60006020828403121561379f57600080fd5b813560ff811681146107d657600080fd5b6000806000606084860312156137c557600080fd5b83356137d081613631565b925060208401356137e081613631565b929592945050506040919091013590565b60006020828403121561380357600080fd5b5035919050565b6000806000806080858703121561382057600080fd5b843561382b81613631565b935060208501359250604085013561384281613631565b9396929550929360600135925050565b600080600080600060a0868803121561386a57600080fd5b853561387581613631565b94506020860135935060408601359250606086013561389381613631565b949793965091946080013592915050565b600080604083850312156138b757600080fd5b82356138c281613631565b915060208301356138d281613631565b809150509250929050565b600181811c908216806138f157607f821691505b6020821081141561391257634e487b7160e01b600052602260045260246000fd5b50919050565b634e487b7160e01b600052601160045260246000fd5b6000821982111561394157613941613918565b500190565b634e487b7160e01b600052601260045260246000fd5b60008261396b5761396b613946565b500490565b60006020828403121561398257600080fd5b5051919050565b60008160001904831182151516156139a3576139a3613918565b500290565b600080831283600160ff1b018312811516156139c6576139c6613918565b837f7fffffffffffffffffffffffffffffffffffffffffffffffffffffffffffffff0183138116156139fa576139fa613918565b50500390565b600082613a0f57613a0f613946565b600160ff1b821460001984141615613a2957613a29613918565b500590565b600060208284031215613a4057600080fd5b81516107d681613631565b634e487b7160e01b600052602160045260246000fd5b600082821015613a7357613a73613918565b500390565b60008060408385031215613a8b57600080fd5b505080516020909101519092909150565b600060208284031215613aae57600080fd5b815180151581146107d657600080fd5b60008251613ad0818460208701613663565b919091019291505056fea2646970667358221220e4828a50f5058ea3a37ae54cd953f0999ddea483273e596fbde466c785f8c4e564736f6c634300080a0033",
  "linkReferences": {},
  "deployedLinkReferences": {}
}