{
  "_format": "hh-sol-artifact-1",
  "contractName": "CreateNFT",
  "sourceName": "contracts/NFT/CreateNFT.sol",
  "abi": [
    {
      "inputs": [
        {
          "internalType": "string",
          "name": "name_",
          "type": "string"
        },
        {
          "internalType": "string",
          "name": "symbol_",
          "type": "string"
        }
      ],
      "stateMutability": "nonpayable",
      "type": "constructor"
    },
    {
      "anonymous": false,
      "inputs": [
        {
          "indexed": true,
          "internalType": "address",
          "name": "owner",
          "type": "address"
        },
        {
          "indexed": true,
          "internalType": "address",
          "name": "approved",
          "type": "address"
        },
        {
          "indexed": true,
          "internalType": "uint256",
          "name": "tokenId",
          "type": "uint256"
        }
      ],
      "name": "Approval",
      "type": "event"
    },
    {
      "anonymous": false,
      "inputs": [
        {
          "indexed": true,
          "internalType": "address",
          "name": "owner",
          "type": "address"
        },
        {
          "indexed": true,
          "internalType": "address",
          "name": "operator",
          "type": "address"
        },
        {
          "indexed": false,
          "internalType": "bool",
          "name": "approved",
          "type": "bool"
        }
      ],
      "name": "ApprovalForAll",
      "type": "event"
    },
    {
      "anonymous": false,
      "inputs": [
        {
          "indexed": true,
          "internalType": "address",
          "name": "from",
          "type": "address"
        },
        {
          "indexed": true,
          "internalType": "address",
          "name": "to",
          "type": "address"
        },
        {
          "indexed": true,
          "internalType": "uint256",
          "name": "tokenId",
          "type": "uint256"
        }
      ],
      "name": "Transfer",
      "type": "event"
    },
    {
      "inputs": [],
      "name": "CryptNFTsAmountCreated",
      "outputs": [
        {
          "internalType": "uint256",
          "name": "amount",
          "type": "uint256"
        }
      ],
      "stateMutability": "view",
      "type": "function"
    },
    {
      "inputs": [
        {
          "internalType": "uint256",
          "name": "",
          "type": "uint256"
        }
      ],
      "name": "CryptoNFTs",
      "outputs": [
        {
          "internalType": "string",
          "name": "",
          "type": "string"
        }
      ],
      "stateMutability": "view",
      "type": "function"
    },
    {
      "inputs": [
        {
          "internalType": "address",
          "name": "to",
          "type": "address"
        },
        {
          "internalType": "uint256",
          "name": "tokenId",
          "type": "uint256"
        }
      ],
      "name": "approve",
      "outputs": [],
      "stateMutability": "nonpayable",
      "type": "function"
    },
    {
      "inputs": [
        {
          "internalType": "address",
          "name": "owner",
          "type": "address"
        }
      ],
      "name": "balanceOf",
      "outputs": [
        {
          "internalType": "uint256",
          "name": "",
          "type": "uint256"
        }
      ],
      "stateMutability": "view",
      "type": "function"
    },
    {
      "inputs": [
        {
          "internalType": "uint256",
          "name": "tokenId",
          "type": "uint256"
        }
      ],
      "name": "getApproved",
      "outputs": [
        {
          "internalType": "address",
          "name": "",
          "type": "address"
        }
      ],
      "stateMutability": "view",
      "type": "function"
    },
    {
      "inputs": [],
      "name": "getBaseURI",
      "outputs": [
        {
          "internalType": "string",
          "name": "baseURI",
          "type": "string"
        }
      ],
      "stateMutability": "view",
      "type": "function"
    },
    {
      "inputs": [
        {
          "internalType": "address",
          "name": "owner",
          "type": "address"
        },
        {
          "internalType": "address",
          "name": "operator",
          "type": "address"
        }
      ],
      "name": "isApprovedForAll",
      "outputs": [
        {
          "internalType": "bool",
          "name": "",
          "type": "bool"
        }
      ],
      "stateMutability": "view",
      "type": "function"
    },
    {
      "inputs": [
        {
          "internalType": "string",
          "name": "name",
          "type": "string"
        }
      ],
      "name": "mint",
      "outputs": [],
      "stateMutability": "nonpayable",
      "type": "function"
    },
    {
      "inputs": [],
      "name": "name",
      "outputs": [
        {
          "internalType": "string",
          "name": "",
          "type": "string"
        }
      ],
      "stateMutability": "view",
      "type": "function"
    },
    {
      "inputs": [
        {
          "internalType": "uint256",
          "name": "tokenId",
          "type": "uint256"
        }
      ],
      "name": "ownerOf",
      "outputs": [
        {
          "internalType": "address",
          "name": "",
          "type": "address"
        }
      ],
      "stateMutability": "view",
      "type": "function"
    },
    {
      "inputs": [
        {
          "internalType": "address",
          "name": "from",
          "type": "address"
        },
        {
          "internalType": "address",
          "name": "to",
          "type": "address"
        },
        {
          "internalType": "uint256",
          "name": "tokenId",
          "type": "uint256"
        }
      ],
      "name": "safeTransferFrom",
      "outputs": [],
      "stateMutability": "nonpayable",
      "type": "function"
    },
    {
      "inputs": [
        {
          "internalType": "address",
          "name": "from",
          "type": "address"
        },
        {
          "internalType": "address",
          "name": "to",
          "type": "address"
        },
        {
          "internalType": "uint256",
          "name": "tokenId",
          "type": "uint256"
        },
        {
          "internalType": "bytes",
          "name": "_data",
          "type": "bytes"
        }
      ],
      "name": "safeTransferFrom",
      "outputs": [],
      "stateMutability": "nonpayable",
      "type": "function"
    },
    {
      "inputs": [
        {
          "internalType": "address",
          "name": "operator",
          "type": "address"
        },
        {
          "internalType": "bool",
          "name": "approved",
          "type": "bool"
        }
      ],
      "name": "setApprovalForAll",
      "outputs": [],
      "stateMutability": "nonpayable",
      "type": "function"
    },
    {
      "inputs": [
        {
          "internalType": "bytes4",
          "name": "interfaceId",
          "type": "bytes4"
        }
      ],
      "name": "supportsInterface",
      "outputs": [
        {
          "internalType": "bool",
          "name": "",
          "type": "bool"
        }
      ],
      "stateMutability": "view",
      "type": "function"
    },
    {
      "inputs": [],
      "name": "symbol",
      "outputs": [
        {
          "internalType": "string",
          "name": "",
          "type": "string"
        }
      ],
      "stateMutability": "view",
      "type": "function"
    },
    {
      "inputs": [
        {
          "internalType": "uint256",
          "name": "tokenId",
          "type": "uint256"
        }
      ],
      "name": "tokenURI",
      "outputs": [
        {
          "internalType": "string",
          "name": "",
          "type": "string"
        }
      ],
      "stateMutability": "view",
      "type": "function"
    },
    {
      "inputs": [
        {
          "internalType": "address",
          "name": "from",
          "type": "address"
        },
        {
          "internalType": "address",
          "name": "to",
          "type": "address"
        },
        {
          "internalType": "uint256",
          "name": "tokenId",
          "type": "uint256"
        }
      ],
      "name": "transferFrom",
      "outputs": [],
      "stateMutability": "nonpayable",
      "type": "function"
    }
  ],
  "bytecode": "0x60806040523480156200001157600080fd5b5060405162001b3f38038062001b3f8339810160408190526200003491620001e1565b8151829082906200004d9060009060208501906200006e565b508051620000639060019060208401906200006e565b505050505062000288565b8280546200007c906200024b565b90600052602060002090601f016020900481019282620000a05760008555620000eb565b82601f10620000bb57805160ff1916838001178555620000eb565b82800160010185558215620000eb579182015b82811115620000eb578251825591602001919060010190620000ce565b50620000f9929150620000fd565b5090565b5b80821115620000f95760008155600101620000fe565b634e487b7160e01b600052604160045260246000fd5b600082601f8301126200013c57600080fd5b81516001600160401b038082111562000159576200015962000114565b604051601f8301601f19908116603f0116810190828211818310171562000184576200018462000114565b81604052838152602092508683858801011115620001a157600080fd5b600091505b83821015620001c55785820183015181830184015290820190620001a6565b83821115620001d75760008385830101525b9695505050505050565b60008060408385031215620001f557600080fd5b82516001600160401b03808211156200020d57600080fd5b6200021b868387016200012a565b935060208501519150808211156200023257600080fd5b5062000241858286016200012a565b9150509250929050565b600181811c908216806200026057607f821691505b602082108114156200028257634e487b7160e01b600052602260045260246000fd5b50919050565b6118a780620002986000396000f3fe608060405234801561001057600080fd5b506004361061011b5760003560e01c8063714c5398116100b2578063b88d4fde11610081578063d85d3d2711610066578063d85d3d2714610248578063e985e9c51461025b578063f3b1a0c21461029757600080fd5b8063b88d4fde14610222578063c87b56dd1461023557600080fd5b8063714c5398146101f757806386f39b47146101ff57806395d89b4114610207578063a22cb4651461020f57600080fd5b806323b872dd116100ee57806323b872dd1461019d57806342842e0e146101b05780636352211e146101c357806370a08231146101d657600080fd5b806301ffc9a71461012057806306fdde0314610148578063081812fc1461015d578063095ea7b314610188575b600080fd5b61013361012e3660046113fc565b6102aa565b60405190151581526020015b60405180910390f35b610150610347565b60405161013f9190611471565b61017061016b366004611484565b6103d9565b6040516001600160a01b03909116815260200161013f565b61019b6101963660046114b9565b610473565b005b61019b6101ab3660046114e3565b6105a5565b61019b6101be3660046114e3565b61062c565b6101706101d1366004611484565b610647565b6101e96101e436600461151f565b6106d2565b60405190815260200161013f565b61015061076c565b6007546101e9565b610150610794565b61019b61021d36600461153a565b6107a3565b61019b610230366004611602565b6107b2565b610150610243366004611484565b610840565b61019b61025636600461167e565b610942565b6101336102693660046116c7565b6001600160a01b03918216600090815260056020908152604080832093909416825291909152205460ff1690565b6101506102a5366004611484565b6109bd565b60006001600160e01b031982167f80ac58cd00000000000000000000000000000000000000000000000000000000148061030d57506001600160e01b031982167f5b5e139f00000000000000000000000000000000000000000000000000000000145b8061034157507f01ffc9a7000000000000000000000000000000000000000000000000000000006001600160e01b03198316145b92915050565b606060008054610356906116fa565b80601f0160208091040260200160405190810160405280929190818152602001828054610382906116fa565b80156103cf5780601f106103a4576101008083540402835291602001916103cf565b820191906000526020600020905b8154815290600101906020018083116103b257829003601f168201915b5050505050905090565b6000818152600260205260408120546001600160a01b03166104575760405162461bcd60e51b815260206004820152602c60248201527f4552433732313a20617070726f76656420717565727920666f72206e6f6e657860448201526b34b9ba32b73a103a37b5b2b760a11b60648201526084015b60405180910390fd5b506000908152600460205260409020546001600160a01b031690565b600061047e82610647565b9050806001600160a01b0316836001600160a01b031614156105085760405162461bcd60e51b815260206004820152602160248201527f4552433732313a20617070726f76616c20746f2063757272656e74206f776e6560448201527f7200000000000000000000000000000000000000000000000000000000000000606482015260840161044e565b336001600160a01b038216148061052457506105248133610269565b6105965760405162461bcd60e51b815260206004820152603860248201527f4552433732313a20617070726f76652063616c6c6572206973206e6f74206f7760448201527f6e6572206e6f7220617070726f76656420666f7220616c6c0000000000000000606482015260840161044e565b6105a08383610a69565b505050565b6105af3382610ae4565b6106215760405162461bcd60e51b815260206004820152603160248201527f4552433732313a207472616e736665722063616c6c6572206973206e6f74206f60448201527f776e6572206e6f7220617070726f766564000000000000000000000000000000606482015260840161044e565b6105a0838383610bdb565b6105a0838383604051806020016040528060008152506107b2565b6000818152600260205260408120546001600160a01b0316806103415760405162461bcd60e51b815260206004820152602960248201527f4552433732313a206f776e657220717565727920666f72206e6f6e657869737460448201527f656e7420746f6b656e0000000000000000000000000000000000000000000000606482015260840161044e565b60006001600160a01b0382166107505760405162461bcd60e51b815260206004820152602a60248201527f4552433732313a2062616c616e636520717565727920666f7220746865207a6560448201527f726f206164647265737300000000000000000000000000000000000000000000606482015260840161044e565b506001600160a01b031660009081526003602052604090205490565b606061078f6040805180820190915260048152631d195cdd60e21b602082015290565b905090565b606060018054610356906116fa565b6107ae338383610db5565b5050565b6107bc3383610ae4565b61082e5760405162461bcd60e51b815260206004820152603160248201527f4552433732313a207472616e736665722063616c6c6572206973206e6f74206f60448201527f776e6572206e6f7220617070726f766564000000000000000000000000000000606482015260840161044e565b61083a84848484610e84565b50505050565b6000818152600260205260409020546060906001600160a01b03166108cd5760405162461bcd60e51b815260206004820152602f60248201527f4552433732314d657461646174613a2055524920717565727920666f72206e6f60448201527f6e6578697374656e7420746f6b656e0000000000000000000000000000000000606482015260840161044e565b60006108f06040805180820190915260048152631d195cdd60e21b602082015290565b90506000815111610910576040518060200160405280600081525061093b565b8061091a84610f02565b60405160200161092b929190611735565b6040516020818303038152906040525b9392505050565b600680546001810182556000919091528151610985917ff652222313e28459528d920b65115c16c04f3efc82aaedc97be59f3f377c0d3f0190602084019061134a565b506109a23360075460405180602001604052806000815250611034565b6001600760008282546109b5919061177a565b909155505050565b600681815481106109cd57600080fd5b9060005260206000200160009150905080546109e8906116fa565b80601f0160208091040260200160405190810160405280929190818152602001828054610a14906116fa565b8015610a615780601f10610a3657610100808354040283529160200191610a61565b820191906000526020600020905b815481529060010190602001808311610a4457829003601f168201915b505050505081565b6000818152600460205260409020805473ffffffffffffffffffffffffffffffffffffffff19166001600160a01b0384169081179091558190610aab82610647565b6001600160a01b03167f8c5be1e5ebec7d5bd14f71427d1e84f3dd0314c0f7b2291e5b200ac8c7c3b92560405160405180910390a45050565b6000818152600260205260408120546001600160a01b0316610b5d5760405162461bcd60e51b815260206004820152602c60248201527f4552433732313a206f70657261746f7220717565727920666f72206e6f6e657860448201526b34b9ba32b73a103a37b5b2b760a11b606482015260840161044e565b6000610b6883610647565b9050806001600160a01b0316846001600160a01b03161480610ba35750836001600160a01b0316610b98846103d9565b6001600160a01b0316145b80610bd357506001600160a01b0380821660009081526005602090815260408083209388168352929052205460ff165b949350505050565b826001600160a01b0316610bee82610647565b6001600160a01b031614610c6a5760405162461bcd60e51b815260206004820152602560248201527f4552433732313a207472616e736665722066726f6d20696e636f72726563742060448201527f6f776e6572000000000000000000000000000000000000000000000000000000606482015260840161044e565b6001600160a01b038216610ce55760405162461bcd60e51b8152602060048201526024808201527f4552433732313a207472616e7366657220746f20746865207a65726f2061646460448201527f7265737300000000000000000000000000000000000000000000000000000000606482015260840161044e565b610cf0600082610a69565b6001600160a01b0383166000908152600360205260408120805460019290610d19908490611792565b90915550506001600160a01b0382166000908152600360205260408120805460019290610d4790849061177a565b9091555050600081815260026020526040808220805473ffffffffffffffffffffffffffffffffffffffff19166001600160a01b0386811691821790925591518493918716917fddf252ad1be2c89b69c2b068fc378daa952ba7f163c4a11628f55a4df523b3ef91a4505050565b816001600160a01b0316836001600160a01b03161415610e175760405162461bcd60e51b815260206004820152601960248201527f4552433732313a20617070726f766520746f2063616c6c657200000000000000604482015260640161044e565b6001600160a01b03838116600081815260056020908152604080832094871680845294825291829020805460ff191686151590811790915591519182527f17307eab39ab6107e8899845ad3d59bd9653f200f220920489ca2b5937696c31910160405180910390a3505050565b610e8f848484610bdb565b610e9b848484846110b2565b61083a5760405162461bcd60e51b815260206004820152603260248201527f4552433732313a207472616e7366657220746f206e6f6e20455243373231526560448201527131b2b4bb32b91034b6b83632b6b2b73a32b960711b606482015260840161044e565b606081610f4257505060408051808201909152600181527f3000000000000000000000000000000000000000000000000000000000000000602082015290565b8160005b8115610f6c5780610f56816117a9565b9150610f659050600a836117da565b9150610f46565b60008167ffffffffffffffff811115610f8757610f87611576565b6040519080825280601f01601f191660200182016040528015610fb1576020820181803683370190505b5090505b8415610bd357610fc6600183611792565b9150610fd3600a866117ee565b610fde90603061177a565b60f81b818381518110610ff357610ff3611802565b60200101907effffffffffffffffffffffffffffffffffffffffffffffffffffffffffffff1916908160001a90535061102d600a866117da565b9450610fb5565b61103e83836111fb565b61104b60008484846110b2565b6105a05760405162461bcd60e51b815260206004820152603260248201527f4552433732313a207472616e7366657220746f206e6f6e20455243373231526560448201527131b2b4bb32b91034b6b83632b6b2b73a32b960711b606482015260840161044e565b60006001600160a01b0384163b156111f057604051630a85bd0160e11b81526001600160a01b0385169063150b7a02906110f6903390899088908890600401611818565b6020604051808303816000875af1925050508015611131575060408051601f3d908101601f1916820190925261112e91810190611854565b60015b6111d6573d80801561115f576040519150601f19603f3d011682016040523d82523d6000602084013e611164565b606091505b5080516111ce5760405162461bcd60e51b815260206004820152603260248201527f4552433732313a207472616e7366657220746f206e6f6e20455243373231526560448201527131b2b4bb32b91034b6b83632b6b2b73a32b960711b606482015260840161044e565b805181602001fd5b6001600160e01b031916630a85bd0160e11b149050610bd3565b506001949350505050565b6001600160a01b0382166112515760405162461bcd60e51b815260206004820181905260248201527f4552433732313a206d696e7420746f20746865207a65726f2061646472657373604482015260640161044e565b6000818152600260205260409020546001600160a01b0316156112b65760405162461bcd60e51b815260206004820152601c60248201527f4552433732313a20746f6b656e20616c7265616479206d696e74656400000000604482015260640161044e565b6001600160a01b03821660009081526003602052604081208054600192906112df90849061177a565b9091555050600081815260026020526040808220805473ffffffffffffffffffffffffffffffffffffffff19166001600160a01b03861690811790915590518392907fddf252ad1be2c89b69c2b068fc378daa952ba7f163c4a11628f55a4df523b3ef908290a45050565b828054611356906116fa565b90600052602060002090601f01602090048101928261137857600085556113be565b82601f1061139157805160ff19168380011785556113be565b828001600101855582156113be579182015b828111156113be5782518255916020019190600101906113a3565b506113ca9291506113ce565b5090565b5b808211156113ca57600081556001016113cf565b6001600160e01b0319811681146113f957600080fd5b50565b60006020828403121561140e57600080fd5b813561093b816113e3565b60005b8381101561143457818101518382015260200161141c565b8381111561083a5750506000910152565b6000815180845261145d816020860160208601611419565b601f01601f19169290920160200192915050565b60208152600061093b6020830184611445565b60006020828403121561149657600080fd5b5035919050565b80356001600160a01b03811681146114b457600080fd5b919050565b600080604083850312156114cc57600080fd5b6114d58361149d565b946020939093013593505050565b6000806000606084860312156114f857600080fd5b6115018461149d565b925061150f6020850161149d565b9150604084013590509250925092565b60006020828403121561153157600080fd5b61093b8261149d565b6000806040838503121561154d57600080fd5b6115568361149d565b91506020830135801515811461156b57600080fd5b809150509250929050565b634e487b7160e01b600052604160045260246000fd5b600067ffffffffffffffff808411156115a7576115a7611576565b604051601f8501601f19908116603f011681019082821181831017156115cf576115cf611576565b816040528093508581528686860111156115e857600080fd5b858560208301376000602087830101525050509392505050565b6000806000806080858703121561161857600080fd5b6116218561149d565b935061162f6020860161149d565b925060408501359150606085013567ffffffffffffffff81111561165257600080fd5b8501601f8101871361166357600080fd5b6116728782356020840161158c565b91505092959194509250565b60006020828403121561169057600080fd5b813567ffffffffffffffff8111156116a757600080fd5b8201601f810184136116b857600080fd5b610bd38482356020840161158c565b600080604083850312156116da57600080fd5b6116e38361149d565b91506116f16020840161149d565b90509250929050565b600181811c9082168061170e57607f821691505b6020821081141561172f57634e487b7160e01b600052602260045260246000fd5b50919050565b60008351611747818460208801611419565b83519083019061175b818360208801611419565b01949350505050565b634e487b7160e01b600052601160045260246000fd5b6000821982111561178d5761178d611764565b500190565b6000828210156117a4576117a4611764565b500390565b60006000198214156117bd576117bd611764565b5060010190565b634e487b7160e01b600052601260045260246000fd5b6000826117e9576117e96117c4565b500490565b6000826117fd576117fd6117c4565b500690565b634e487b7160e01b600052603260045260246000fd5b60006001600160a01b0380871683528086166020840152508360408301526080606083015261184a6080830184611445565b9695505050505050565b60006020828403121561186657600080fd5b815161093b816113e356fea26469706673582212200867f8694d99c20a1e4112146576a12ba19c44e91b79e072114f35d3b5c5fe1b64736f6c634300080a0033",
  "linkReferences": {},
  "deployedLinkReferences": {}
}