{
  "_format": "hh-sol-artifact-1",
  "contractName": "CreateNFT",
  "sourceName": "contracts/NFT/CreateNFT.sol",
  "abi": [
    {
      "inputs": [
        {
          "internalType": "string",
          "name": "name_",
          "type": "string"
        },
        {
          "internalType": "string",
          "name": "symbol_",
          "type": "string"
        },
        {
          "internalType": "string",
          "name": "baseURI_",
          "type": "string"
        }
      ],
      "stateMutability": "nonpayable",
      "type": "constructor"
    },
    {
      "anonymous": false,
      "inputs": [
        {
          "indexed": true,
          "internalType": "address",
          "name": "owner",
          "type": "address"
        },
        {
          "indexed": true,
          "internalType": "address",
          "name": "approved",
          "type": "address"
        },
        {
          "indexed": true,
          "internalType": "uint256",
          "name": "tokenId",
          "type": "uint256"
        }
      ],
      "name": "Approval",
      "type": "event"
    },
    {
      "anonymous": false,
      "inputs": [
        {
          "indexed": true,
          "internalType": "address",
          "name": "owner",
          "type": "address"
        },
        {
          "indexed": true,
          "internalType": "address",
          "name": "operator",
          "type": "address"
        },
        {
          "indexed": false,
          "internalType": "bool",
          "name": "approved",
          "type": "bool"
        }
      ],
      "name": "ApprovalForAll",
      "type": "event"
    },
    {
      "anonymous": false,
      "inputs": [
        {
          "indexed": false,
          "internalType": "address",
          "name": "minter",
          "type": "address"
        },
        {
          "indexed": false,
          "internalType": "uint256",
          "name": "id",
          "type": "uint256"
        }
      ],
      "name": "MintNFT",
      "type": "event"
    },
    {
      "anonymous": false,
      "inputs": [
        {
          "indexed": true,
          "internalType": "address",
          "name": "from",
          "type": "address"
        },
        {
          "indexed": true,
          "internalType": "address",
          "name": "to",
          "type": "address"
        },
        {
          "indexed": true,
          "internalType": "uint256",
          "name": "tokenId",
          "type": "uint256"
        }
      ],
      "name": "Transfer",
      "type": "event"
    },
    {
      "inputs": [],
      "name": "CryptNFTsAmountCreated",
      "outputs": [
        {
          "internalType": "uint256",
          "name": "amount",
          "type": "uint256"
        }
      ],
      "stateMutability": "view",
      "type": "function"
    },
    {
      "inputs": [
        {
          "internalType": "address",
          "name": "to",
          "type": "address"
        },
        {
          "internalType": "uint256",
          "name": "tokenId",
          "type": "uint256"
        }
      ],
      "name": "approve",
      "outputs": [],
      "stateMutability": "nonpayable",
      "type": "function"
    },
    {
      "inputs": [
        {
          "internalType": "address",
          "name": "owner",
          "type": "address"
        }
      ],
      "name": "balanceOf",
      "outputs": [
        {
          "internalType": "uint256",
          "name": "",
          "type": "uint256"
        }
      ],
      "stateMutability": "view",
      "type": "function"
    },
    {
      "inputs": [
        {
          "internalType": "uint256",
          "name": "tokenId",
          "type": "uint256"
        }
      ],
      "name": "getApproved",
      "outputs": [
        {
          "internalType": "address",
          "name": "",
          "type": "address"
        }
      ],
      "stateMutability": "view",
      "type": "function"
    },
    {
      "inputs": [],
      "name": "getBaseURI",
      "outputs": [
        {
          "internalType": "string",
          "name": "baseNFTURI",
          "type": "string"
        }
      ],
      "stateMutability": "view",
      "type": "function"
    },
    {
      "inputs": [
        {
          "internalType": "uint256",
          "name": "_id",
          "type": "uint256"
        }
      ],
      "name": "getNFTById",
      "outputs": [
        {
          "internalType": "string",
          "name": "CryptoNFT",
          "type": "string"
        }
      ],
      "stateMutability": "view",
      "type": "function"
    },
    {
      "inputs": [
        {
          "internalType": "address",
          "name": "owner",
          "type": "address"
        },
        {
          "internalType": "address",
          "name": "operator",
          "type": "address"
        }
      ],
      "name": "isApprovedForAll",
      "outputs": [
        {
          "internalType": "bool",
          "name": "",
          "type": "bool"
        }
      ],
      "stateMutability": "view",
      "type": "function"
    },
    {
      "inputs": [
        {
          "internalType": "string",
          "name": "name",
          "type": "string"
        }
      ],
      "name": "mint",
      "outputs": [
        {
          "internalType": "uint256",
          "name": "",
          "type": "uint256"
        }
      ],
      "stateMutability": "nonpayable",
      "type": "function"
    },
    {
      "inputs": [],
      "name": "name",
      "outputs": [
        {
          "internalType": "string",
          "name": "",
          "type": "string"
        }
      ],
      "stateMutability": "view",
      "type": "function"
    },
    {
      "inputs": [
        {
          "internalType": "uint256",
          "name": "tokenId",
          "type": "uint256"
        }
      ],
      "name": "ownerOf",
      "outputs": [
        {
          "internalType": "address",
          "name": "",
          "type": "address"
        }
      ],
      "stateMutability": "view",
      "type": "function"
    },
    {
      "inputs": [
        {
          "internalType": "address",
          "name": "from",
          "type": "address"
        },
        {
          "internalType": "address",
          "name": "to",
          "type": "address"
        },
        {
          "internalType": "uint256",
          "name": "tokenId",
          "type": "uint256"
        }
      ],
      "name": "safeTransferFrom",
      "outputs": [],
      "stateMutability": "nonpayable",
      "type": "function"
    },
    {
      "inputs": [
        {
          "internalType": "address",
          "name": "from",
          "type": "address"
        },
        {
          "internalType": "address",
          "name": "to",
          "type": "address"
        },
        {
          "internalType": "uint256",
          "name": "tokenId",
          "type": "uint256"
        },
        {
          "internalType": "bytes",
          "name": "_data",
          "type": "bytes"
        }
      ],
      "name": "safeTransferFrom",
      "outputs": [],
      "stateMutability": "nonpayable",
      "type": "function"
    },
    {
      "inputs": [
        {
          "internalType": "address",
          "name": "operator",
          "type": "address"
        },
        {
          "internalType": "bool",
          "name": "approved",
          "type": "bool"
        }
      ],
      "name": "setApprovalForAll",
      "outputs": [],
      "stateMutability": "nonpayable",
      "type": "function"
    },
    {
      "inputs": [
        {
          "internalType": "bytes4",
          "name": "interfaceId",
          "type": "bytes4"
        }
      ],
      "name": "supportsInterface",
      "outputs": [
        {
          "internalType": "bool",
          "name": "",
          "type": "bool"
        }
      ],
      "stateMutability": "view",
      "type": "function"
    },
    {
      "inputs": [],
      "name": "symbol",
      "outputs": [
        {
          "internalType": "string",
          "name": "",
          "type": "string"
        }
      ],
      "stateMutability": "view",
      "type": "function"
    },
    {
      "inputs": [
        {
          "internalType": "uint256",
          "name": "tokenId",
          "type": "uint256"
        }
      ],
      "name": "tokenURI",
      "outputs": [
        {
          "internalType": "string",
          "name": "",
          "type": "string"
        }
      ],
      "stateMutability": "view",
      "type": "function"
    },
    {
      "inputs": [
        {
          "internalType": "address",
          "name": "from",
          "type": "address"
        },
        {
          "internalType": "address",
          "name": "to",
          "type": "address"
        },
        {
          "internalType": "uint256",
          "name": "tokenId",
          "type": "uint256"
        }
      ],
      "name": "transferFrom",
      "outputs": [],
      "stateMutability": "nonpayable",
      "type": "function"
    }
  ],
  "bytecode": "0x60806040523480156200001157600080fd5b5060405162001c4d38038062001c4d8339810160408190526200003491620001f8565b8251839083906200004d90600090602085019062000085565b5080516200006390600190602084019062000085565b505081516200007b9150600890602084019062000085565b50505050620002c6565b828054620000939062000289565b90600052602060002090601f016020900481019282620000b7576000855562000102565b82601f10620000d257805160ff191683800117855562000102565b8280016001018555821562000102579182015b8281111562000102578251825591602001919060010190620000e5565b506200011092915062000114565b5090565b5b8082111562000110576000815560010162000115565b634e487b7160e01b600052604160045260246000fd5b600082601f8301126200015357600080fd5b81516001600160401b03808211156200017057620001706200012b565b604051601f8301601f19908116603f011681019082821181831017156200019b576200019b6200012b565b81604052838152602092508683858801011115620001b857600080fd5b600091505b83821015620001dc5785820183015181830184015290820190620001bd565b83821115620001ee5760008385830101525b9695505050505050565b6000806000606084860312156200020e57600080fd5b83516001600160401b03808211156200022657600080fd5b620002348783880162000141565b945060208601519150808211156200024b57600080fd5b620002598783880162000141565b935060408601519150808211156200027057600080fd5b506200027f8682870162000141565b9150509250925092565b600181811c908216806200029e57607f821691505b60208210811415620002c057634e487b7160e01b600052602260045260246000fd5b50919050565b61197780620002d66000396000f3fe608060405234801561001057600080fd5b506004361061011b5760003560e01c8063714c5398116100b2578063a22cb46511610081578063c87b56dd11610066578063c87b56dd14610248578063d85d3d271461025b578063e985e9c51461026e57600080fd5b8063a22cb46514610222578063b88d4fde1461023557600080fd5b8063714c5398146101f757806386f39b47146101ff57806395d89b4114610207578063a168b8051461020f57600080fd5b806323b872dd116100ee57806323b872dd1461019d57806342842e0e146101b05780636352211e146101c357806370a08231146101d657600080fd5b806301ffc9a71461012057806306fdde0314610148578063081812fc1461015d578063095ea7b314610188575b600080fd5b61013361012e3660046114cc565b6102aa565b60405190151581526020015b60405180910390f35b610150610347565b60405161013f9190611541565b61017061016b366004611554565b6103d9565b6040516001600160a01b03909116815260200161013f565b61019b610196366004611589565b610473565b005b61019b6101ab3660046115b3565b6105a5565b61019b6101be3660046115b3565b61062c565b6101706101d1366004611554565b610647565b6101e96101e43660046115ef565b6106d2565b60405190815260200161013f565b61015061076c565b6007546101e9565b61015061077b565b61015061021d366004611554565b61078a565b61019b61023036600461160a565b6108e6565b61019b6102433660046116d2565b6108f5565b610150610256366004611554565b610983565b6101e961026936600461174e565b610a6c565b61013361027c366004611797565b6001600160a01b03918216600090815260056020908152604080832093909416825291909152205460ff1690565b60006001600160e01b031982167f80ac58cd00000000000000000000000000000000000000000000000000000000148061030d57506001600160e01b031982167f5b5e139f00000000000000000000000000000000000000000000000000000000145b8061034157507f01ffc9a7000000000000000000000000000000000000000000000000000000006001600160e01b03198316145b92915050565b606060008054610356906117ca565b80601f0160208091040260200160405190810160405280929190818152602001828054610382906117ca565b80156103cf5780601f106103a4576101008083540402835291602001916103cf565b820191906000526020600020905b8154815290600101906020018083116103b257829003601f168201915b5050505050905090565b6000818152600260205260408120546001600160a01b03166104575760405162461bcd60e51b815260206004820152602c60248201527f4552433732313a20617070726f76656420717565727920666f72206e6f6e657860448201526b34b9ba32b73a103a37b5b2b760a11b60648201526084015b60405180910390fd5b506000908152600460205260409020546001600160a01b031690565b600061047e82610647565b9050806001600160a01b0316836001600160a01b031614156105085760405162461bcd60e51b815260206004820152602160248201527f4552433732313a20617070726f76616c20746f2063757272656e74206f776e6560448201527f7200000000000000000000000000000000000000000000000000000000000000606482015260840161044e565b336001600160a01b03821614806105245750610524813361027c565b6105965760405162461bcd60e51b815260206004820152603860248201527f4552433732313a20617070726f76652063616c6c6572206973206e6f74206f7760448201527f6e6572206e6f7220617070726f76656420666f7220616c6c0000000000000000606482015260840161044e565b6105a08383610b2a565b505050565b6105af3382610ba5565b6106215760405162461bcd60e51b815260206004820152603160248201527f4552433732313a207472616e736665722063616c6c6572206973206e6f74206f60448201527f776e6572206e6f7220617070726f766564000000000000000000000000000000606482015260840161044e565b6105a0838383610c9c565b6105a0838383604051806020016040528060008152506108f5565b6000818152600260205260408120546001600160a01b0316806103415760405162461bcd60e51b815260206004820152602960248201527f4552433732313a206f776e657220717565727920666f72206e6f6e657869737460448201527f656e7420746f6b656e0000000000000000000000000000000000000000000000606482015260840161044e565b60006001600160a01b0382166107505760405162461bcd60e51b815260206004820152602a60248201527f4552433732313a2062616c616e636520717565727920666f7220746865207a6560448201527f726f206164647265737300000000000000000000000000000000000000000000606482015260840161044e565b506001600160a01b031660009081526003602052604090205490565b6060610776610e76565b905090565b606060018054610356906117ca565b606060018210156107dd5760405162461bcd60e51b815260206004820152601960248201527f54686973206964206e756d62657220697320746f6f206c6f7700000000000000604482015260640161044e565b60075482111561082f5760405162461bcd60e51b815260206004820152601a60248201527f54686973206964206e756d62657220697320746f6f2068696768000000000000604482015260640161044e565b600661083c60018461181b565b8154811061084c5761084c611832565b906000526020600020018054610861906117ca565b80601f016020809104026020016040519081016040528092919081815260200182805461088d906117ca565b80156108da5780601f106108af576101008083540402835291602001916108da565b820191906000526020600020905b8154815290600101906020018083116108bd57829003601f168201915b50505050509050919050565b6108f1338383610e85565b5050565b6108ff3383610ba5565b6109715760405162461bcd60e51b815260206004820152603160248201527f4552433732313a207472616e736665722063616c6c6572206973206e6f74206f60448201527f776e6572206e6f7220617070726f766564000000000000000000000000000000606482015260840161044e565b61097d84848484610f54565b50505050565b6000818152600260205260409020546060906001600160a01b0316610a105760405162461bcd60e51b815260206004820152602f60248201527f4552433732314d657461646174613a2055524920717565727920666f72206e6f60448201527f6e6578697374656e7420746f6b656e0000000000000000000000000000000000606482015260840161044e565b6000610a1a610e76565b90506000815111610a3a5760405180602001604052806000815250610a65565b80610a4484610fd2565b604051602001610a55929190611848565b6040516020818303038152906040525b9392505050565b6006805460018101825560009182528251610aae917ff652222313e28459528d920b65115c16c04f3efc82aaedc97be59f3f377c0d3f0190602085019061141a565b50600160076000828254610ac29190611877565b92505081905550610ae53360075460405180602001604052806000815250611104565b6007546040805133815260208101929092527f1f89f147a58d1673945cf416187db98efc8208408c011b91887acd59fd8523c3910160405180910390a1505060075490565b6000818152600460205260409020805473ffffffffffffffffffffffffffffffffffffffff19166001600160a01b0384169081179091558190610b6c82610647565b6001600160a01b03167f8c5be1e5ebec7d5bd14f71427d1e84f3dd0314c0f7b2291e5b200ac8c7c3b92560405160405180910390a45050565b6000818152600260205260408120546001600160a01b0316610c1e5760405162461bcd60e51b815260206004820152602c60248201527f4552433732313a206f70657261746f7220717565727920666f72206e6f6e657860448201526b34b9ba32b73a103a37b5b2b760a11b606482015260840161044e565b6000610c2983610647565b9050806001600160a01b0316846001600160a01b03161480610c645750836001600160a01b0316610c59846103d9565b6001600160a01b0316145b80610c9457506001600160a01b0380821660009081526005602090815260408083209388168352929052205460ff165b949350505050565b826001600160a01b0316610caf82610647565b6001600160a01b031614610d2b5760405162461bcd60e51b815260206004820152602560248201527f4552433732313a207472616e736665722066726f6d20696e636f72726563742060448201527f6f776e6572000000000000000000000000000000000000000000000000000000606482015260840161044e565b6001600160a01b038216610da65760405162461bcd60e51b8152602060048201526024808201527f4552433732313a207472616e7366657220746f20746865207a65726f2061646460448201527f7265737300000000000000000000000000000000000000000000000000000000606482015260840161044e565b610db1600082610b2a565b6001600160a01b0383166000908152600360205260408120805460019290610dda90849061181b565b90915550506001600160a01b0382166000908152600360205260408120805460019290610e08908490611877565b9091555050600081815260026020526040808220805473ffffffffffffffffffffffffffffffffffffffff19166001600160a01b0386811691821790925591518493918716917fddf252ad1be2c89b69c2b068fc378daa952ba7f163c4a11628f55a4df523b3ef91a4505050565b606060088054610356906117ca565b816001600160a01b0316836001600160a01b03161415610ee75760405162461bcd60e51b815260206004820152601960248201527f4552433732313a20617070726f766520746f2063616c6c657200000000000000604482015260640161044e565b6001600160a01b03838116600081815260056020908152604080832094871680845294825291829020805460ff191686151590811790915591519182527f17307eab39ab6107e8899845ad3d59bd9653f200f220920489ca2b5937696c31910160405180910390a3505050565b610f5f848484610c9c565b610f6b84848484611182565b61097d5760405162461bcd60e51b815260206004820152603260248201527f4552433732313a207472616e7366657220746f206e6f6e20455243373231526560448201527131b2b4bb32b91034b6b83632b6b2b73a32b960711b606482015260840161044e565b60608161101257505060408051808201909152600181527f3000000000000000000000000000000000000000000000000000000000000000602082015290565b8160005b811561103c57806110268161188f565b91506110359050600a836118c0565b9150611016565b60008167ffffffffffffffff81111561105757611057611646565b6040519080825280601f01601f191660200182016040528015611081576020820181803683370190505b5090505b8415610c945761109660018361181b565b91506110a3600a866118d4565b6110ae906030611877565b60f81b8183815181106110c3576110c3611832565b60200101907effffffffffffffffffffffffffffffffffffffffffffffffffffffffffffff1916908160001a9053506110fd600a866118c0565b9450611085565b61110e83836112cb565b61111b6000848484611182565b6105a05760405162461bcd60e51b815260206004820152603260248201527f4552433732313a207472616e7366657220746f206e6f6e20455243373231526560448201527131b2b4bb32b91034b6b83632b6b2b73a32b960711b606482015260840161044e565b60006001600160a01b0384163b156112c057604051630a85bd0160e11b81526001600160a01b0385169063150b7a02906111c69033908990889088906004016118e8565b6020604051808303816000875af1925050508015611201575060408051601f3d908101601f191682019092526111fe91810190611924565b60015b6112a6573d80801561122f576040519150601f19603f3d011682016040523d82523d6000602084013e611234565b606091505b50805161129e5760405162461bcd60e51b815260206004820152603260248201527f4552433732313a207472616e7366657220746f206e6f6e20455243373231526560448201527131b2b4bb32b91034b6b83632b6b2b73a32b960711b606482015260840161044e565b805181602001fd5b6001600160e01b031916630a85bd0160e11b149050610c94565b506001949350505050565b6001600160a01b0382166113215760405162461bcd60e51b815260206004820181905260248201527f4552433732313a206d696e7420746f20746865207a65726f2061646472657373604482015260640161044e565b6000818152600260205260409020546001600160a01b0316156113865760405162461bcd60e51b815260206004820152601c60248201527f4552433732313a20746f6b656e20616c7265616479206d696e74656400000000604482015260640161044e565b6001600160a01b03821660009081526003602052604081208054600192906113af908490611877565b9091555050600081815260026020526040808220805473ffffffffffffffffffffffffffffffffffffffff19166001600160a01b03861690811790915590518392907fddf252ad1be2c89b69c2b068fc378daa952ba7f163c4a11628f55a4df523b3ef908290a45050565b828054611426906117ca565b90600052602060002090601f016020900481019282611448576000855561148e565b82601f1061146157805160ff191683800117855561148e565b8280016001018555821561148e579182015b8281111561148e578251825591602001919060010190611473565b5061149a92915061149e565b5090565b5b8082111561149a576000815560010161149f565b6001600160e01b0319811681146114c957600080fd5b50565b6000602082840312156114de57600080fd5b8135610a65816114b3565b60005b838110156115045781810151838201526020016114ec565b8381111561097d5750506000910152565b6000815180845261152d8160208601602086016114e9565b601f01601f19169290920160200192915050565b602081526000610a656020830184611515565b60006020828403121561156657600080fd5b5035919050565b80356001600160a01b038116811461158457600080fd5b919050565b6000806040838503121561159c57600080fd5b6115a58361156d565b946020939093013593505050565b6000806000606084860312156115c857600080fd5b6115d18461156d565b92506115df6020850161156d565b9150604084013590509250925092565b60006020828403121561160157600080fd5b610a658261156d565b6000806040838503121561161d57600080fd5b6116268361156d565b91506020830135801515811461163b57600080fd5b809150509250929050565b634e487b7160e01b600052604160045260246000fd5b600067ffffffffffffffff8084111561167757611677611646565b604051601f8501601f19908116603f0116810190828211818310171561169f5761169f611646565b816040528093508581528686860111156116b857600080fd5b858560208301376000602087830101525050509392505050565b600080600080608085870312156116e857600080fd5b6116f18561156d565b93506116ff6020860161156d565b925060408501359150606085013567ffffffffffffffff81111561172257600080fd5b8501601f8101871361173357600080fd5b6117428782356020840161165c565b91505092959194509250565b60006020828403121561176057600080fd5b813567ffffffffffffffff81111561177757600080fd5b8201601f8101841361178857600080fd5b610c948482356020840161165c565b600080604083850312156117aa57600080fd5b6117b38361156d565b91506117c16020840161156d565b90509250929050565b600181811c908216806117de57607f821691505b602082108114156117ff57634e487b7160e01b600052602260045260246000fd5b50919050565b634e487b7160e01b600052601160045260246000fd5b60008282101561182d5761182d611805565b500390565b634e487b7160e01b600052603260045260246000fd5b6000835161185a8184602088016114e9565b83519083019061186e8183602088016114e9565b01949350505050565b6000821982111561188a5761188a611805565b500190565b60006000198214156118a3576118a3611805565b5060010190565b634e487b7160e01b600052601260045260246000fd5b6000826118cf576118cf6118aa565b500490565b6000826118e3576118e36118aa565b500690565b60006001600160a01b0380871683528086166020840152508360408301526080606083015261191a6080830184611515565b9695505050505050565b60006020828403121561193657600080fd5b8151610a65816114b356fea2646970667358221220edea199da4c3c29b32362e710c7729cbf4c01a6e60fed6b417db4e4a2cddcdfa64736f6c634300080a0033",
  "linkReferences": {},
  "deployedLinkReferences": {}
}