{
  "_format": "hh-sol-artifact-1",
  "contractName": "InterestModel",
  "sourceName": "contracts/InterestModel.sol",
  "abi": [
    {
      "inputs": [],
      "name": "accrueInterest",
      "outputs": [
        {
          "internalType": "uint256",
          "name": "accruedInterestAmount",
          "type": "uint256"
        }
      ],
      "stateMutability": "nonpayable",
      "type": "function"
    },
    {
      "inputs": [],
      "name": "getAmountBorrowed",
      "outputs": [
        {
          "internalType": "uint256",
          "name": "amountBorrowed",
          "type": "uint256"
        }
      ],
      "stateMutability": "view",
      "type": "function"
    },
    {
      "inputs": [],
      "name": "getAmountInvested",
      "outputs": [
        {
          "internalType": "uint256",
          "name": "amountInvested",
          "type": "uint256"
        }
      ],
      "stateMutability": "view",
      "type": "function"
    },
    {
      "inputs": [],
      "name": "getRepayAmount",
      "outputs": [
        {
          "internalType": "uint256",
          "name": "repayAmount",
          "type": "uint256"
        }
      ],
      "stateMutability": "view",
      "type": "function"
    },
    {
      "inputs": [],
      "name": "totalAmountBorrowed",
      "outputs": [
        {
          "internalType": "uint256",
          "name": "",
          "type": "uint256"
        }
      ],
      "stateMutability": "view",
      "type": "function"
    },
    {
      "inputs": [],
      "name": "viewAccruedTokensAmount",
      "outputs": [
        {
          "internalType": "uint256",
          "name": "accruedTokenAmount",
          "type": "uint256"
        }
      ],
      "stateMutability": "view",
      "type": "function"
    },
    {
      "inputs": [],
      "name": "viewBorrowAccruedTokensAmount",
      "outputs": [
        {
          "internalType": "uint256",
          "name": "accruedTokenAmount",
          "type": "uint256"
        }
      ],
      "stateMutability": "view",
      "type": "function"
    }
  ],
  "bytecode": "0x60806040526000805461ffff1916610c05179055600780546001600160a81b0319163060ff60a01b191617600160a01b17905534801561003e57600080fd5b5061086b8061004e6000396000f3fe608060405234801561001057600080fd5b506004361061007d5760003560e01c8063735b19151161005b578063735b1915146100b8578063857865ec146100c0578063a6afed95146100c8578063a952ae21146100d057600080fd5b80631cfc86e414610082578063270c8a31146100a857806366c83f6f146100b0575b600080fd5b336000908152600960205260409020600301545b60405190815260200160405180910390f35b6100966100d8565b610096610167565b600154610096565b610096610225565b61009661024c565b61009661040c565b33600090815260096020908152604080832081516080810183528154815260018201549381019390935260028101549183019190915260030154606082015261011f610486565b9150630faa02808160600151610143600060019054906101000a900460ff16610527565b61014d9190610772565b6101579190610791565b61016190836107b3565b91505090565b600061017161054e565b6007546040516370a0823160e01b8152336004820152919250630faa02809173ffffffffffffffffffffffffffffffffffffffff909116906370a0823190602401602060405180830381865afa1580156101cf573d6000803e3d6000fd5b505050506040513d601f19601f820116820180604052508101906101f391906107cb565b6000546102029060ff16610527565b61020c9190610772565b6102169190610791565b61022090826107b3565b905090565b600061022f6100d8565b3360009081526009602052604090206003015461022091906107b3565b600080600754600160a01b900460ff16600181111561026d5761026d6107e4565b14156102795750600090565b6007805460ff60a01b191690556002544314156102a957506007805460ff60a01b1916600160a01b179055600090565b600080546102b99060ff16610527565b905080600360008282546102cd91906107b3565b9091555050600754604080517f18160ddd0000000000000000000000000000000000000000000000000000000081529051630faa02809273ffffffffffffffffffffffffffffffffffffffff16916318160ddd9160048083019260209291908290030181865afa158015610345573d6000803e3d6000fd5b505050506040513d601f19601f8201168201806040525081019061036991906107cb565b6103739083610772565b61037d9190610791565b915061038882610631565b6000805461039d90610100900460ff16610527565b905080600460008282546103b191906107b3565b9091555050600154600090630faa0280906103cc9084610772565b6103d69190610791565b905080600660008282546103ea91906107b3565b90915550504360025550506007805460ff60a01b1916600160a01b1790555090565b6007546040516370a0823160e01b815233600482015260009173ffffffffffffffffffffffffffffffffffffffff16906370a0823190602401602060405180830381865afa158015610462573d6000803e3d6000fd5b505050506040513d601f19601f8201168201806040525081019061022091906107cb565b33600090815260096020908152604080832081516080810183528154815260018201549381019390935260028101549183019190915260030154606082015281806104cf61064b565b8060200190518101906104e291906107fa565b915091508260400151630faa0280846060015184846105019190610772565b61050b9190610772565b6105159190610791565b61051f91906107b3565b935050505090565b60008060025443610538919061081e565b905061054760ff841682610772565b9392505050565b3360009081526008602090815260408083208151606081018352815481526001820154938101939093526002015490820152818061058a6106f8565b80602001905181019061059d91906107fa565b60408581015160075491516370a0823160e01b81523360048201529395509193509091630faa02809173ffffffffffffffffffffffffffffffffffffffff16906370a0823190602401602060405180830381865afa158015610603573d6000803e3d6000fd5b505050506040513d601f19601f8201168201806040525081019061062791906107cb565b6105018585610772565b806005600082825461064391906107b3565b909155505050565b33600090815260096020908152604080832081516080810183528154815260018201549381018490526002808301549382019390935260039091015460608281019190915291549193909290916106a2919061081e565b9050600081156106cd5782516004546000916106bd9161081e565b90506106c98382610791565b9150505b6040805160208101849052908101829052606001604051602081830303815290604052935050505090565b336000908152600860209081526040808320815160608181018452825482526001830154948201859052600292830154938201939093529054919390929091610741919061081e565b9050600081156106cd5782516003546000916106bd9161081e565b634e487b7160e01b600052601160045260246000fd5b600081600019048311821515161561078c5761078c61075c565b500290565b6000826107ae57634e487b7160e01b600052601260045260246000fd5b500490565b600082198211156107c6576107c661075c565b500190565b6000602082840312156107dd57600080fd5b5051919050565b634e487b7160e01b600052602160045260246000fd5b6000806040838503121561080d57600080fd5b505080516020909101519092909150565b6000828210156108305761083061075c565b50039056fea264697066735822122012bf1ca3d08131ba977824e937de59dd2bcff6b124d9d2e6536244398102f34764736f6c634300080a0033",
  "linkReferences": {},
  "deployedLinkReferences": {}
}