{
  "_format": "hh-sol-artifact-1",
  "contractName": "InterestModel",
  "sourceName": "contracts/InterestModel.sol",
  "abi": [
    {
      "anonymous": false,
      "inputs": [
        {
          "indexed": true,
          "internalType": "address",
          "name": "previousOwner",
          "type": "address"
        },
        {
          "indexed": true,
          "internalType": "address",
          "name": "newOwner",
          "type": "address"
        }
      ],
      "name": "OwnershipTransferred",
      "type": "event"
    },
    {
      "inputs": [
        {
          "internalType": "address",
          "name": "borrower",
          "type": "address"
        }
      ],
      "name": "getAmountBorrowed",
      "outputs": [
        {
          "internalType": "uint256",
          "name": "amountBorrowed",
          "type": "uint256"
        }
      ],
      "stateMutability": "view",
      "type": "function"
    },
    {
      "inputs": [],
      "name": "getAmountInvested",
      "outputs": [
        {
          "internalType": "uint256",
          "name": "amountInvested",
          "type": "uint256"
        }
      ],
      "stateMutability": "view",
      "type": "function"
    },
    {
      "inputs": [
        {
          "internalType": "address",
          "name": "borrower",
          "type": "address"
        }
      ],
      "name": "getBorrowedRepayAmount",
      "outputs": [
        {
          "internalType": "uint256",
          "name": "repayAmount",
          "type": "uint256"
        }
      ],
      "stateMutability": "view",
      "type": "function"
    },
    {
      "inputs": [],
      "name": "owner",
      "outputs": [
        {
          "internalType": "address",
          "name": "",
          "type": "address"
        }
      ],
      "stateMutability": "view",
      "type": "function"
    },
    {
      "inputs": [],
      "name": "renounceOwnership",
      "outputs": [],
      "stateMutability": "nonpayable",
      "type": "function"
    },
    {
      "inputs": [
        {
          "internalType": "uint8",
          "name": "amount",
          "type": "uint8"
        }
      ],
      "name": "setCurrentBorrowInterestRatePerBlock",
      "outputs": [],
      "stateMutability": "nonpayable",
      "type": "function"
    },
    {
      "inputs": [
        {
          "internalType": "uint8",
          "name": "amount",
          "type": "uint8"
        }
      ],
      "name": "setCurrentInterestRatePerBlock",
      "outputs": [],
      "stateMutability": "nonpayable",
      "type": "function"
    },
    {
      "inputs": [],
      "name": "totalAmountBorrowed",
      "outputs": [
        {
          "internalType": "uint256",
          "name": "",
          "type": "uint256"
        }
      ],
      "stateMutability": "view",
      "type": "function"
    },
    {
      "inputs": [],
      "name": "totalAmountInvested",
      "outputs": [
        {
          "internalType": "uint256",
          "name": "",
          "type": "uint256"
        }
      ],
      "stateMutability": "view",
      "type": "function"
    },
    {
      "inputs": [],
      "name": "totalAmountInvestedInterest",
      "outputs": [
        {
          "internalType": "uint256",
          "name": "",
          "type": "uint256"
        }
      ],
      "stateMutability": "view",
      "type": "function"
    },
    {
      "inputs": [],
      "name": "totalBorrowedInterest",
      "outputs": [
        {
          "internalType": "uint256",
          "name": "",
          "type": "uint256"
        }
      ],
      "stateMutability": "view",
      "type": "function"
    },
    {
      "inputs": [
        {
          "internalType": "address",
          "name": "newOwner",
          "type": "address"
        }
      ],
      "name": "transferOwnership",
      "outputs": [],
      "stateMutability": "nonpayable",
      "type": "function"
    },
    {
      "inputs": [],
      "name": "viewAccruedTokensAmount",
      "outputs": [
        {
          "internalType": "uint256",
          "name": "accruedTokenAmount",
          "type": "uint256"
        }
      ],
      "stateMutability": "view",
      "type": "function"
    },
    {
      "inputs": [
        {
          "internalType": "address",
          "name": "borrower",
          "type": "address"
        }
      ],
      "name": "viewBorrowAccruedTokensAmount",
      "outputs": [
        {
          "internalType": "uint256",
          "name": "accruedTokenAmount",
          "type": "uint256"
        }
      ],
      "stateMutability": "view",
      "type": "function"
    }
  ],
  "bytecode": "0x60806040526000805461ffff60a01b1916610c0560a01b179055600780546001600160a81b0319163060ff60a01b191617600160a01b17905534801561004457600080fd5b5061004e33610053565b6100a3565b600080546001600160a01b038381166001600160a01b0319831681178455604051919092169283917f8be0079c531659141344cd1fd0a4f28419497f9722a3daafe3b4186f6b6457e09190a35050565b610ba2806100b26000396000f3fe608060405234801561001057600080fd5b50600436106100ea5760003560e01c80638da5cb5b1161008c578063c909413c11610066578063c909413c146101ac578063e7a3ac82146101bf578063f2fde38b146101c7578063f6724a55146101da57600080fd5b80638da5cb5b14610176578063a952ae2114610191578063b18221831461019957600080fd5b806351919948116100c8578063519199481461014b57806366c83f6f1461015e578063715018a614610166578063735b19151461016e57600080fd5b806301c65e15146100ef578063234c28931461012e5780633f265d2e14610143575b600080fd5b61011b6100fd366004610a5d565b6001600160a01b031660009081526009602052604090206003015490565b6040519081526020015b60405180910390f35b61014161013c366004610a86565b6101e2565b005b60065461011b565b610141610159366004610a86565b61027c565b61011b610323565b6101416103db565b60015461011b565b6000546040516001600160a01b039091168152602001610125565b61011b610441565b61011b6101a7366004610a5d565b6104ae565b61011b6101ba366004610a5d565b610548565b60055461011b565b6101416101d5366004610a5d565b61057f565b61011b610661565b6000546001600160a01b031633146102415760405162461bcd60e51b815260206004820181905260248201527f4f776e61626c653a2063616c6c6572206973206e6f7420746865206f776e657260448201526064015b60405180910390fd5b6000805460ff909216600160a01b027fffffffffffffffffffffff00ffffffffffffffffffffffffffffffffffffffff909216919091179055565b6000546001600160a01b031633146102d65760405162461bcd60e51b815260206004820181905260248201527f4f776e61626c653a2063616c6c6572206973206e6f7420746865206f776e65726044820152606401610238565b6000805460ff9092167501000000000000000000000000000000000000000000027fffffffffffffffffffff00ffffffffffffffffffffffffffffffffffffffffff909216919091179055565b600061032d6106c4565b6007546040516370a0823160e01b8152336004820152919250630faa0280916001600160a01b03909116906370a0823190602401602060405180830381865afa15801561037e573d6000803e3d6000fd5b505050506040513d601f19601f820116820180604052508101906103a29190610aa9565b6000546103b890600160a01b900460ff166107c0565b6103c29190610ad8565b6103cc9190610af7565b6103d69082610b19565b905090565b6000546001600160a01b031633146104355760405162461bcd60e51b815260206004820181905260248201527f4f776e61626c653a2063616c6c6572206973206e6f7420746865206f776e65726044820152606401610238565b61043f60006107e0565b565b6007546040516370a0823160e01b81523360048201526000916001600160a01b0316906370a0823190602401602060405180830381865afa15801561048a573d6000803e3d6000fd5b505050506040513d601f19601f820116820180604052508101906103d69190610aa9565b6001600160a01b03811660009081526009602090815260408083208151608081018352815481526001820154938101939093526002810154918301919091526003015460608201526104ff83610848565b9150630faa02808160600151610523600060159054906101000a900460ff166107c0565b61052d9190610ad8565b6105379190610af7565b6105419083610b19565b9392505050565b6000610553826104ae565b6001600160a01b0383166000908152600960205260409020600301546105799190610b19565b92915050565b6000546001600160a01b031633146105d95760405162461bcd60e51b815260206004820181905260248201527f4f776e61626c653a2063616c6c6572206973206e6f7420746865206f776e65726044820152606401610238565b6001600160a01b0381166106555760405162461bcd60e51b815260206004820152602660248201527f4f776e61626c653a206e6577206f776e657220697320746865207a65726f206160448201527f64647265737300000000000000000000000000000000000000000000000000006064820152608401610238565b61065e816107e0565b50565b600754604080517f18160ddd00000000000000000000000000000000000000000000000000000000815290516000926001600160a01b0316916318160ddd9160048083019260209291908290030181865afa15801561048a573d6000803e3d6000fd5b336000908152600860209081526040808320815160608101835281548152600182015493810193909352600201549082015281806107006108f4565b8060200190518101906107139190610b31565b60408581015160075491516370a0823160e01b81523360048201529395509193509091630faa0280916001600160a01b0316906370a0823190602401602060405180830381865afa15801561076c573d6000803e3d6000fd5b505050506040513d601f19601f820116820180604052508101906107909190610aa9565b61079a8585610ad8565b6107a49190610ad8565b6107ae9190610af7565b6107b89190610b19565b935050505090565b600080600254436107d19190610b55565b905061054160ff841682610ad8565b600080546001600160a01b038381167fffffffffffffffffffffffff0000000000000000000000000000000000000000831681178455604051919092169283917f8be0079c531659141344cd1fd0a4f28419497f9722a3daafe3b4186f6b6457e09190a35050565b6001600160a01b0381166000908152600960209081526040808320815160808101835281548152600182015493810193909352600281015491830191909152600301546060820152818061089b85610993565b8060200190518101906108ae9190610b31565b915091508260400151630faa0280846060015184846108cd9190610ad8565b6108d79190610ad8565b6108e19190610af7565b6108eb9190610b19565b95945050505050565b33600090815260086020908152604080832081516060818101845282548252600183015494820185905260029283015493820193909352905491939092909161093d9190610b55565b90506000811561096857825160035460009161095891610b55565b90506109648382610af7565b9150505b6040805160208101849052908101829052606001604051602081830303815290604052935050505090565b6060600060096000846001600160a01b03166001600160a01b03168152602001908152602001600020604051806080016040529081600082015481526020016001820154815260200160028201548152602001600382015481525050905060008160200151600254610a059190610b55565b905060008115610a30578251600454600091610a2091610b55565b9050610a2c8382610af7565b9150505b60408051602081018490529081018290526060016040516020818303038152906040529350505050919050565b600060208284031215610a6f57600080fd5b81356001600160a01b038116811461054157600080fd5b600060208284031215610a9857600080fd5b813560ff8116811461054157600080fd5b600060208284031215610abb57600080fd5b5051919050565b634e487b7160e01b600052601160045260246000fd5b6000816000190483118215151615610af257610af2610ac2565b500290565b600082610b1457634e487b7160e01b600052601260045260246000fd5b500490565b60008219821115610b2c57610b2c610ac2565b500190565b60008060408385031215610b4457600080fd5b505080516020909101519092909150565b600082821015610b6757610b67610ac2565b50039056fea2646970667358221220b1ac68c912e85d0416536350f509eabfd36b35fa49e96396a7f89874b2db2c1964736f6c634300080a0033",
  "linkReferences": {},
  "deployedLinkReferences": {}
}