{
  "_format": "hh-sol-artifact-1",
  "contractName": "InterestModel",
  "sourceName": "contracts/InterestModel.sol",
  "abi": [
    {
      "anonymous": false,
      "inputs": [
        {
          "indexed": true,
          "internalType": "address",
          "name": "previousOwner",
          "type": "address"
        },
        {
          "indexed": true,
          "internalType": "address",
          "name": "newOwner",
          "type": "address"
        }
      ],
      "name": "OwnershipTransferred",
      "type": "event"
    },
    {
      "inputs": [
        {
          "internalType": "address",
          "name": "borrower",
          "type": "address"
        }
      ],
      "name": "getAmountBorrowed",
      "outputs": [
        {
          "internalType": "uint256",
          "name": "amountBorrowed",
          "type": "uint256"
        }
      ],
      "stateMutability": "view",
      "type": "function"
    },
    {
      "inputs": [],
      "name": "getAmountInvested",
      "outputs": [
        {
          "internalType": "uint256",
          "name": "amountInvested",
          "type": "uint256"
        }
      ],
      "stateMutability": "view",
      "type": "function"
    },
    {
      "inputs": [
        {
          "internalType": "address",
          "name": "borrower",
          "type": "address"
        }
      ],
      "name": "getBorrowedRepayAmount",
      "outputs": [
        {
          "internalType": "uint256",
          "name": "repayAmount",
          "type": "uint256"
        }
      ],
      "stateMutability": "view",
      "type": "function"
    },
    {
      "inputs": [],
      "name": "owner",
      "outputs": [
        {
          "internalType": "address",
          "name": "",
          "type": "address"
        }
      ],
      "stateMutability": "view",
      "type": "function"
    },
    {
      "inputs": [],
      "name": "renounceOwnership",
      "outputs": [],
      "stateMutability": "nonpayable",
      "type": "function"
    },
    {
      "inputs": [
        {
          "internalType": "uint8",
          "name": "amount",
          "type": "uint8"
        }
      ],
      "name": "setCurrentBorrowInterestRatePerBlock",
      "outputs": [],
      "stateMutability": "nonpayable",
      "type": "function"
    },
    {
      "inputs": [
        {
          "internalType": "uint8",
          "name": "amount",
          "type": "uint8"
        }
      ],
      "name": "setCurrentInterestRatePerBlock",
      "outputs": [],
      "stateMutability": "nonpayable",
      "type": "function"
    },
    {
      "inputs": [],
      "name": "totalAmountBorrowed",
      "outputs": [
        {
          "internalType": "uint256",
          "name": "",
          "type": "uint256"
        }
      ],
      "stateMutability": "view",
      "type": "function"
    },
    {
      "inputs": [],
      "name": "totalAmountInvested",
      "outputs": [
        {
          "internalType": "uint256",
          "name": "",
          "type": "uint256"
        }
      ],
      "stateMutability": "view",
      "type": "function"
    },
    {
      "inputs": [],
      "name": "totalAmountInvestedInterest",
      "outputs": [
        {
          "internalType": "uint256",
          "name": "",
          "type": "uint256"
        }
      ],
      "stateMutability": "view",
      "type": "function"
    },
    {
      "inputs": [],
      "name": "totalBorrowedInterest",
      "outputs": [
        {
          "internalType": "uint256",
          "name": "",
          "type": "uint256"
        }
      ],
      "stateMutability": "view",
      "type": "function"
    },
    {
      "inputs": [
        {
          "internalType": "address",
          "name": "newOwner",
          "type": "address"
        }
      ],
      "name": "transferOwnership",
      "outputs": [],
      "stateMutability": "nonpayable",
      "type": "function"
    },
    {
      "inputs": [],
      "name": "viewAccruedTokensAmount",
      "outputs": [
        {
          "internalType": "uint256",
          "name": "accruedTokenAmount",
          "type": "uint256"
        }
      ],
      "stateMutability": "view",
      "type": "function"
    },
    {
      "inputs": [
        {
          "internalType": "address",
          "name": "borrower",
          "type": "address"
        }
      ],
      "name": "viewBorrowAccruedTokensAmount",
      "outputs": [
        {
          "internalType": "uint256",
          "name": "accruedTokenAmount",
          "type": "uint256"
        }
      ],
      "stateMutability": "view",
      "type": "function"
    }
  ],
  "bytecode": "0x60806040526000805461ffff60a01b1916610c0560a01b179055600780546001600160a81b0319163060ff60a01b191617600160a01b17905534801561004457600080fd5b5061004e33610053565b6100a3565b600080546001600160a01b038381166001600160a01b0319831681178455604051919092169283917f8be0079c531659141344cd1fd0a4f28419497f9722a3daafe3b4186f6b6457e09190a35050565b610c57806100b26000396000f3fe608060405234801561001057600080fd5b50600436106100ea5760003560e01c80638da5cb5b1161008c578063c909413c11610066578063c909413c146101ac578063e7a3ac82146101bf578063f2fde38b146101c7578063f6724a55146101da57600080fd5b80638da5cb5b14610176578063a952ae2114610191578063b18221831461019957600080fd5b806351919948116100c8578063519199481461014b57806366c83f6f1461015e578063715018a614610166578063735b19151461016e57600080fd5b806301c65e15146100ef578063234c28931461012e5780633f265d2e14610143575b600080fd5b61011b6100fd366004610b12565b6001600160a01b031660009081526009602052604090206003015490565b6040519081526020015b60405180910390f35b61014161013c366004610b3b565b6101e2565b005b60065461011b565b610141610159366004610b3b565b61027c565b61011b610323565b6101416103db565b60015461011b565b6000546040516001600160a01b039091168152602001610125565b61011b610441565b61011b6101a7366004610b12565b6104ae565b61011b6101ba366004610b12565b610548565b61011b61057f565b6101416101d5366004610b12565b610634565b61011b610716565b6000546001600160a01b031633146102415760405162461bcd60e51b815260206004820181905260248201527f4f776e61626c653a2063616c6c6572206973206e6f7420746865206f776e657260448201526064015b60405180910390fd5b6000805460ff909216600160a01b027fffffffffffffffffffffff00ffffffffffffffffffffffffffffffffffffffff909216919091179055565b6000546001600160a01b031633146102d65760405162461bcd60e51b815260206004820181905260248201527f4f776e61626c653a2063616c6c6572206973206e6f7420746865206f776e65726044820152606401610238565b6000805460ff9092167501000000000000000000000000000000000000000000027fffffffffffffffffffff00ffffffffffffffffffffffffffffffffffffffffff909216919091179055565b600061032d610779565b6007546040516370a0823160e01b8152336004820152919250630faa0280916001600160a01b03909116906370a0823190602401602060405180830381865afa15801561037e573d6000803e3d6000fd5b505050506040513d601f19601f820116820180604052508101906103a29190610b5e565b6000546103b890600160a01b900460ff16610875565b6103c29190610b8d565b6103cc9190610bac565b6103d69082610bce565b905090565b6000546001600160a01b031633146104355760405162461bcd60e51b815260206004820181905260248201527f4f776e61626c653a2063616c6c6572206973206e6f7420746865206f776e65726044820152606401610238565b61043f6000610895565b565b6007546040516370a0823160e01b81523360048201526000916001600160a01b0316906370a0823190602401602060405180830381865afa15801561048a573d6000803e3d6000fd5b505050506040513d601f19601f820116820180604052508101906103d69190610b5e565b6001600160a01b03811660009081526009602090815260408083208151608081018352815481526001820154938101939093526002810154918301919091526003015460608201526104ff836108fd565b9150630faa02808160600151610523600060159054906101000a900460ff16610875565b61052d9190610b8d565b6105379190610bac565b6105419083610bce565b9392505050565b6000610553826104ae565b6001600160a01b0383166000908152600960205260409020600301546105799190610bce565b92915050565b6000630faa0280600760009054906101000a90046001600160a01b03166001600160a01b03166318160ddd6040518163ffffffff1660e01b8152600401602060405180830381865afa1580156105d9573d6000803e3d6000fd5b505050506040513d601f19601f820116820180604052508101906105fd9190610b5e565b60005461061390600160a01b900460ff16610875565b61061d9190610b8d565b6106279190610bac565b6005546103d69190610bce565b6000546001600160a01b0316331461068e5760405162461bcd60e51b815260206004820181905260248201527f4f776e61626c653a2063616c6c6572206973206e6f7420746865206f776e65726044820152606401610238565b6001600160a01b03811661070a5760405162461bcd60e51b815260206004820152602660248201527f4f776e61626c653a206e6577206f776e657220697320746865207a65726f206160448201527f64647265737300000000000000000000000000000000000000000000000000006064820152608401610238565b61071381610895565b50565b600754604080517f18160ddd00000000000000000000000000000000000000000000000000000000815290516000926001600160a01b0316916318160ddd9160048083019260209291908290030181865afa15801561048a573d6000803e3d6000fd5b336000908152600860209081526040808320815160608101835281548152600182015493810193909352600201549082015281806107b56109a9565b8060200190518101906107c89190610be6565b60408581015160075491516370a0823160e01b81523360048201529395509193509091630faa0280916001600160a01b0316906370a0823190602401602060405180830381865afa158015610821573d6000803e3d6000fd5b505050506040513d601f19601f820116820180604052508101906108459190610b5e565b61084f8585610b8d565b6108599190610b8d565b6108639190610bac565b61086d9190610bce565b935050505090565b600080600254436108869190610c0a565b905061054160ff841682610b8d565b600080546001600160a01b038381167fffffffffffffffffffffffff0000000000000000000000000000000000000000831681178455604051919092169283917f8be0079c531659141344cd1fd0a4f28419497f9722a3daafe3b4186f6b6457e09190a35050565b6001600160a01b0381166000908152600960209081526040808320815160808101835281548152600182015493810193909352600281015491830191909152600301546060820152818061095085610a48565b8060200190518101906109639190610be6565b915091508260400151630faa0280846060015184846109829190610b8d565b61098c9190610b8d565b6109969190610bac565b6109a09190610bce565b95945050505050565b3360009081526008602090815260408083208151606081810184528254825260018301549482018590526002928301549382019390935290549193909290916109f29190610c0a565b905060008115610a1d578251600354600091610a0d91610c0a565b9050610a198382610bac565b9150505b6040805160208101849052908101829052606001604051602081830303815290604052935050505090565b6060600060096000846001600160a01b03166001600160a01b03168152602001908152602001600020604051806080016040529081600082015481526020016001820154815260200160028201548152602001600382015481525050905060008160200151600254610aba9190610c0a565b905060008115610ae5578251600454600091610ad591610c0a565b9050610ae18382610bac565b9150505b60408051602081018490529081018290526060016040516020818303038152906040529350505050919050565b600060208284031215610b2457600080fd5b81356001600160a01b038116811461054157600080fd5b600060208284031215610b4d57600080fd5b813560ff8116811461054157600080fd5b600060208284031215610b7057600080fd5b5051919050565b634e487b7160e01b600052601160045260246000fd5b6000816000190483118215151615610ba757610ba7610b77565b500290565b600082610bc957634e487b7160e01b600052601260045260246000fd5b500490565b60008219821115610be157610be1610b77565b500190565b60008060408385031215610bf957600080fd5b505080516020909101519092909150565b600082821015610c1c57610c1c610b77565b50039056fea26469706673582212200b23bbe17a110f7b603d2b3726d503cedf1017f54001c1693463fe59cb65bb7364736f6c634300080a0033",
  "linkReferences": {},
  "deployedLinkReferences": {}
}