{
  "_format": "hh-sol-artifact-1",
  "contractName": "InterestModel",
  "sourceName": "contracts/InterestModel.sol",
  "abi": [
    {
      "inputs": [],
      "name": "accrueInterest",
      "outputs": [
        {
          "internalType": "uint256",
          "name": "accruedInterestAmount",
          "type": "uint256"
        }
      ],
      "stateMutability": "nonpayable",
      "type": "function"
    },
    {
      "inputs": [],
      "name": "totalAmountBorrowed",
      "outputs": [
        {
          "internalType": "uint256",
          "name": "",
          "type": "uint256"
        }
      ],
      "stateMutability": "view",
      "type": "function"
    },
    {
      "inputs": [],
      "name": "viewAccruedTokensAmount",
      "outputs": [
        {
          "internalType": "uint256",
          "name": "accruedTokenAmount",
          "type": "uint256"
        }
      ],
      "stateMutability": "view",
      "type": "function"
    },
    {
      "inputs": [],
      "name": "viewBorrowAccruedTokensAmount",
      "outputs": [
        {
          "internalType": "uint256",
          "name": "accruedTokenAmount",
          "type": "uint256"
        }
      ],
      "stateMutability": "view",
      "type": "function"
    }
  ],
  "bytecode": "0x60806040526000805461ffff1916610c05179055600780546001600160a81b0319163060ff60a01b191617600160a01b17905534801561003e57600080fd5b506107758061004e6000396000f3fe608060405234801561001057600080fd5b506004361061004c5760003560e01c8063270c8a311461005157806366c83f6f1461006b578063735b191514610073578063a6afed951461007b575b600080fd5b610059610083565b60405190815260200160405180910390f35b610059610112565b600154610059565b6100596101d0565b3360009081526009602090815260408083208151608081018352815481526001820154938101939093526002810154918301919091526003015460608201526100ca610390565b9150630faa028081606001516100ee600060019054906101000a900460ff16610431565b6100f8919061067c565b610102919061069b565b61010c90836106bd565b91505090565b600061011c610458565b6007546040516370a0823160e01b8152336004820152919250630faa02809173ffffffffffffffffffffffffffffffffffffffff909116906370a0823190602401602060405180830381865afa15801561017a573d6000803e3d6000fd5b505050506040513d601f19601f8201168201806040525081019061019e91906106d5565b6000546101ad9060ff16610431565b6101b7919061067c565b6101c1919061069b565b6101cb90826106bd565b905090565b600080600754600160a01b900460ff1660018111156101f1576101f16106ee565b14156101fd5750600090565b6007805460ff60a01b1916905560025443141561022d57506007805460ff60a01b1916600160a01b179055600090565b6000805461023d9060ff16610431565b9050806003600082825461025191906106bd565b9091555050600754604080517f18160ddd0000000000000000000000000000000000000000000000000000000081529051630faa02809273ffffffffffffffffffffffffffffffffffffffff16916318160ddd9160048083019260209291908290030181865afa1580156102c9573d6000803e3d6000fd5b505050506040513d601f19601f820116820180604052508101906102ed91906106d5565b6102f7908361067c565b610301919061069b565b915061030c8261053b565b6000805461032190610100900460ff16610431565b9050806004600082825461033591906106bd565b9091555050600154600090630faa028090610350908461067c565b61035a919061069b565b9050806006600082825461036e91906106bd565b90915550504360025550506007805460ff60a01b1916600160a01b1790555090565b33600090815260096020908152604080832081516080810183528154815260018201549381019390935260028101549183019190915260030154606082015281806103d9610555565b8060200190518101906103ec9190610704565b915091508260400151630faa02808460600151848461040b919061067c565b610415919061067c565b61041f919061069b565b61042991906106bd565b935050505090565b600080600254436104429190610728565b905061045160ff84168261067c565b9392505050565b33600090815260086020908152604080832081516060810183528154815260018201549381019390935260020154908201528180610494610602565b8060200190518101906104a79190610704565b60408581015160075491516370a0823160e01b81523360048201529395509193509091630faa02809173ffffffffffffffffffffffffffffffffffffffff16906370a0823190602401602060405180830381865afa15801561050d573d6000803e3d6000fd5b505050506040513d601f19601f8201168201806040525081019061053191906106d5565b61040b858561067c565b806005600082825461054d91906106bd565b909155505050565b33600090815260096020908152604080832081516080810183528154815260018201549381018490526002808301549382019390935260039091015460608281019190915291549193909290916105ac9190610728565b9050600081156105d75782516004546000916105c791610728565b90506105d3838261069b565b9150505b6040805160208101849052908101829052606001604051602081830303815290604052935050505090565b33600090815260086020908152604080832081516060818101845282548252600183015494820185905260029283015493820193909352905491939092909161064b9190610728565b9050600081156105d75782516003546000916105c791610728565b634e487b7160e01b600052601160045260246000fd5b600081600019048311821515161561069657610696610666565b500290565b6000826106b857634e487b7160e01b600052601260045260246000fd5b500490565b600082198211156106d0576106d0610666565b500190565b6000602082840312156106e757600080fd5b5051919050565b634e487b7160e01b600052602160045260246000fd5b6000806040838503121561071757600080fd5b505080516020909101519092909150565b60008282101561073a5761073a610666565b50039056fea264697066735822122034c6b2b3f9b649dbf78357b9f266ff13ca43589538e08f8aac526ca6f01b8ca664736f6c634300080a0033",
  "linkReferences": {},
  "deployedLinkReferences": {}
}